{
  "_format": "hh-sol-artifact-1",
  "contractName": "Comptroller",
  "sourceName": "contracts/Comptroller.sol",
  "abi": [
    {
      "inputs": [],
      "payable": false,
      "stateMutability": "nonpayable",
      "type": "constructor"
    },
    {
      "anonymous": false,
      "inputs": [
        {
          "indexed": false,
          "internalType": "string",
          "name": "action",
          "type": "string"
        },
        {
          "indexed": false,
          "internalType": "bool",
          "name": "pauseState",
          "type": "bool"
        }
      ],
      "name": "ActionPaused",
      "type": "event"
    },
    {
      "anonymous": false,
      "inputs": [
        {
          "indexed": false,
          "internalType": "contract CToken",
          "name": "cToken",
          "type": "address"
        },
        {
          "indexed": false,
          "internalType": "string",
          "name": "action",
          "type": "string"
        },
        {
          "indexed": false,
          "internalType": "bool",
          "name": "pauseState",
          "type": "bool"
        }
      ],
      "name": "ActionPaused",
      "type": "event"
    },
    {
      "anonymous": false,
      "inputs": [
        {
          "indexed": true,
          "internalType": "contract CToken",
          "name": "cToken",
          "type": "address"
        },
        {
          "indexed": false,
          "internalType": "uint256",
          "name": "newSpeed",
          "type": "uint256"
        }
      ],
      "name": "CompSpeedUpdated",
      "type": "event"
    },
    {
      "anonymous": false,
      "inputs": [
        {
          "indexed": true,
          "internalType": "contract CToken",
          "name": "cToken",
          "type": "address"
        },
        {
          "indexed": true,
          "internalType": "address",
          "name": "borrower",
          "type": "address"
        },
        {
          "indexed": false,
          "internalType": "uint256",
          "name": "compDelta",
          "type": "uint256"
        },
        {
          "indexed": false,
          "internalType": "uint256",
          "name": "compBorrowIndex",
          "type": "uint256"
        }
      ],
      "name": "DistributedBorrowerComp",
      "type": "event"
    },
    {
      "anonymous": false,
      "inputs": [
        {
          "indexed": true,
          "internalType": "contract CToken",
          "name": "cToken",
          "type": "address"
        },
        {
          "indexed": true,
          "internalType": "address",
          "name": "supplier",
          "type": "address"
        },
        {
          "indexed": false,
          "internalType": "uint256",
          "name": "compDelta",
          "type": "uint256"
        },
        {
          "indexed": false,
          "internalType": "uint256",
          "name": "compSupplyIndex",
          "type": "uint256"
        }
      ],
      "name": "DistributedSupplierComp",
      "type": "event"
    },
    {
      "anonymous": false,
      "inputs": [
        {
          "indexed": false,
          "internalType": "uint256",
          "name": "error",
          "type": "uint256"
        },
        {
          "indexed": false,
          "internalType": "uint256",
          "name": "info",
          "type": "uint256"
        },
        {
          "indexed": false,
          "internalType": "uint256",
          "name": "detail",
          "type": "uint256"
        }
      ],
      "name": "Failure",
      "type": "event"
    },
    {
      "anonymous": false,
      "inputs": [
        {
          "indexed": false,
          "internalType": "contract CToken",
          "name": "cToken",
          "type": "address"
        },
        {
          "indexed": false,
          "internalType": "bool",
          "name": "isComped",
          "type": "bool"
        }
      ],
      "name": "MarketComped",
      "type": "event"
    },
    {
      "anonymous": false,
      "inputs": [
        {
          "indexed": false,
          "internalType": "contract CToken",
          "name": "cToken",
          "type": "address"
        },
        {
          "indexed": false,
          "internalType": "address",
          "name": "account",
          "type": "address"
        }
      ],
      "name": "MarketEntered",
      "type": "event"
    },
    {
      "anonymous": false,
      "inputs": [
        {
          "indexed": false,
          "internalType": "contract CToken",
          "name": "cToken",
          "type": "address"
        },
        {
          "indexed": false,
          "internalType": "address",
          "name": "account",
          "type": "address"
        }
      ],
      "name": "MarketExited",
      "type": "event"
    },
    {
      "anonymous": false,
      "inputs": [
        {
          "indexed": false,
          "internalType": "contract CToken",
          "name": "cToken",
          "type": "address"
        }
      ],
      "name": "MarketListed",
      "type": "event"
    },
    {
      "anonymous": false,
      "inputs": [
        {
          "indexed": false,
          "internalType": "uint256",
          "name": "oldCloseFactorMantissa",
          "type": "uint256"
        },
        {
          "indexed": false,
          "internalType": "uint256",
          "name": "newCloseFactorMantissa",
          "type": "uint256"
        }
      ],
      "name": "NewCloseFactor",
      "type": "event"
    },
    {
      "anonymous": false,
      "inputs": [
        {
          "indexed": false,
          "internalType": "contract CToken",
          "name": "cToken",
          "type": "address"
        },
        {
          "indexed": false,
          "internalType": "uint256",
          "name": "oldCollateralFactorMantissa",
          "type": "uint256"
        },
        {
          "indexed": false,
          "internalType": "uint256",
          "name": "newCollateralFactorMantissa",
          "type": "uint256"
        }
      ],
      "name": "NewCollateralFactor",
      "type": "event"
    },
    {
      "anonymous": false,
      "inputs": [
        {
          "indexed": false,
          "internalType": "uint256",
          "name": "oldCompRate",
          "type": "uint256"
        },
        {
          "indexed": false,
          "internalType": "uint256",
          "name": "newCompRate",
          "type": "uint256"
        }
      ],
      "name": "NewCompRate",
      "type": "event"
    },
    {
      "anonymous": false,
      "inputs": [
        {
          "indexed": false,
          "internalType": "uint256",
          "name": "oldLiquidationIncentiveMantissa",
          "type": "uint256"
        },
        {
          "indexed": false,
          "internalType": "uint256",
          "name": "newLiquidationIncentiveMantissa",
          "type": "uint256"
        }
      ],
      "name": "NewLiquidationIncentive",
      "type": "event"
    },
    {
      "anonymous": false,
      "inputs": [
        {
          "indexed": false,
          "internalType": "uint256",
          "name": "oldMaxAssets",
          "type": "uint256"
        },
        {
          "indexed": false,
          "internalType": "uint256",
          "name": "newMaxAssets",
          "type": "uint256"
        }
      ],
      "name": "NewMaxAssets",
      "type": "event"
    },
    {
      "anonymous": false,
      "inputs": [
        {
          "indexed": false,
          "internalType": "address",
          "name": "oldPauseGuardian",
          "type": "address"
        },
        {
          "indexed": false,
          "internalType": "address",
          "name": "newPauseGuardian",
          "type": "address"
        }
      ],
      "name": "NewPauseGuardian",
      "type": "event"
    },
    {
      "anonymous": false,
      "inputs": [
        {
          "indexed": false,
          "internalType": "contract PriceOracle",
          "name": "oldPriceOracle",
          "type": "address"
        },
        {
          "indexed": false,
          "internalType": "contract PriceOracle",
          "name": "newPriceOracle",
          "type": "address"
        }
      ],
      "name": "NewPriceOracle",
      "type": "event"
    },
    {
      "constant": false,
      "inputs": [
        {
          "internalType": "address[]",
          "name": "cTokens",
          "type": "address[]"
        }
      ],
      "name": "_addCompMarkets",
      "outputs": [],
      "payable": false,
      "stateMutability": "nonpayable",
      "type": "function"
    },
    {
      "constant": false,
      "inputs": [
        {
          "internalType": "contract Unitroller",
          "name": "unitroller",
          "type": "address"
        }
      ],
      "name": "_become",
      "outputs": [],
      "payable": false,
      "stateMutability": "nonpayable",
      "type": "function"
    },
    {
      "constant": true,
      "inputs": [],
      "name": "_borrowGuardianPaused",
      "outputs": [
        {
          "internalType": "bool",
          "name": "",
          "type": "bool"
        }
      ],
      "payable": false,
      "stateMutability": "view",
      "type": "function"
    },
    {
      "constant": false,
      "inputs": [
        {
          "internalType": "address",
          "name": "cToken",
          "type": "address"
        }
      ],
      "name": "_dropCompMarket",
      "outputs": [],
      "payable": false,
      "stateMutability": "nonpayable",
      "type": "function"
    },
    {
      "constant": true,
      "inputs": [],
      "name": "_mintGuardianPaused",
      "outputs": [
        {
          "internalType": "bool",
          "name": "",
          "type": "bool"
        }
      ],
      "payable": false,
      "stateMutability": "view",
      "type": "function"
    },
    {
      "constant": false,
      "inputs": [
        {
          "internalType": "contract CToken",
          "name": "cToken",
          "type": "address"
        },
        {
          "internalType": "bool",
          "name": "state",
          "type": "bool"
        }
      ],
      "name": "_setBorrowPaused",
      "outputs": [
        {
          "internalType": "bool",
          "name": "",
          "type": "bool"
        }
      ],
      "payable": false,
      "stateMutability": "nonpayable",
      "type": "function"
    },
    {
      "constant": false,
      "inputs": [
        {
          "internalType": "uint256",
          "name": "newCloseFactorMantissa",
          "type": "uint256"
        }
      ],
      "name": "_setCloseFactor",
      "outputs": [
        {
          "internalType": "uint256",
          "name": "",
          "type": "uint256"
        }
      ],
      "payable": false,
      "stateMutability": "nonpayable",
      "type": "function"
    },
    {
      "constant": false,
      "inputs": [
        {
          "internalType": "contract CToken",
          "name": "cToken",
          "type": "address"
        },
        {
          "internalType": "uint256",
          "name": "newCollateralFactorMantissa",
          "type": "uint256"
        }
      ],
      "name": "_setCollateralFactor",
      "outputs": [
        {
          "internalType": "uint256",
          "name": "",
          "type": "uint256"
        }
      ],
      "payable": false,
      "stateMutability": "nonpayable",
      "type": "function"
    },
    {
      "constant": false,
      "inputs": [
        {
          "internalType": "uint256",
          "name": "compRate_",
          "type": "uint256"
        }
      ],
      "name": "_setCompRate",
      "outputs": [],
      "payable": false,
      "stateMutability": "nonpayable",
      "type": "function"
    },
    {
      "constant": false,
      "inputs": [
        {
          "internalType": "uint256",
          "name": "newLiquidationIncentiveMantissa",
          "type": "uint256"
        }
      ],
      "name": "_setLiquidationIncentive",
      "outputs": [
        {
          "internalType": "uint256",
          "name": "",
          "type": "uint256"
        }
      ],
      "payable": false,
      "stateMutability": "nonpayable",
      "type": "function"
    },
    {
      "constant": false,
      "inputs": [
        {
          "internalType": "uint256",
          "name": "newMaxAssets",
          "type": "uint256"
        }
      ],
      "name": "_setMaxAssets",
      "outputs": [
        {
          "internalType": "uint256",
          "name": "",
          "type": "uint256"
        }
      ],
      "payable": false,
      "stateMutability": "nonpayable",
      "type": "function"
    },
    {
      "constant": false,
      "inputs": [
        {
          "internalType": "contract CToken",
          "name": "cToken",
          "type": "address"
        },
        {
          "internalType": "bool",
          "name": "state",
          "type": "bool"
        }
      ],
      "name": "_setMintPaused",
      "outputs": [
        {
          "internalType": "bool",
          "name": "",
          "type": "bool"
        }
      ],
      "payable": false,
      "stateMutability": "nonpayable",
      "type": "function"
    },
    {
      "constant": false,
      "inputs": [
        {
          "internalType": "address",
          "name": "newPauseGuardian",
          "type": "address"
        }
      ],
      "name": "_setPauseGuardian",
      "outputs": [
        {
          "internalType": "uint256",
          "name": "",
          "type": "uint256"
        }
      ],
      "payable": false,
      "stateMutability": "nonpayable",
      "type": "function"
    },
    {
      "constant": false,
      "inputs": [
        {
          "internalType": "contract PriceOracle",
          "name": "newOracle",
          "type": "address"
        }
      ],
      "name": "_setPriceOracle",
      "outputs": [
        {
          "internalType": "uint256",
          "name": "",
          "type": "uint256"
        }
      ],
      "payable": false,
      "stateMutability": "nonpayable",
      "type": "function"
    },
    {
      "constant": false,
      "inputs": [
        {
          "internalType": "bool",
          "name": "state",
          "type": "bool"
        }
      ],
      "name": "_setSeizePaused",
      "outputs": [
        {
          "internalType": "bool",
          "name": "",
          "type": "bool"
        }
      ],
      "payable": false,
      "stateMutability": "nonpayable",
      "type": "function"
    },
    {
      "constant": false,
      "inputs": [
        {
          "internalType": "bool",
          "name": "state",
          "type": "bool"
        }
      ],
      "name": "_setTransferPaused",
      "outputs": [
        {
          "internalType": "bool",
          "name": "",
          "type": "bool"
        }
      ],
      "payable": false,
      "stateMutability": "nonpayable",
      "type": "function"
    },
    {
      "constant": false,
      "inputs": [
        {
          "internalType": "contract CToken",
          "name": "cToken",
          "type": "address"
        }
      ],
      "name": "_supportMarket",
      "outputs": [
        {
          "internalType": "uint256",
          "name": "",
          "type": "uint256"
        }
      ],
      "payable": false,
      "stateMutability": "nonpayable",
      "type": "function"
    },
    {
      "constant": true,
      "inputs": [
        {
          "internalType": "address",
          "name": "",
          "type": "address"
        },
        {
          "internalType": "uint256",
          "name": "",
          "type": "uint256"
        }
      ],
      "name": "accountAssets",
      "outputs": [
        {
          "internalType": "contract CToken",
          "name": "",
          "type": "address"
        }
      ],
      "payable": false,
      "stateMutability": "view",
      "type": "function"
    },
    {
      "constant": true,
      "inputs": [],
      "name": "admin",
      "outputs": [
        {
          "internalType": "address",
          "name": "",
          "type": "address"
        }
      ],
      "payable": false,
      "stateMutability": "view",
      "type": "function"
    },
    {
      "constant": true,
      "inputs": [
        {
          "internalType": "uint256",
          "name": "",
          "type": "uint256"
        }
      ],
      "name": "allMarkets",
      "outputs": [
        {
          "internalType": "contract CToken",
          "name": "",
          "type": "address"
        }
      ],
      "payable": false,
      "stateMutability": "view",
      "type": "function"
    },
    {
      "constant": false,
      "inputs": [
        {
          "internalType": "address",
          "name": "cToken",
          "type": "address"
        },
        {
          "internalType": "address",
          "name": "borrower",
          "type": "address"
        },
        {
          "internalType": "uint256",
          "name": "borrowAmount",
          "type": "uint256"
        }
      ],
      "name": "borrowAllowed",
      "outputs": [
        {
          "internalType": "uint256",
          "name": "",
          "type": "uint256"
        }
      ],
      "payable": false,
      "stateMutability": "nonpayable",
      "type": "function"
    },
    {
      "constant": true,
      "inputs": [
        {
          "internalType": "address",
          "name": "",
          "type": "address"
        }
      ],
      "name": "borrowGuardianPaused",
      "outputs": [
        {
          "internalType": "bool",
          "name": "",
          "type": "bool"
        }
      ],
      "payable": false,
      "stateMutability": "view",
      "type": "function"
    },
    {
      "constant": false,
      "inputs": [
        {
          "internalType": "address",
          "name": "cToken",
          "type": "address"
        },
        {
          "internalType": "address",
          "name": "borrower",
          "type": "address"
        },
        {
          "internalType": "uint256",
          "name": "borrowAmount",
          "type": "uint256"
        }
      ],
      "name": "borrowVerify",
      "outputs": [],
      "payable": false,
      "stateMutability": "nonpayable",
      "type": "function"
    },
    {
      "constant": true,
      "inputs": [
        {
          "internalType": "address",
          "name": "account",
          "type": "address"
        },
        {
          "internalType": "contract CToken",
          "name": "cToken",
          "type": "address"
        }
      ],
      "name": "checkMembership",
      "outputs": [
        {
          "internalType": "bool",
          "name": "",
          "type": "bool"
        }
      ],
      "payable": false,
      "stateMutability": "view",
      "type": "function"
    },
    {
      "constant": false,
      "inputs": [
        {
          "internalType": "address",
          "name": "holder",
          "type": "address"
        },
        {
          "internalType": "contract CToken[]",
          "name": "cTokens",
          "type": "address[]"
        }
      ],
      "name": "claimComp",
      "outputs": [],
      "payable": false,
      "stateMutability": "nonpayable",
      "type": "function"
    },
    {
      "constant": false,
      "inputs": [
        {
          "internalType": "address[]",
          "name": "holders",
          "type": "address[]"
        },
        {
          "internalType": "contract CToken[]",
          "name": "cTokens",
          "type": "address[]"
        },
        {
          "internalType": "bool",
          "name": "borrowers",
          "type": "bool"
        },
        {
          "internalType": "bool",
          "name": "suppliers",
          "type": "bool"
        }
      ],
      "name": "claimComp",
      "outputs": [],
      "payable": false,
      "stateMutability": "nonpayable",
      "type": "function"
    },
    {
      "constant": false,
      "inputs": [
        {
          "internalType": "address",
          "name": "holder",
          "type": "address"
        }
      ],
      "name": "claimComp",
      "outputs": [],
      "payable": false,
      "stateMutability": "nonpayable",
      "type": "function"
    },
    {
      "constant": true,
      "inputs": [],
      "name": "closeFactorMantissa",
      "outputs": [
        {
          "internalType": "uint256",
          "name": "",
          "type": "uint256"
        }
      ],
      "payable": false,
      "stateMutability": "view",
      "type": "function"
    },
    {
      "constant": true,
      "inputs": [
        {
          "internalType": "address",
          "name": "",
          "type": "address"
        }
      ],
      "name": "compAccrued",
      "outputs": [
        {
          "internalType": "uint256",
          "name": "",
          "type": "uint256"
        }
      ],
      "payable": false,
      "stateMutability": "view",
      "type": "function"
    },
    {
      "constant": true,
      "inputs": [
        {
          "internalType": "address",
          "name": "",
          "type": "address"
        }
      ],
      "name": "compBorrowState",
      "outputs": [
        {
          "internalType": "uint224",
          "name": "index",
          "type": "uint224"
        },
        {
          "internalType": "uint32",
          "name": "block",
          "type": "uint32"
        }
      ],
      "payable": false,
      "stateMutability": "view",
      "type": "function"
    },
    {
      "constant": true,
      "inputs": [
        {
          "internalType": "address",
          "name": "",
          "type": "address"
        },
        {
          "internalType": "address",
          "name": "",
          "type": "address"
        }
      ],
      "name": "compBorrowerIndex",
      "outputs": [
        {
          "internalType": "uint256",
          "name": "",
          "type": "uint256"
        }
      ],
      "payable": false,
      "stateMutability": "view",
      "type": "function"
    },
    {
      "constant": true,
      "inputs": [],
      "name": "compClaimThreshold",
      "outputs": [
        {
          "internalType": "uint256",
          "name": "",
          "type": "uint256"
        }
      ],
      "payable": false,
      "stateMutability": "view",
      "type": "function"
    },
    {
      "constant": true,
      "inputs": [],
      "name": "compInitialIndex",
      "outputs": [
        {
          "internalType": "uint224",
          "name": "",
          "type": "uint224"
        }
      ],
      "payable": false,
      "stateMutability": "view",
      "type": "function"
    },
    {
      "constant": true,
      "inputs": [],
      "name": "compRate",
      "outputs": [
        {
          "internalType": "uint256",
          "name": "",
          "type": "uint256"
        }
      ],
      "payable": false,
      "stateMutability": "view",
      "type": "function"
    },
    {
      "constant": true,
      "inputs": [
        {
          "internalType": "address",
          "name": "",
          "type": "address"
        }
      ],
      "name": "compSpeeds",
      "outputs": [
        {
          "internalType": "uint256",
          "name": "",
          "type": "uint256"
        }
      ],
      "payable": false,
      "stateMutability": "view",
      "type": "function"
    },
    {
      "constant": true,
      "inputs": [
        {
          "internalType": "address",
          "name": "",
          "type": "address"
        },
        {
          "internalType": "address",
          "name": "",
          "type": "address"
        }
      ],
      "name": "compSupplierIndex",
      "outputs": [
        {
          "internalType": "uint256",
          "name": "",
          "type": "uint256"
        }
      ],
      "payable": false,
      "stateMutability": "view",
      "type": "function"
    },
    {
      "constant": true,
      "inputs": [
        {
          "internalType": "address",
          "name": "",
          "type": "address"
        }
      ],
      "name": "compSupplyState",
      "outputs": [
        {
          "internalType": "uint224",
          "name": "index",
          "type": "uint224"
        },
        {
          "internalType": "uint32",
          "name": "block",
          "type": "uint32"
        }
      ],
      "payable": false,
      "stateMutability": "view",
      "type": "function"
    },
    {
      "constant": true,
      "inputs": [],
      "name": "comptrollerImplementation",
      "outputs": [
        {
          "internalType": "address",
          "name": "",
          "type": "address"
        }
      ],
      "payable": false,
      "stateMutability": "view",
      "type": "function"
    },
    {
      "constant": false,
      "inputs": [
        {
          "internalType": "address[]",
          "name": "cTokens",
          "type": "address[]"
        }
      ],
      "name": "enterMarkets",
      "outputs": [
        {
          "internalType": "uint256[]",
          "name": "",
          "type": "uint256[]"
        }
      ],
      "payable": false,
      "stateMutability": "nonpayable",
      "type": "function"
    },
    {
      "constant": false,
      "inputs": [
        {
          "internalType": "address",
          "name": "cTokenAddress",
          "type": "address"
        }
      ],
      "name": "exitMarket",
      "outputs": [
        {
          "internalType": "uint256",
          "name": "",
          "type": "uint256"
        }
      ],
      "payable": false,
      "stateMutability": "nonpayable",
      "type": "function"
    },
    {
      "constant": true,
      "inputs": [
        {
          "internalType": "address",
          "name": "account",
          "type": "address"
        }
      ],
      "name": "getAccountLiquidity",
      "outputs": [
        {
          "internalType": "uint256",
          "name": "",
          "type": "uint256"
        },
        {
          "internalType": "uint256",
          "name": "",
          "type": "uint256"
        },
        {
          "internalType": "uint256",
          "name": "",
          "type": "uint256"
        }
      ],
      "payable": false,
      "stateMutability": "view",
      "type": "function"
    },
    {
      "constant": true,
      "inputs": [],
      "name": "getAllMarkets",
      "outputs": [
        {
          "internalType": "contract CToken[]",
          "name": "",
          "type": "address[]"
        }
      ],
      "payable": false,
      "stateMutability": "view",
      "type": "function"
    },
    {
      "constant": true,
      "inputs": [
        {
          "internalType": "address",
          "name": "account",
          "type": "address"
        }
      ],
      "name": "getAssetsIn",
      "outputs": [
        {
          "internalType": "contract CToken[]",
          "name": "",
          "type": "address[]"
        }
      ],
      "payable": false,
      "stateMutability": "view",
      "type": "function"
    },
    {
      "constant": true,
      "inputs": [],
      "name": "getBlockNumber",
      "outputs": [
        {
          "internalType": "uint256",
          "name": "",
          "type": "uint256"
        }
      ],
      "payable": false,
      "stateMutability": "view",
      "type": "function"
    },
    {
      "constant": true,
      "inputs": [],
      "name": "getCompAddress",
      "outputs": [
        {
          "internalType": "address",
          "name": "",
          "type": "address"
        }
      ],
      "payable": false,
      "stateMutability": "view",
      "type": "function"
    },
    {
      "constant": true,
      "inputs": [
        {
          "internalType": "address",
          "name": "account",
          "type": "address"
        },
        {
          "internalType": "address",
          "name": "cTokenModify",
          "type": "address"
        },
        {
          "internalType": "uint256",
          "name": "redeemTokens",
          "type": "uint256"
        },
        {
          "internalType": "uint256",
          "name": "borrowAmount",
          "type": "uint256"
        }
      ],
      "name": "getHypotheticalAccountLiquidity",
      "outputs": [
        {
          "internalType": "uint256",
          "name": "",
          "type": "uint256"
        },
        {
          "internalType": "uint256",
          "name": "",
          "type": "uint256"
        },
        {
          "internalType": "uint256",
          "name": "",
          "type": "uint256"
        }
      ],
      "payable": false,
      "stateMutability": "view",
      "type": "function"
    },
    {
      "constant": true,
      "inputs": [],
      "name": "isComptroller",
      "outputs": [
        {
          "internalType": "bool",
          "name": "",
          "type": "bool"
        }
      ],
      "payable": false,
      "stateMutability": "view",
      "type": "function"
    },
    {
      "constant": false,
      "inputs": [
        {
          "internalType": "address",
          "name": "cTokenBorrowed",
          "type": "address"
        },
        {
          "internalType": "address",
          "name": "cTokenCollateral",
          "type": "address"
        },
        {
          "internalType": "address",
          "name": "liquidator",
          "type": "address"
        },
        {
          "internalType": "address",
          "name": "borrower",
          "type": "address"
        },
        {
          "internalType": "uint256",
          "name": "repayAmount",
          "type": "uint256"
        }
      ],
      "name": "liquidateBorrowAllowed",
      "outputs": [
        {
          "internalType": "uint256",
          "name": "",
          "type": "uint256"
        }
      ],
      "payable": false,
      "stateMutability": "nonpayable",
      "type": "function"
    },
    {
      "constant": false,
      "inputs": [
        {
          "internalType": "address",
          "name": "cTokenBorrowed",
          "type": "address"
        },
        {
          "internalType": "address",
          "name": "cTokenCollateral",
          "type": "address"
        },
        {
          "internalType": "address",
          "name": "liquidator",
          "type": "address"
        },
        {
          "internalType": "address",
          "name": "borrower",
          "type": "address"
        },
        {
          "internalType": "uint256",
          "name": "actualRepayAmount",
          "type": "uint256"
        },
        {
          "internalType": "uint256",
          "name": "seizeTokens",
          "type": "uint256"
        }
      ],
      "name": "liquidateBorrowVerify",
      "outputs": [],
      "payable": false,
      "stateMutability": "nonpayable",
      "type": "function"
    },
    {
      "constant": true,
      "inputs": [
        {
          "internalType": "address",
          "name": "cTokenBorrowed",
          "type": "address"
        },
        {
          "internalType": "address",
          "name": "cTokenCollateral",
          "type": "address"
        },
        {
          "internalType": "uint256",
          "name": "actualRepayAmount",
          "type": "uint256"
        }
      ],
      "name": "liquidateCalculateSeizeTokens",
      "outputs": [
        {
          "internalType": "uint256",
          "name": "",
          "type": "uint256"
        },
        {
          "internalType": "uint256",
          "name": "",
          "type": "uint256"
        }
      ],
      "payable": false,
      "stateMutability": "view",
      "type": "function"
    },
    {
      "constant": true,
      "inputs": [],
      "name": "liquidationIncentiveMantissa",
      "outputs": [
        {
          "internalType": "uint256",
          "name": "",
          "type": "uint256"
        }
      ],
      "payable": false,
      "stateMutability": "view",
      "type": "function"
    },
    {
      "constant": true,
      "inputs": [
        {
          "internalType": "address",
          "name": "",
          "type": "address"
        }
      ],
      "name": "markets",
      "outputs": [
        {
          "internalType": "bool",
          "name": "isListed",
          "type": "bool"
        },
        {
          "internalType": "uint256",
          "name": "collateralFactorMantissa",
          "type": "uint256"
        },
        {
          "internalType": "bool",
          "name": "isComped",
          "type": "bool"
        }
      ],
      "payable": false,
      "stateMutability": "view",
      "type": "function"
    },
    {
      "constant": true,
      "inputs": [],
      "name": "maxAssets",
      "outputs": [
        {
          "internalType": "uint256",
          "name": "",
          "type": "uint256"
        }
      ],
      "payable": false,
      "stateMutability": "view",
      "type": "function"
    },
    {
      "constant": false,
      "inputs": [
        {
          "internalType": "address",
          "name": "cToken",
          "type": "address"
        },
        {
          "internalType": "address",
          "name": "minter",
          "type": "address"
        },
        {
          "internalType": "uint256",
          "name": "mintAmount",
          "type": "uint256"
        }
      ],
      "name": "mintAllowed",
      "outputs": [
        {
          "internalType": "uint256",
          "name": "",
          "type": "uint256"
        }
      ],
      "payable": false,
      "stateMutability": "nonpayable",
      "type": "function"
    },
    {
      "constant": true,
      "inputs": [
        {
          "internalType": "address",
          "name": "",
          "type": "address"
        }
      ],
      "name": "mintGuardianPaused",
      "outputs": [
        {
          "internalType": "bool",
          "name": "",
          "type": "bool"
        }
      ],
      "payable": false,
      "stateMutability": "view",
      "type": "function"
    },
    {
      "constant": false,
      "inputs": [
        {
          "internalType": "address",
          "name": "cToken",
          "type": "address"
        },
        {
          "internalType": "address",
          "name": "minter",
          "type": "address"
        },
        {
          "internalType": "uint256",
          "name": "actualMintAmount",
          "type": "uint256"
        },
        {
          "internalType": "uint256",
          "name": "mintTokens",
          "type": "uint256"
        }
      ],
      "name": "mintVerify",
      "outputs": [],
      "payable": false,
      "stateMutability": "nonpayable",
      "type": "function"
    },
    {
      "constant": true,
      "inputs": [],
      "name": "oracle",
      "outputs": [
        {
          "internalType": "contract PriceOracle",
          "name": "",
          "type": "address"
        }
      ],
      "payable": false,
      "stateMutability": "view",
      "type": "function"
    },
    {
      "constant": true,
      "inputs": [],
      "name": "pauseGuardian",
      "outputs": [
        {
          "internalType": "address",
          "name": "",
          "type": "address"
        }
      ],
      "payable": false,
      "stateMutability": "view",
      "type": "function"
    },
    {
      "constant": true,
      "inputs": [],
      "name": "pendingAdmin",
      "outputs": [
        {
          "internalType": "address",
          "name": "",
          "type": "address"
        }
      ],
      "payable": false,
      "stateMutability": "view",
      "type": "function"
    },
    {
      "constant": true,
      "inputs": [],
      "name": "pendingComptrollerImplementation",
      "outputs": [
        {
          "internalType": "address",
          "name": "",
          "type": "address"
        }
      ],
      "payable": false,
      "stateMutability": "view",
      "type": "function"
    },
    {
      "constant": false,
      "inputs": [
        {
          "internalType": "address",
          "name": "cToken",
          "type": "address"
        },
        {
          "internalType": "address",
          "name": "redeemer",
          "type": "address"
        },
        {
          "internalType": "uint256",
          "name": "redeemTokens",
          "type": "uint256"
        }
      ],
      "name": "redeemAllowed",
      "outputs": [
        {
          "internalType": "uint256",
          "name": "",
          "type": "uint256"
        }
      ],
      "payable": false,
      "stateMutability": "nonpayable",
      "type": "function"
    },
    {
      "constant": false,
      "inputs": [
        {
          "internalType": "address",
          "name": "cToken",
          "type": "address"
        },
        {
          "internalType": "address",
          "name": "redeemer",
          "type": "address"
        },
        {
          "internalType": "uint256",
          "name": "redeemAmount",
          "type": "uint256"
        },
        {
          "internalType": "uint256",
          "name": "redeemTokens",
          "type": "uint256"
        }
      ],
      "name": "redeemVerify",
      "outputs": [],
      "payable": false,
      "stateMutability": "nonpayable",
      "type": "function"
    },
    {
      "constant": false,
      "inputs": [],
      "name": "refreshCompSpeeds",
      "outputs": [],
      "payable": false,
      "stateMutability": "nonpayable",
      "type": "function"
    },
    {
      "constant": false,
      "inputs": [
        {
          "internalType": "address",
          "name": "cToken",
          "type": "address"
        },
        {
          "internalType": "address",
          "name": "payer",
          "type": "address"
        },
        {
          "internalType": "address",
          "name": "borrower",
          "type": "address"
        },
        {
          "internalType": "uint256",
          "name": "repayAmount",
          "type": "uint256"
        }
      ],
      "name": "repayBorrowAllowed",
      "outputs": [
        {
          "internalType": "uint256",
          "name": "",
          "type": "uint256"
        }
      ],
      "payable": false,
      "stateMutability": "nonpayable",
      "type": "function"
    },
    {
      "constant": false,
      "inputs": [
        {
          "internalType": "address",
          "name": "cToken",
          "type": "address"
        },
        {
          "internalType": "address",
          "name": "payer",
          "type": "address"
        },
        {
          "internalType": "address",
          "name": "borrower",
          "type": "address"
        },
        {
          "internalType": "uint256",
          "name": "actualRepayAmount",
          "type": "uint256"
        },
        {
          "internalType": "uint256",
          "name": "borrowerIndex",
          "type": "uint256"
        }
      ],
      "name": "repayBorrowVerify",
      "outputs": [],
      "payable": false,
      "stateMutability": "nonpayable",
      "type": "function"
    },
    {
      "constant": false,
      "inputs": [
        {
          "internalType": "address",
          "name": "cTokenCollateral",
          "type": "address"
        },
        {
          "internalType": "address",
          "name": "cTokenBorrowed",
          "type": "address"
        },
        {
          "internalType": "address",
          "name": "liquidator",
          "type": "address"
        },
        {
          "internalType": "address",
          "name": "borrower",
          "type": "address"
        },
        {
          "internalType": "uint256",
          "name": "seizeTokens",
          "type": "uint256"
        }
      ],
      "name": "seizeAllowed",
      "outputs": [
        {
          "internalType": "uint256",
          "name": "",
          "type": "uint256"
        }
      ],
      "payable": false,
      "stateMutability": "nonpayable",
      "type": "function"
    },
    {
      "constant": true,
      "inputs": [],
      "name": "seizeGuardianPaused",
      "outputs": [
        {
          "internalType": "bool",
          "name": "",
          "type": "bool"
        }
      ],
      "payable": false,
      "stateMutability": "view",
      "type": "function"
    },
    {
      "constant": false,
      "inputs": [
        {
          "internalType": "address",
          "name": "cTokenCollateral",
          "type": "address"
        },
        {
          "internalType": "address",
          "name": "cTokenBorrowed",
          "type": "address"
        },
        {
          "internalType": "address",
          "name": "liquidator",
          "type": "address"
        },
        {
          "internalType": "address",
          "name": "borrower",
          "type": "address"
        },
        {
          "internalType": "uint256",
          "name": "seizeTokens",
          "type": "uint256"
        }
      ],
      "name": "seizeVerify",
      "outputs": [],
      "payable": false,
      "stateMutability": "nonpayable",
      "type": "function"
    },
    {
      "constant": false,
      "inputs": [
        {
          "internalType": "address",
          "name": "cToken",
          "type": "address"
        },
        {
          "internalType": "address",
          "name": "src",
          "type": "address"
        },
        {
          "internalType": "address",
          "name": "dst",
          "type": "address"
        },
        {
          "internalType": "uint256",
          "name": "transferTokens",
          "type": "uint256"
        }
      ],
      "name": "transferAllowed",
      "outputs": [
        {
          "internalType": "uint256",
          "name": "",
          "type": "uint256"
        }
      ],
      "payable": false,
      "stateMutability": "nonpayable",
      "type": "function"
    },
    {
      "constant": true,
      "inputs": [],
      "name": "transferGuardianPaused",
      "outputs": [
        {
          "internalType": "bool",
          "name": "",
          "type": "bool"
        }
      ],
      "payable": false,
      "stateMutability": "view",
      "type": "function"
    },
    {
      "constant": false,
      "inputs": [
        {
          "internalType": "address",
          "name": "cToken",
          "type": "address"
        },
        {
          "internalType": "address",
          "name": "src",
          "type": "address"
        },
        {
          "internalType": "address",
          "name": "dst",
          "type": "address"
        },
        {
          "internalType": "uint256",
          "name": "transferTokens",
          "type": "uint256"
        }
      ],
      "name": "transferVerify",
      "outputs": [],
      "payable": false,
      "stateMutability": "nonpayable",
      "type": "function"
    }
  ],
  "bytecode": "0x60806040523480156200001157600080fd5b50336000806101000a81548173ffffffffffffffffffffffffffffffffffffffff021916908373ffffffffffffffffffffffffffffffffffffffff160217905550619bfb80620000626000396000f3fe608060405234801561001057600080fd5b506004361061041c5760003560e01c8063731f0c2b1161022b578063bdcdc25811610130578063dce15449116100b8578063e875544611610087578063e875544614611f8b578063e9af029214611fa9578063eabe7d9114611fed578063ede4edd01461206f578063f851a440146120c75761041c565b8063dce1544914611e2f578063dcfbc0c714611ebd578063e4028eee14611f07578063e6653f3d14611f695761041c565b8063cc7ebdc4116100ff578063cc7ebdc414611b99578063ce485c5e14611bf1578063d02f735114611ca9578063d9226ced14611d6b578063da3d454c14611dad5761041c565b8063bdcdc258146118e9578063c29982381461198b578063c488847b14611a98578063ca0af04314611b215761041c565b80639d1b5a0a116101b3578063abfceffc11610182578063abfceffc1461170d578063ac0b0bb7146117a6578063b0772d0b146117c8578063b21be7fd14611827578063bb82aa5e1461189f5761041c565b80639d1b5a0a146115f3578063a76b3fda1461163d578063a7f0e23114611695578063aa900754146116ef5761041c565b80638c57804e116101fa5780638c57804e146113fc5780638e8f294b146114a35780638ebf636414611511578063929fe9a11461155957806394b2294b146115d55761041c565b8063731f0c2b14611316578063747026c9146113725780637dc0d1d01461139057806387f76303146113da5761041c565b80634ada90af116103315780635ec88c79116102b95780636a491112116102885780636a491112146110a95780636a56947e146110d75780636b79c38d146111655780636d154ea51461120c5780636d35bf91146112685761041c565b80635ec88c7914610dc55780635f5af1aa14610e2b5780635fc7e71e14610e835780636810dfa614610f455761041c565b80634fd42e17116103005780634fd42e1714610bd757806351dff98914610c1957806352d84d1e14610c9157806355ee1fe114610cff5780635c77860514610d575761041c565b80634ada90af14610a935780634d8e503714610ab15780634e79238f14610abb5780634ef4c3e114610b555761041c565b806326782247116103b45780633bcf7ec1116103835780633bcf7ec1146108bb5780633c94786f1461092357806341c728b91461094557806342cbb15c146109bd57806347ef3b3b146109db5761041c565b806326782247146107a35780632d70db78146107ed578063317b0b77146108355780633aa729b4146108775761041c565b80631d7b33d7116103f05780631d7b33d7146105c75780631ededc911461061f57806324008a62146106b757806324a3d622146107595761041c565b80627e3dd21461042157806318c882a5146104435780631c3db2e0146104ab5780631d504dc614610583575b600080fd5b610429612111565b604051808215151515815260200191505060405180910390f35b6104916004803603604081101561045957600080fd5b81019080803573ffffffffffffffffffffffffffffffffffffffff169060200190929190803515159060200190929190505050612116565b604051808215151515815260200191505060405180910390f35b610581600480360360408110156104c157600080fd5b81019080803573ffffffffffffffffffffffffffffffffffffffff169060200190929190803590602001906401000000008111156104fe57600080fd5b82018360208201111561051057600080fd5b8035906020019184602083028401116401000000008311171561053257600080fd5b919080806020026020016040519081016040528093929190818152602001838360200280828437600081840152601f19601f820116905080830192505050505050509192919290505050612493565b005b6105c56004803603602081101561059957600080fd5b81019080803573ffffffffffffffffffffffffffffffffffffffff169060200190929190505050612522565b005b610609600480360360208110156105dd57600080fd5b81019080803573ffffffffffffffffffffffffffffffffffffffff169060200190929190505050612721565b6040518082815260200191505060405180910390f35b6106b5600480360360a081101561063557600080fd5b81019080803573ffffffffffffffffffffffffffffffffffffffff169060200190929190803573ffffffffffffffffffffffffffffffffffffffff169060200190929190803573ffffffffffffffffffffffffffffffffffffffff1690602001909291908035906020019092919080359060200190929190505050612739565b005b610743600480360360808110156106cd57600080fd5b81019080803573ffffffffffffffffffffffffffffffffffffffff169060200190929190803573ffffffffffffffffffffffffffffffffffffffff169060200190929190803573ffffffffffffffffffffffffffffffffffffffff16906020019092919080359060200190929190505050612751565b6040518082815260200191505060405180910390f35b610761612884565b604051808273ffffffffffffffffffffffffffffffffffffffff1673ffffffffffffffffffffffffffffffffffffffff16815260200191505060405180910390f35b6107ab6128aa565b604051808273ffffffffffffffffffffffffffffffffffffffff1673ffffffffffffffffffffffffffffffffffffffff16815260200191505060405180910390f35b61081b6004803603602081101561080357600080fd5b810190808035151590602001909291905050506128d0565b604051808215151515815260200191505060405180910390f35b6108616004803603602081101561084b57600080fd5b8101908080359060200190929190505050612b36565b6040518082815260200191505060405180910390f35b6108b96004803603602081101561088d57600080fd5b81019080803573ffffffffffffffffffffffffffffffffffffffff169060200190929190505050612ca8565b005b610909600480360360408110156108d157600080fd5b81019080803573ffffffffffffffffffffffffffffffffffffffff169060200190929190803515159060200190929190505050612ed1565b604051808215151515815260200191505060405180910390f35b61092b61324e565b604051808215151515815260200191505060405180910390f35b6109bb6004803603608081101561095b57600080fd5b81019080803573ffffffffffffffffffffffffffffffffffffffff169060200190929190803573ffffffffffffffffffffffffffffffffffffffff1690602001909291908035906020019092919080359060200190929190505050613261565b005b6109c5613278565b6040518082815260200191505060405180910390f35b610a91600480360360c08110156109f157600080fd5b81019080803573ffffffffffffffffffffffffffffffffffffffff169060200190929190803573ffffffffffffffffffffffffffffffffffffffff169060200190929190803573ffffffffffffffffffffffffffffffffffffffff169060200190929190803573ffffffffffffffffffffffffffffffffffffffff1690602001909291908035906020019092919080359060200190929190505050613280565b005b610a9b613299565b6040518082815260200191505060405180910390f35b610ab961329f565b005b610b3160048036036080811015610ad157600080fd5b81019080803573ffffffffffffffffffffffffffffffffffffffff169060200190929190803573ffffffffffffffffffffffffffffffffffffffff169060200190929190803590602001909291908035906020019092919050505061332d565b60405180848152602001838152602001828152602001935050505060405180910390f35b610bc160048036036060811015610b6b57600080fd5b81019080803573ffffffffffffffffffffffffffffffffffffffff169060200190929190803573ffffffffffffffffffffffffffffffffffffffff16906020019092919080359060200190929190505050613369565b6040518082815260200191505060405180910390f35b610c0360048036036020811015610bed57600080fd5b81019080803590602001909291905050506134bf565b6040518082815260200191505060405180910390f35b610c8f60048036036080811015610c2f57600080fd5b81019080803573ffffffffffffffffffffffffffffffffffffffff169060200190929190803573ffffffffffffffffffffffffffffffffffffffff1690602001909291908035906020019092919080359060200190929190505050613632565b005b610cbd60048036036020811015610ca757600080fd5b81019080803590602001909291905050506136bb565b604051808273ffffffffffffffffffffffffffffffffffffffff1673ffffffffffffffffffffffffffffffffffffffff16815260200191505060405180910390f35b610d4160048036036020811015610d1557600080fd5b81019080803573ffffffffffffffffffffffffffffffffffffffff1690602001909291905050506136f7565b6040518082815260200191505060405180910390f35b610dc360048036036060811015610d6d57600080fd5b81019080803573ffffffffffffffffffffffffffffffffffffffff169060200190929190803573ffffffffffffffffffffffffffffffffffffffff16906020019092919080359060200190929190505050613875565b005b610e0760048036036020811015610ddb57600080fd5b81019080803573ffffffffffffffffffffffffffffffffffffffff16906020019092919050505061388b565b60405180848152602001838152602001828152602001935050505060405180910390f35b610e6d60048036036020811015610e4157600080fd5b81019080803573ffffffffffffffffffffffffffffffffffffffff1690602001909291905050506138c6565b6040518082815260200191505060405180910390f35b610f2f600480360360a0811015610e9957600080fd5b81019080803573ffffffffffffffffffffffffffffffffffffffff169060200190929190803573ffffffffffffffffffffffffffffffffffffffff169060200190929190803573ffffffffffffffffffffffffffffffffffffffff169060200190929190803573ffffffffffffffffffffffffffffffffffffffff16906020019092919080359060200190929190505050613a66565b6040518082815260200191505060405180910390f35b6110a760048036036080811015610f5b57600080fd5b8101908080359060200190640100000000811115610f7857600080fd5b820183602082011115610f8a57600080fd5b80359060200191846020830284011164010000000083111715610fac57600080fd5b919080806020026020016040519081016040528093929190818152602001838360200280828437600081840152601f19601f8201169050808301925050505050505091929192908035906020019064010000000081111561100c57600080fd5b82018360208201111561101e57600080fd5b8035906020019184602083028401116401000000008311171561104057600080fd5b919080806020026020016040519081016040528093929190818152602001838360200280828437600081840152601f19601f820116905080830192505050505050509192919290803515159060200190929190803515159060200190929190505050613cdf565b005b6110d5600480360360208110156110bf57600080fd5b8101908080359060200190929190505050613f1f565b005b611163600480360360808110156110ed57600080fd5b81019080803573ffffffffffffffffffffffffffffffffffffffff169060200190929190803573ffffffffffffffffffffffffffffffffffffffff169060200190929190803573ffffffffffffffffffffffffffffffffffffffff16906020019092919080359060200190929190505050613ff2565b005b6111a76004803603602081101561117b57600080fd5b81019080803573ffffffffffffffffffffffffffffffffffffffff169060200190929190505050614009565b60405180837bffffffffffffffffffffffffffffffffffffffffffffffffffffffff167bffffffffffffffffffffffffffffffffffffffffffffffffffffffff1681526020018263ffffffff1663ffffffff1681526020019250505060405180910390f35b61124e6004803603602081101561122257600080fd5b81019080803573ffffffffffffffffffffffffffffffffffffffff169060200190929190505050614065565b604051808215151515815260200191505060405180910390f35b611314600480360360a081101561127e57600080fd5b81019080803573ffffffffffffffffffffffffffffffffffffffff169060200190929190803573ffffffffffffffffffffffffffffffffffffffff169060200190929190803573ffffffffffffffffffffffffffffffffffffffff169060200190929190803573ffffffffffffffffffffffffffffffffffffffff16906020019092919080359060200190929190505050614085565b005b6113586004803603602081101561132c57600080fd5b81019080803573ffffffffffffffffffffffffffffffffffffffff16906020019092919050505061409d565b604051808215151515815260200191505060405180910390f35b61137a6140bd565b6040518082815260200191505060405180910390f35b6113986140c8565b604051808273ffffffffffffffffffffffffffffffffffffffff1673ffffffffffffffffffffffffffffffffffffffff16815260200191505060405180910390f35b6113e26140ee565b604051808215151515815260200191505060405180910390f35b61143e6004803603602081101561141257600080fd5b81019080803573ffffffffffffffffffffffffffffffffffffffff169060200190929190505050614101565b60405180837bffffffffffffffffffffffffffffffffffffffffffffffffffffffff167bffffffffffffffffffffffffffffffffffffffffffffffffffffffff1681526020018263ffffffff1663ffffffff1681526020019250505060405180910390f35b6114e5600480360360208110156114b957600080fd5b81019080803573ffffffffffffffffffffffffffffffffffffffff16906020019092919050505061415d565b604051808415151515815260200183815260200182151515158152602001935050505060405180910390f35b61153f6004803603602081101561152757600080fd5b810190808035151590602001909291905050506141a1565b604051808215151515815260200191505060405180910390f35b6115bb6004803603604081101561156f57600080fd5b81019080803573ffffffffffffffffffffffffffffffffffffffff169060200190929190803573ffffffffffffffffffffffffffffffffffffffff169060200190929190505050614407565b604051808215151515815260200191505060405180910390f35b6115dd61449e565b6040518082815260200191505060405180910390f35b6115fb6144a4565b604051808273ffffffffffffffffffffffffffffffffffffffff1673ffffffffffffffffffffffffffffffffffffffff16815260200191505060405180910390f35b61167f6004803603602081101561165357600080fd5b81019080803573ffffffffffffffffffffffffffffffffffffffff1690602001909291905050506144c0565b6040518082815260200191505060405180910390f35b61169d614742565b60405180827bffffffffffffffffffffffffffffffffffffffffffffffffffffffff167bffffffffffffffffffffffffffffffffffffffffffffffffffffffff16815260200191505060405180910390f35b6116f7614755565b6040518082815260200191505060405180910390f35b61174f6004803603602081101561172357600080fd5b81019080803573ffffffffffffffffffffffffffffffffffffffff16906020019092919050505061475b565b6040518080602001828103825283818151815260200191508051906020019060200280838360005b83811015611792578082015181840152602081019050611777565b505050509050019250505060405180910390f35b6117ae61482d565b604051808215151515815260200191505060405180910390f35b6117d0614840565b6040518080602001828103825283818151815260200191508051906020019060200280838360005b838110156118135780820151818401526020810190506117f8565b505050509050019250505060405180910390f35b6118896004803603604081101561183d57600080fd5b81019080803573ffffffffffffffffffffffffffffffffffffffff169060200190929190803573ffffffffffffffffffffffffffffffffffffffff1690602001909291905050506148ce565b6040518082815260200191505060405180910390f35b6118a76148f3565b604051808273ffffffffffffffffffffffffffffffffffffffff1673ffffffffffffffffffffffffffffffffffffffff16815260200191505060405180910390f35b611975600480360360808110156118ff57600080fd5b81019080803573ffffffffffffffffffffffffffffffffffffffff169060200190929190803573ffffffffffffffffffffffffffffffffffffffff169060200190929190803573ffffffffffffffffffffffffffffffffffffffff16906020019092919080359060200190929190505050614919565b6040518082815260200191505060405180910390f35b611a41600480360360208110156119a157600080fd5b81019080803590602001906401000000008111156119be57600080fd5b8201836020820111156119d057600080fd5b803590602001918460208302840111640100000000831117156119f257600080fd5b919080806020026020016040519081016040528093929190818152602001838360200280828437600081840152601f19601f820116905080830192505050505050509192919290505050614a03565b6040518080602001828103825283818151815260200191508051906020019060200280838360005b83811015611a84578082015181840152602081019050611a69565b505050509050019250505060405180910390f35b611b0460048036036060811015611aae57600080fd5b81019080803573ffffffffffffffffffffffffffffffffffffffff169060200190929190803573ffffffffffffffffffffffffffffffffffffffff16906020019092919080359060200190929190505050614aab565b604051808381526020018281526020019250505060405180910390f35b611b8360048036036040811015611b3757600080fd5b81019080803573ffffffffffffffffffffffffffffffffffffffff169060200190929190803573ffffffffffffffffffffffffffffffffffffffff169060200190929190505050614ead565b6040518082815260200191505060405180910390f35b611bdb60048036036020811015611baf57600080fd5b81019080803573ffffffffffffffffffffffffffffffffffffffff169060200190929190505050614ed2565b6040518082815260200191505060405180910390f35b611ca760048036036020811015611c0757600080fd5b8101908080359060200190640100000000811115611c2457600080fd5b820183602082011115611c3657600080fd5b80359060200191846020830284011164010000000083111715611c5857600080fd5b919080806020026020016040519081016040528093929190818152602001838360200280828437600081840152601f19601f820116905080830192505050505050509192919290505050614eea565b005b611d55600480360360a0811015611cbf57600080fd5b81019080803573ffffffffffffffffffffffffffffffffffffffff169060200190929190803573ffffffffffffffffffffffffffffffffffffffff169060200190929190803573ffffffffffffffffffffffffffffffffffffffff169060200190929190803573ffffffffffffffffffffffffffffffffffffffff16906020019092919080359060200190929190505050614fa8565b6040518082815260200191505060405180910390f35b611d9760048036036020811015611d8157600080fd5b8101908080359060200190929190505050615270565b6040518082815260200191505060405180910390f35b611e1960048036036060811015611dc357600080fd5b81019080803573ffffffffffffffffffffffffffffffffffffffff169060200190929190803573ffffffffffffffffffffffffffffffffffffffff1690602001909291908035906020019092919050505061533c565b6040518082815260200191505060405180910390f35b611e7b60048036036040811015611e4557600080fd5b81019080803573ffffffffffffffffffffffffffffffffffffffff16906020019092919080359060200190929190505050615894565b604051808273ffffffffffffffffffffffffffffffffffffffff1673ffffffffffffffffffffffffffffffffffffffff16815260200191505060405180910390f35b611ec56158df565b604051808273ffffffffffffffffffffffffffffffffffffffff1673ffffffffffffffffffffffffffffffffffffffff16815260200191505060405180910390f35b611f5360048036036040811015611f1d57600080fd5b81019080803573ffffffffffffffffffffffffffffffffffffffff16906020019092919080359060200190929190505050615905565b6040518082815260200191505060405180910390f35b611f71615bde565b604051808215151515815260200191505060405180910390f35b611f93615bf1565b6040518082815260200191505060405180910390f35b611feb60048036036020811015611fbf57600080fd5b81019080803573ffffffffffffffffffffffffffffffffffffffff169060200190929190505050615bf7565b005b6120596004803603606081101561200357600080fd5b81019080803573ffffffffffffffffffffffffffffffffffffffff169060200190929190803573ffffffffffffffffffffffffffffffffffffffff16906020019092919080359060200190929190505050615c8a565b6040518082815260200191505060405180910390f35b6120b16004803603602081101561208557600080fd5b81019080803573ffffffffffffffffffffffffffffffffffffffff169060200190929190505050615ce3565b6040518082815260200191505060405180910390f35b6120cf61625b565b604051808273ffffffffffffffffffffffffffffffffffffffff1673ffffffffffffffffffffffffffffffffffffffff16815260200191505060405180910390f35b600181565b6000600960008473ffffffffffffffffffffffffffffffffffffffff1673ffffffffffffffffffffffffffffffffffffffff16815260200190815260200160002060000160009054906101000a900460ff166121bd576040517f08c379a0000000000000000000000000000000000000000000000000000000008152600401808060200182810382526028815260200180619afb6028913960400191505060405180910390fd5b600a60009054906101000a900473ffffffffffffffffffffffffffffffffffffffff1673ffffffffffffffffffffffffffffffffffffffff163373ffffffffffffffffffffffffffffffffffffffff16148061226557506000809054906101000a900473ffffffffffffffffffffffffffffffffffffffff1673ffffffffffffffffffffffffffffffffffffffff163373ffffffffffffffffffffffffffffffffffffffff16145b6122ba576040517f08c379a0000000000000000000000000000000000000000000000000000000008152600401808060200182810382526027815260200180619b546027913960400191505060405180910390fd5b6000809054906101000a900473ffffffffffffffffffffffffffffffffffffffff1673ffffffffffffffffffffffffffffffffffffffff163373ffffffffffffffffffffffffffffffffffffffff161480612319575060011515821515145b61238b576040517f08c379a00000000000000000000000000000000000000000000000000000000081526004018080602001828103825260168152602001807f6f6e6c792061646d696e2063616e20756e70617573650000000000000000000081525060200191505060405180910390fd5b81600c60008573ffffffffffffffffffffffffffffffffffffffff1673ffffffffffffffffffffffffffffffffffffffff16815260200190815260200160002060006101000a81548160ff0219169083151502179055507f71aec636243f9709bb0007ae15e9afb8150ab01716d75fd7573be5cc096e03b08383604051808373ffffffffffffffffffffffffffffffffffffffff1673ffffffffffffffffffffffffffffffffffffffff1681526020018060200183151515158152602001828103825260068152602001807f426f72726f770000000000000000000000000000000000000000000000000000815250602001935050505060405180910390a181905092915050565b606060016040519080825280602002602001820160405280156124c55781602001602082028038833980820191505090505b50905082816000815181106124d657fe5b602002602001019073ffffffffffffffffffffffffffffffffffffffff16908173ffffffffffffffffffffffffffffffffffffffff168152505061251d8183600180613cdf565b505050565b8073ffffffffffffffffffffffffffffffffffffffff1663f851a4406040518163ffffffff1660e01b815260040160206040518083038186803b15801561256857600080fd5b505afa15801561257c573d6000803e3d6000fd5b505050506040513d602081101561259257600080fd5b810190808051906020019092919050505073ffffffffffffffffffffffffffffffffffffffff163373ffffffffffffffffffffffffffffffffffffffff1614612626576040517f08c379a0000000000000000000000000000000000000000000000000000000008152600401808060200182810382526027815260200180619ba06027913960400191505060405180910390fd5b60008173ffffffffffffffffffffffffffffffffffffffff1663c1e803346040518163ffffffff1660e01b8152600401602060405180830381600087803b15801561267057600080fd5b505af1158015612684573d6000803e3d6000fd5b505050506040513d602081101561269a57600080fd5b81019080805190602001909291905050501461271e576040517f08c379a00000000000000000000000000000000000000000000000000000000081526004018080602001828103825260158152602001807f6368616e6765206e6f7420617574686f72697a6564000000000000000000000081525060200191505060405180910390fd5b50565b600f6020528060005260406000206000915090505481565b60001561274a576007546007819055505b5050505050565b6000600960008673ffffffffffffffffffffffffffffffffffffffff1673ffffffffffffffffffffffffffffffffffffffff16815260200190815260200160002060000160009054906101000a900460ff166127bb57600960118111156127b457fe5b905061287c565b6127c3619a05565b60405180602001604052808773ffffffffffffffffffffffffffffffffffffffff1663aa5af0fd6040518163ffffffff1660e01b815260040160206040518083038186803b15801561281457600080fd5b505afa158015612828573d6000803e3d6000fd5b505050506040513d602081101561283e57600080fd5b8101908080519060200190929190505050815250905061285e8682616280565b61286b8685836000616680565b6000601181111561287857fe5b9150505b949350505050565b600a60009054906101000a900473ffffffffffffffffffffffffffffffffffffffff1681565b600160009054906101000a900473ffffffffffffffffffffffffffffffffffffffff1681565b6000600a60009054906101000a900473ffffffffffffffffffffffffffffffffffffffff1673ffffffffffffffffffffffffffffffffffffffff163373ffffffffffffffffffffffffffffffffffffffff16148061297a57506000809054906101000a900473ffffffffffffffffffffffffffffffffffffffff1673ffffffffffffffffffffffffffffffffffffffff163373ffffffffffffffffffffffffffffffffffffffff16145b6129cf576040517f08c379a0000000000000000000000000000000000000000000000000000000008152600401808060200182810382526027815260200180619b546027913960400191505060405180910390fd5b6000809054906101000a900473ffffffffffffffffffffffffffffffffffffffff1673ffffffffffffffffffffffffffffffffffffffff163373ffffffffffffffffffffffffffffffffffffffff161480612a2e575060011515821515145b612aa0576040517f08c379a00000000000000000000000000000000000000000000000000000000081526004018080602001828103825260168152602001807f6f6e6c792061646d696e2063616e20756e70617573650000000000000000000081525060200191505060405180910390fd5b81600a60176101000a81548160ff0219169083151502179055507fef159d9a32b2472e32b098f954f3ce62d232939f1c207070b584df1814de2de082604051808060200183151515158152602001828103825260058152602001807f5365697a650000000000000000000000000000000000000000000000000000008152506020019250505060405180910390a1819050919050565b60008060009054906101000a900473ffffffffffffffffffffffffffffffffffffffff1673ffffffffffffffffffffffffffffffffffffffff163373ffffffffffffffffffffffffffffffffffffffff1614612b9f57612b9860016004616a62565b9050612ca3565b612ba7619a05565b6040518060200160405280848152509050612bc0619a05565b604051806020016040528066b1a2bc2ec500008152509050612be28282616ad6565b15612bfb57612bf2600580616a62565b92505050612ca3565b612c03619a05565b6040518060200160405280670c7d713b49da00008152509050612c268184616aec565b15612c4057612c36600580616a62565b9350505050612ca3565b60006005549050856005819055507f3b9670cf975d26958e754b57098eaa2ac914d8d2a31b83257997b9f346110fd981600554604051808381526020018281526020019250505060405180910390a160006011811115612c9c57fe5b9450505050505b919050565b6000809054906101000a900473ffffffffffffffffffffffffffffffffffffffff1673ffffffffffffffffffffffffffffffffffffffff163373ffffffffffffffffffffffffffffffffffffffff1614612d6a576040517f08c379a000000000000000000000000000000000000000000000000000000000815260040180806020018281038252601f8152602001807f6f6e6c792061646d696e2063616e2064726f7020636f6d70206d61726b65740081525060200191505060405180910390fd5b6000600960008373ffffffffffffffffffffffffffffffffffffffff1673ffffffffffffffffffffffffffffffffffffffff1681526020019081526020016000209050600115158160030160009054906101000a900460ff16151514612e38576040517f08c379a000000000000000000000000000000000000000000000000000000000815260040180806020018281038252601b8152602001807f6d61726b6574206973206e6f74206120636f6d70206d61726b6574000000000081525060200191505060405180910390fd5b60008160030160006101000a81548160ff0219169083151502179055507f93c1f3e36ed71139f466a4ce8c9751790e2e33f5afb2df0dcfb3aeabe55d5aa2826000604051808373ffffffffffffffffffffffffffffffffffffffff1673ffffffffffffffffffffffffffffffffffffffff168152602001821515151581526020019250505060405180910390a1612ecd616b01565b5050565b6000600960008473ffffffffffffffffffffffffffffffffffffffff1673ffffffffffffffffffffffffffffffffffffffff16815260200190815260200160002060000160009054906101000a900460ff16612f78576040517f08c379a0000000000000000000000000000000000000000000000000000000008152600401808060200182810382526028815260200180619afb6028913960400191505060405180910390fd5b600a60009054906101000a900473ffffffffffffffffffffffffffffffffffffffff1673ffffffffffffffffffffffffffffffffffffffff163373ffffffffffffffffffffffffffffffffffffffff16148061302057506000809054906101000a900473ffffffffffffffffffffffffffffffffffffffff1673ffffffffffffffffffffffffffffffffffffffff163373ffffffffffffffffffffffffffffffffffffffff16145b613075576040517f08c379a0000000000000000000000000000000000000000000000000000000008152600401808060200182810382526027815260200180619b546027913960400191505060405180910390fd5b6000809054906101000a900473ffffffffffffffffffffffffffffffffffffffff1673ffffffffffffffffffffffffffffffffffffffff163373ffffffffffffffffffffffffffffffffffffffff1614806130d4575060011515821515145b613146576040517f08c379a00000000000000000000000000000000000000000000000000000000081526004018080602001828103825260168152602001807f6f6e6c792061646d696e2063616e20756e70617573650000000000000000000081525060200191505060405180910390fd5b81600b60008573ffffffffffffffffffffffffffffffffffffffff1673ffffffffffffffffffffffffffffffffffffffff16815260200190815260200160002060006101000a81548160ff0219169083151502179055507f71aec636243f9709bb0007ae15e9afb8150ab01716d75fd7573be5cc096e03b08383604051808373ffffffffffffffffffffffffffffffffffffffff1673ffffffffffffffffffffffffffffffffffffffff1681526020018060200183151515158152602001828103825260048152602001807f4d696e7400000000000000000000000000000000000000000000000000000000815250602001935050505060405180910390a181905092915050565b600a60149054906101000a900460ff1681565b600015613272576007546007819055505b50505050565b600043905090565b600015613291576007546007819055505b505050505050565b60065481565b3273ffffffffffffffffffffffffffffffffffffffff163373ffffffffffffffffffffffffffffffffffffffff1614613323576040517f08c379a0000000000000000000000000000000000000000000000000000000008152600401808060200182810382526031815260200180619b236031913960400191505060405180910390fd5b61332b616b01565b565b6000806000806000806133428a8a8a8a617032565b92509250925082601181111561335457fe5b82829550955095505050509450945094915050565b6000600b60008573ffffffffffffffffffffffffffffffffffffffff1673ffffffffffffffffffffffffffffffffffffffff16815260200190815260200160002060009054906101000a900460ff161561342b576040517f08c379a000000000000000000000000000000000000000000000000000000000815260040180806020018281038252600e8152602001807f6d696e742069732070617573656400000000000000000000000000000000000081525060200191505060405180910390fd5b600960008573ffffffffffffffffffffffffffffffffffffffff1673ffffffffffffffffffffffffffffffffffffffff16815260200190815260200160002060000160009054906101000a900460ff16613493576009601181111561348c57fe5b90506134b8565b61349c84617657565b6134a884846000617a4d565b600060118111156134b557fe5b90505b9392505050565b60008060009054906101000a900473ffffffffffffffffffffffffffffffffffffffff1673ffffffffffffffffffffffffffffffffffffffff163373ffffffffffffffffffffffffffffffffffffffff1614613528576135216001600b616a62565b905061362d565b613530619a05565b6040518060200160405280848152509050613549619a05565b6040518060200160405280670de0b6b3a7640000815250905061356c8282616aec565b156135865761357d6007600c616a62565b9250505061362d565b61358e619a05565b60405180602001604052806714d1120d7b16000081525090506135b18184616aec565b156135cc576135c26007600c616a62565b935050505061362d565b60006006549050856006819055507faeba5a6c40a8ac138134bff1aaa65debf25971188a58804bad717f82f0ec13168187604051808381526020018281526020019250505060405180910390a16000601181111561362657fe5b9450505050505b919050565b6000811480156136425750600082115b156136b5576040517f08c379a00000000000000000000000000000000000000000000000000000000081526004018080602001828103825260118152602001807f72656465656d546f6b656e73207a65726f00000000000000000000000000000081525060200191505060405180910390fd5b50505050565b600d81815481106136c857fe5b906000526020600020016000915054906101000a900473ffffffffffffffffffffffffffffffffffffffff1681565b60008060009054906101000a900473ffffffffffffffffffffffffffffffffffffffff1673ffffffffffffffffffffffffffffffffffffffff163373ffffffffffffffffffffffffffffffffffffffff16146137605761375960016010616a62565b9050613870565b6000600460009054906101000a900473ffffffffffffffffffffffffffffffffffffffff16905082600460006101000a81548173ffffffffffffffffffffffffffffffffffffffff021916908373ffffffffffffffffffffffffffffffffffffffff1602179055507fd52b2b9b7e9ee655fcb95d2e5b9e0c9f69e7ef2b8e9d2d0ea78402d576d22e228184604051808373ffffffffffffffffffffffffffffffffffffffff1673ffffffffffffffffffffffffffffffffffffffff1681526020018273ffffffffffffffffffffffffffffffffffffffff1673ffffffffffffffffffffffffffffffffffffffff1681526020019250505060405180910390a16000601181111561386c57fe5b9150505b919050565b600015613886576007546007819055505b505050565b6000806000806000806138a2876000806000617032565b9250925092508260118111156138b457fe5b82829550955095505050509193909250565b60008060009054906101000a900473ffffffffffffffffffffffffffffffffffffffff1673ffffffffffffffffffffffffffffffffffffffff163373ffffffffffffffffffffffffffffffffffffffff161461392f5761392860016013616a62565b9050613a61565b6000600a60009054906101000a900473ffffffffffffffffffffffffffffffffffffffff16905082600a60006101000a81548173ffffffffffffffffffffffffffffffffffffffff021916908373ffffffffffffffffffffffffffffffffffffffff1602179055507f0613b6ee6a04f0d09f390e4d9318894b9f6ac7fd83897cd8d18896ba579c401e81600a60009054906101000a900473ffffffffffffffffffffffffffffffffffffffff16604051808373ffffffffffffffffffffffffffffffffffffffff1673ffffffffffffffffffffffffffffffffffffffff1681526020018273ffffffffffffffffffffffffffffffffffffffff1673ffffffffffffffffffffffffffffffffffffffff1681526020019250505060405180910390a160006011811115613a5d57fe5b9150505b919050565b6000600960008773ffffffffffffffffffffffffffffffffffffffff1673ffffffffffffffffffffffffffffffffffffffff16815260200190815260200160002060000160009054906101000a900460ff161580613b115750600960008673ffffffffffffffffffffffffffffffffffffffff1673ffffffffffffffffffffffffffffffffffffffff16815260200190815260200160002060000160009054906101000a900460ff16155b15613b2a5760096011811115613b2357fe5b9050613cd6565b600080613b3685617e6c565b925050915060006011811115613b4857fe5b826011811115613b5457fe5b14613b6e57816011811115613b6557fe5b92505050613cd6565b6000811415613b8d5760036011811115613b8457fe5b92505050613cd6565b60008873ffffffffffffffffffffffffffffffffffffffff166395dd9193876040518263ffffffff1660e01b8152600401808273ffffffffffffffffffffffffffffffffffffffff1673ffffffffffffffffffffffffffffffffffffffff16815260200191505060206040518083038186803b158015613c0c57600080fd5b505afa158015613c20573d6000803e3d6000fd5b505050506040513d6020811015613c3657600080fd5b81019080805190602001909291905050509050600080613c66604051806020016040528060055481525084617e8c565b9150915060006003811115613c7757fe5b826003811115613c8357fe5b14613ca157600b6011811115613c9557fe5b95505050505050613cd6565b80871115613cc157601180811115613cb557fe5b95505050505050613cd6565b60006011811115613cce57fe5b955050505050505b95945050505050565b60008090505b8351811015613f18576000848281518110613cfc57fe5b60200260200101519050600960008273ffffffffffffffffffffffffffffffffffffffff1673ffffffffffffffffffffffffffffffffffffffff16815260200190815260200160002060000160009054906101000a900460ff16613dc8576040517f08c379a00000000000000000000000000000000000000000000000000000000081526004018080602001828103825260158152602001807f6d61726b6574206d757374206265206c6973746564000000000000000000000081525060200191505060405180910390fd5b600115158415151415613eb757613ddd619a05565b60405180602001604052808373ffffffffffffffffffffffffffffffffffffffff1663aa5af0fd6040518163ffffffff1660e01b815260040160206040518083038186803b158015613e2e57600080fd5b505afa158015613e42573d6000803e3d6000fd5b505050506040513d6020811015613e5857600080fd5b81019080805190602001909291905050508152509050613e788282616280565b60008090505b8751811015613eb457613ea783898381518110613e9757fe5b6020026020010151846001616680565b8080600101915050613e7e565b50505b600115158315151415613f0a57613ecd81617657565b60008090505b8651811015613f0857613efb82888381518110613eec57fe5b60200260200101516001617a4d565b8080600101915050613ed3565b505b508080600101915050613ce5565b5050505050565b613f27617eef565b613f99576040517f08c379a000000000000000000000000000000000000000000000000000000000815260040180806020018281038252601f8152602001807f6f6e6c792061646d696e2063616e206368616e676520636f6d7020726174650081525060200191505060405180910390fd5b6000600e54905081600e819055507fc227c9272633c3a307d9845bf2bc2509cefb20d655b5f3c1002d8e1e3f22c8b08183604051808381526020018281526020019250505060405180910390a1613fee616b01565b5050565b600015614003576007546007819055505b50505050565b60106020528060005260406000206000915090508060000160009054906101000a90047bffffffffffffffffffffffffffffffffffffffffffffffffffffffff169080600001601c9054906101000a900463ffffffff16905082565b600c6020528060005260406000206000915054906101000a900460ff1681565b600015614096576007546007819055505b5050505050565b600b6020528060005260406000206000915054906101000a900460ff1681565b66038d7ea4c6800081565b600460009054906101000a900473ffffffffffffffffffffffffffffffffffffffff1681565b600a60169054906101000a900460ff1681565b60116020528060005260406000206000915090508060000160009054906101000a90047bffffffffffffffffffffffffffffffffffffffffffffffffffffffff169080600001601c9054906101000a900463ffffffff16905082565b60096020528060005260406000206000915090508060000160009054906101000a900460ff16908060010154908060030160009054906101000a900460ff16905083565b6000600a60009054906101000a900473ffffffffffffffffffffffffffffffffffffffff1673ffffffffffffffffffffffffffffffffffffffff163373ffffffffffffffffffffffffffffffffffffffff16148061424b57506000809054906101000a900473ffffffffffffffffffffffffffffffffffffffff1673ffffffffffffffffffffffffffffffffffffffff163373ffffffffffffffffffffffffffffffffffffffff16145b6142a0576040517f08c379a0000000000000000000000000000000000000000000000000000000008152600401808060200182810382526027815260200180619b546027913960400191505060405180910390fd5b6000809054906101000a900473ffffffffffffffffffffffffffffffffffffffff1673ffffffffffffffffffffffffffffffffffffffff163373ffffffffffffffffffffffffffffffffffffffff1614806142ff575060011515821515145b614371576040517f08c379a00000000000000000000000000000000000000000000000000000000081526004018080602001828103825260168152602001807f6f6e6c792061646d696e2063616e20756e70617573650000000000000000000081525060200191505060405180910390fd5b81600a60166101000a81548160ff0219169083151502179055507fef159d9a32b2472e32b098f954f3ce62d232939f1c207070b584df1814de2de082604051808060200183151515158152602001828103825260088152602001807f5472616e736665720000000000000000000000000000000000000000000000008152506020019250505060405180910390a1819050919050565b6000600960008373ffffffffffffffffffffffffffffffffffffffff1673ffffffffffffffffffffffffffffffffffffffff16815260200190815260200160002060020160008473ffffffffffffffffffffffffffffffffffffffff1673ffffffffffffffffffffffffffffffffffffffff16815260200190815260200160002060009054906101000a900460ff16905092915050565b60075481565b600073bc16da9df0a22f01a16bc0620a27e7d6d6488550905090565b60008060009054906101000a900473ffffffffffffffffffffffffffffffffffffffff1673ffffffffffffffffffffffffffffffffffffffff163373ffffffffffffffffffffffffffffffffffffffff16146145295761452260016012616a62565b905061473d565b600960008373ffffffffffffffffffffffffffffffffffffffff1673ffffffffffffffffffffffffffffffffffffffff16815260200190815260200160002060000160009054906101000a900460ff16156145915761458a600a6011616a62565b905061473d565b8173ffffffffffffffffffffffffffffffffffffffff1663fe9c44ae6040518163ffffffff1660e01b815260040160206040518083038186803b1580156145d757600080fd5b505afa1580156145eb573d6000803e3d6000fd5b505050506040513d602081101561460157600080fd5b81019080805190602001909291905050505060405180606001604052806001151581526020016000815260200160001515815250600960008473ffffffffffffffffffffffffffffffffffffffff1673ffffffffffffffffffffffffffffffffffffffff16815260200190815260200160002060008201518160000160006101000a81548160ff0219169083151502179055506020820151816001015560408201518160030160006101000a81548160ff0219169083151502179055509050506146ca82617f9e565b7fcf583bb0c569eb967f806b11601c4cb93c10310485c67add5f8362c2f212321f82604051808273ffffffffffffffffffffffffffffffffffffffff1673ffffffffffffffffffffffffffffffffffffffff16815260200191505060405180910390a16000601181111561473a57fe5b90505b919050565b6ec097ce7bc90715b34b9f100000000081565b600e5481565b606080600860008473ffffffffffffffffffffffffffffffffffffffff1673ffffffffffffffffffffffffffffffffffffffff16815260200190815260200160002080548060200260200160405190810160405280929190818152602001828054801561481d57602002820191906000526020600020905b8160009054906101000a900473ffffffffffffffffffffffffffffffffffffffff1673ffffffffffffffffffffffffffffffffffffffff16815260200190600101908083116147d3575b5050505050905080915050919050565b600a60179054906101000a900460ff1681565b6060600d8054806020026020016040519081016040528092919081815260200182805480156148c457602002820191906000526020600020905b8160009054906101000a900473ffffffffffffffffffffffffffffffffffffffff1673ffffffffffffffffffffffffffffffffffffffff168152602001906001019080831161487a575b5050505050905090565b6012602052816000526040600020602052806000526040600020600091509150505481565b600260009054906101000a900473ffffffffffffffffffffffffffffffffffffffff1681565b6000600a60169054906101000a900460ff161561499e576040517f08c379a00000000000000000000000000000000000000000000000000000000081526004018080602001828103825260128152602001807f7472616e7366657220697320706175736564000000000000000000000000000081525060200191505060405180910390fd5b60006149ab868685618101565b9050600060118111156149ba57fe5b81146149c957809150506149fb565b6149d286617657565b6149de86866000617a4d565b6149ea86856000617a4d565b600060118111156149f757fe5b9150505b949350505050565b6060600082519050606081604051908082528060200260200182016040528015614a3c5781602001602082028038833980820191505090505b50905060008090505b82811015614aa0576000858281518110614a5b57fe5b60200260200101519050614a6f8133618290565b6011811115614a7a57fe5b838381518110614a8657fe5b602002602001018181525050508080600101915050614a45565b508092505050919050565b6000806000600460009054906101000a900473ffffffffffffffffffffffffffffffffffffffff1673ffffffffffffffffffffffffffffffffffffffff1663fc57d4df876040518263ffffffff1660e01b8152600401808273ffffffffffffffffffffffffffffffffffffffff1673ffffffffffffffffffffffffffffffffffffffff16815260200191505060206040518083038186803b158015614b4f57600080fd5b505afa158015614b63573d6000803e3d6000fd5b505050506040513d6020811015614b7957600080fd5b810190808051906020019092919050505090506000600460009054906101000a900473ffffffffffffffffffffffffffffffffffffffff1673ffffffffffffffffffffffffffffffffffffffff1663fc57d4df876040518263ffffffff1660e01b8152600401808273ffffffffffffffffffffffffffffffffffffffff1673ffffffffffffffffffffffffffffffffffffffff16815260200191505060206040518083038186803b158015614c2d57600080fd5b505afa158015614c41573d6000803e3d6000fd5b505050506040513d6020811015614c5757600080fd5b810190808051906020019092919050505090506000821480614c795750600081145b15614c9b57600d6011811115614c8b57fe5b6000809050935093505050614ea5565b60008673ffffffffffffffffffffffffffffffffffffffff1663182df0f56040518163ffffffff1660e01b815260040160206040518083038186803b158015614ce357600080fd5b505afa158015614cf7573d6000803e3d6000fd5b505050506040513d6020811015614d0d57600080fd5b810190808051906020019092919050505090506000614d2a619a05565b614d32619a05565b614d3a619a05565b6000614d486006548961854e565b809550819250505060006003811115614d5d57fe5b816003811115614d6957fe5b14614d9157600b6011811115614d7b57fe5b6000809050995099505050505050505050614ea5565b614d9b878761854e565b809450819250505060006003811115614db057fe5b816003811115614dbc57fe5b14614de457600b6011811115614dce57fe5b6000809050995099505050505050505050614ea5565b614dee8484618589565b809350819250505060006003811115614e0357fe5b816003811115614e0f57fe5b14614e3757600b6011811115614e2157fe5b6000809050995099505050505050505050614ea5565b614e41828c617e8c565b809650819250505060006003811115614e5657fe5b816003811115614e6257fe5b14614e8a57600b6011811115614e7457fe5b6000809050995099505050505050505050614ea5565b60006011811115614e9757fe5b859950995050505050505050505b935093915050565b6013602052816000526040600020602052806000526040600020600091509150505481565b60146020528060005260406000206000915090505481565b614ef2617eef565b614f64576040517f08c379a000000000000000000000000000000000000000000000000000000000815260040180806020018281038252601e8152602001807f6f6e6c792061646d696e2063616e2061646420636f6d70206d61726b6574000081525060200191505060405180910390fd5b60008090505b8151811015614f9c57614f8f828281518110614f8257fe5b60200260200101516185b0565b8080600101915050614f6a565b50614fa5616b01565b50565b6000600a60179054906101000a900460ff161561502d576040517f08c379a000000000000000000000000000000000000000000000000000000000815260040180806020018281038252600f8152602001807f7365697a6520697320706175736564000000000000000000000000000000000081525060200191505060405180910390fd5b600960008773ffffffffffffffffffffffffffffffffffffffff1673ffffffffffffffffffffffffffffffffffffffff16815260200190815260200160002060000160009054906101000a900460ff1615806150d65750600960008673ffffffffffffffffffffffffffffffffffffffff1673ffffffffffffffffffffffffffffffffffffffff16815260200190815260200160002060000160009054906101000a900460ff16155b156150ef57600960118111156150e857fe5b9050615267565b8473ffffffffffffffffffffffffffffffffffffffff16635fe3b5676040518163ffffffff1660e01b815260040160206040518083038186803b15801561513557600080fd5b505afa158015615149573d6000803e3d6000fd5b505050506040513d602081101561515f57600080fd5b810190808051906020019092919050505073ffffffffffffffffffffffffffffffffffffffff168673ffffffffffffffffffffffffffffffffffffffff16635fe3b5676040518163ffffffff1660e01b815260040160206040518083038186803b1580156151cc57600080fd5b505afa1580156151e0573d6000803e3d6000fd5b505050506040513d60208110156151f657600080fd5b810190808051906020019092919050505073ffffffffffffffffffffffffffffffffffffffff1614615236576002601181111561522f57fe5b9050615267565b61523f86617657565b61524b86846000617a4d565b61525786856000617a4d565b6000601181111561526457fe5b90505b95945050505050565b60008060009054906101000a900473ffffffffffffffffffffffffffffffffffffffff1673ffffffffffffffffffffffffffffffffffffffff163373ffffffffffffffffffffffffffffffffffffffff16146152d9576152d26001600d616a62565b9050615337565b60006007549050826007819055507f7093cf1eb653f749c3ff531d6df7f92764536a7fa0d13530cd26e070780c32ea8184604051808381526020018281526020019250505060405180910390a16000601181111561533357fe5b9150505b919050565b6000600c60008573ffffffffffffffffffffffffffffffffffffffff1673ffffffffffffffffffffffffffffffffffffffff16815260200190815260200160002060009054906101000a900460ff16156153fe576040517f08c379a00000000000000000000000000000000000000000000000000000000081526004018080602001828103825260108152602001807f626f72726f77206973207061757365640000000000000000000000000000000081525060200191505060405180910390fd5b600960008573ffffffffffffffffffffffffffffffffffffffff1673ffffffffffffffffffffffffffffffffffffffff16815260200190815260200160002060000160009054906101000a900460ff16615466576009601181111561545f57fe5b905061588d565b600960008573ffffffffffffffffffffffffffffffffffffffff1673ffffffffffffffffffffffffffffffffffffffff16815260200190815260200160002060020160008473ffffffffffffffffffffffffffffffffffffffff1673ffffffffffffffffffffffffffffffffffffffff16815260200190815260200160002060009054906101000a900460ff1661566d578373ffffffffffffffffffffffffffffffffffffffff163373ffffffffffffffffffffffffffffffffffffffff1614615598576040517f08c379a00000000000000000000000000000000000000000000000000000000081526004018080602001828103825260158152602001807f73656e646572206d7573742062652063546f6b656e000000000000000000000081525060200191505060405180910390fd5b60006155a43385618290565b9050600060118111156155b357fe5b8160118111156155bf57fe5b146155d8578060118111156155d057fe5b91505061588d565b600960008673ffffffffffffffffffffffffffffffffffffffff1673ffffffffffffffffffffffffffffffffffffffff16815260200190815260200160002060020160008573ffffffffffffffffffffffffffffffffffffffff1673ffffffffffffffffffffffffffffffffffffffff16815260200190815260200160002060009054906101000a900460ff1661566b57fe5b505b6000600460009054906101000a900473ffffffffffffffffffffffffffffffffffffffff1673ffffffffffffffffffffffffffffffffffffffff1663fc57d4df866040518263ffffffff1660e01b8152600401808273ffffffffffffffffffffffffffffffffffffffff1673ffffffffffffffffffffffffffffffffffffffff16815260200191505060206040518083038186803b15801561570e57600080fd5b505afa158015615722573d6000803e3d6000fd5b505050506040513d602081101561573857600080fd5b8101908080519060200190929190505050141561576357600d601181111561575c57fe5b905061588d565b6000806157738587600087617032565b92505091506000601181111561578557fe5b82601181111561579157fe5b146157ab578160118111156157a257fe5b9250505061588d565b60008111156157ca57600460118111156157c157fe5b9250505061588d565b6157d2619a05565b60405180602001604052808873ffffffffffffffffffffffffffffffffffffffff1663aa5af0fd6040518163ffffffff1660e01b815260040160206040518083038186803b15801561582357600080fd5b505afa158015615837573d6000803e3d6000fd5b505050506040513d602081101561584d57600080fd5b8101908080519060200190929190505050815250905061586d8782616280565b61587a8787836000616680565b6000601181111561588757fe5b93505050505b9392505050565b600860205281600052604060002081815481106158ad57fe5b906000526020600020016000915091509054906101000a900473ffffffffffffffffffffffffffffffffffffffff1681565b600360009054906101000a900473ffffffffffffffffffffffffffffffffffffffff1681565b60008060009054906101000a900473ffffffffffffffffffffffffffffffffffffffff1673ffffffffffffffffffffffffffffffffffffffff163373ffffffffffffffffffffffffffffffffffffffff161461596e5761596760016006616a62565b9050615bd8565b6000600960008573ffffffffffffffffffffffffffffffffffffffff1673ffffffffffffffffffffffffffffffffffffffff16815260200190815260200160002090508060000160009054906101000a900460ff166159db576159d360096007616a62565b915050615bd8565b6159e3619a05565b60405180602001604052808581525090506159fc619a05565b6040518060200160405280670c7d713b49da00008152509050615a1f8183616aec565b15615a3a57615a3060066008616a62565b9350505050615bd8565b60008514158015615b2457506000600460009054906101000a900473ffffffffffffffffffffffffffffffffffffffff1673ffffffffffffffffffffffffffffffffffffffff1663fc57d4df886040518263ffffffff1660e01b8152600401808273ffffffffffffffffffffffffffffffffffffffff1673ffffffffffffffffffffffffffffffffffffffff16815260200191505060206040518083038186803b158015615ae757600080fd5b505afa158015615afb573d6000803e3d6000fd5b505050506040513d6020811015615b1157600080fd5b8101908080519060200190929190505050145b15615b3f57615b35600d6009616a62565b9350505050615bd8565b6000836001015490508584600101819055507f70483e6592cd5182d45ac970e05bc62cdcc90e9d8ef2c2dbe686cf383bcd7fc5878288604051808473ffffffffffffffffffffffffffffffffffffffff1673ffffffffffffffffffffffffffffffffffffffff168152602001838152602001828152602001935050505060405180910390a160006011811115615bd157fe5b9450505050505b92915050565b600a60159054906101000a900460ff1681565b60055481565b615c8781600d805480602002602001604051908101604052809291908181526020018280548015615c7d57602002820191906000526020600020905b8160009054906101000a900473ffffffffffffffffffffffffffffffffffffffff1673ffffffffffffffffffffffffffffffffffffffff1681526020019060010190808311615c33575b5050505050612493565b50565b600080615c98858585618101565b905060006011811115615ca757fe5b8114615cb65780915050615cdc565b615cbf85617657565b615ccb85856000617a4d565b60006011811115615cd857fe5b9150505b9392505050565b60008082905060008060008373ffffffffffffffffffffffffffffffffffffffff1663c37f68e2336040518263ffffffff1660e01b8152600401808273ffffffffffffffffffffffffffffffffffffffff1673ffffffffffffffffffffffffffffffffffffffff16815260200191505060806040518083038186803b158015615d6b57600080fd5b505afa158015615d7f573d6000803e3d6000fd5b505050506040513d6080811015615d9557600080fd5b81019080805190602001909291908051906020019092919080519060200190929190805190602001909291905050505092509250925060008314615e24576040517f08c379a0000000000000000000000000000000000000000000000000000000008152600401808060200182810382526025815260200180619b7b6025913960400191505060405180910390fd5b60008114615e4357615e38600c6002616a62565b945050505050616256565b6000615e50873385618101565b905060008114615e7357615e67600e600383618c20565b95505050505050616256565b6000600960008773ffffffffffffffffffffffffffffffffffffffff1673ffffffffffffffffffffffffffffffffffffffff16815260200190815260200160002090508060020160003373ffffffffffffffffffffffffffffffffffffffff1673ffffffffffffffffffffffffffffffffffffffff16815260200190815260200160002060009054906101000a900460ff16615f235760006011811115615f1657fe5b9650505050505050616256565b8060020160003373ffffffffffffffffffffffffffffffffffffffff1673ffffffffffffffffffffffffffffffffffffffff16815260200190815260200160002060006101000a81549060ff02191690556060600860003373ffffffffffffffffffffffffffffffffffffffff1673ffffffffffffffffffffffffffffffffffffffff16815260200190815260200160002080548060200260200160405190810160405280929190818152602001828054801561603557602002820191906000526020600020905b8160009054906101000a900473ffffffffffffffffffffffffffffffffffffffff1673ffffffffffffffffffffffffffffffffffffffff1681526020019060010190808311615feb575b50505050509050600081519050600081905060008090505b828110156160b1578973ffffffffffffffffffffffffffffffffffffffff1684828151811061607857fe5b602002602001015173ffffffffffffffffffffffffffffffffffffffff1614156160a4578091506160b1565b808060010191505061604d565b508181106160bb57fe5b6000600860003373ffffffffffffffffffffffffffffffffffffffff1673ffffffffffffffffffffffffffffffffffffffff16815260200190815260200160002090508060018280549050038154811061611157fe5b9060005260206000200160009054906101000a900473ffffffffffffffffffffffffffffffffffffffff1681838154811061614857fe5b9060005260206000200160006101000a81548173ffffffffffffffffffffffffffffffffffffffff021916908373ffffffffffffffffffffffffffffffffffffffff160217905550808054809190600190036161a49190619a18565b507fe699a64c18b07ac5b7301aa273f36a2287239eb9501d81950672794afba29a0d8a33604051808373ffffffffffffffffffffffffffffffffffffffff1673ffffffffffffffffffffffffffffffffffffffff1681526020018273ffffffffffffffffffffffffffffffffffffffff1673ffffffffffffffffffffffffffffffffffffffff1681526020019250505060405180910390a16000601181111561624957fe5b9a50505050505050505050505b919050565b6000809054906101000a900473ffffffffffffffffffffffffffffffffffffffff1681565b6000601160008473ffffffffffffffffffffffffffffffffffffffff1673ffffffffffffffffffffffffffffffffffffffff16815260200190815260200160002090506000600f60008573ffffffffffffffffffffffffffffffffffffffff1673ffffffffffffffffffffffffffffffffffffffff1681526020019081526020016000205490506000616311613278565b905060006163398285600001601c9054906101000a900463ffffffff1663ffffffff16618c94565b905060008111801561634b5750600083115b1561660c5760006163dc8773ffffffffffffffffffffffffffffffffffffffff166347bd37186040518163ffffffff1660e01b815260040160206040518083038186803b15801561639b57600080fd5b505afa1580156163af573d6000803e3d6000fd5b505050506040513d60208110156163c557600080fd5b810190808051906020019092919050505087618cde565b905060006163ea8386618d07565b90506163f4619a44565b60008311616411576040518060200160405280600081525061641c565b61641b8284618d51565b5b9050616426619a44565b61648860405180602001604052808a60000160009054906101000a90047bffffffffffffffffffffffffffffffffffffffffffffffffffffffff167bffffffffffffffffffffffffffffffffffffffffffffffffffffffff1681525083618d91565b905060405180604001604052806164d883600001516040518060400160405280601a81526020017f6e657720696e6465782065786365656473203232342062697473000000000000815250618dc1565b7bffffffffffffffffffffffffffffffffffffffffffffffffffffffff16815260200161653a886040518060400160405280601c81526020017f626c6f636b206e756d6265722065786365656473203332206269747300000000815250618e94565b63ffffffff16815250601160008c73ffffffffffffffffffffffffffffffffffffffff1673ffffffffffffffffffffffffffffffffffffffff16815260200190815260200160002060008201518160000160006101000a8154817bffffffffffffffffffffffffffffffffffffffffffffffffffffffff02191690837bffffffffffffffffffffffffffffffffffffffffffffffffffffffff160217905550602082015181600001601c6101000a81548163ffffffff021916908363ffffffff16021790555090505050505050616678565b600081111561667757616654826040518060400160405280601c81526020017f626c6f636b206e756d6265722065786365656473203332206269747300000000815250618e94565b84600001601c6101000a81548163ffffffff021916908363ffffffff1602179055505b5b505050505050565b6000601160008673ffffffffffffffffffffffffffffffffffffffff1673ffffffffffffffffffffffffffffffffffffffff16815260200190815260200160002090506166cb619a44565b60405180602001604052808360000160009054906101000a90047bffffffffffffffffffffffffffffffffffffffffffffffffffffffff167bffffffffffffffffffffffffffffffffffffffffffffffffffffffff16815250905061672e619a44565b6040518060200160405280601360008a73ffffffffffffffffffffffffffffffffffffffff1673ffffffffffffffffffffffffffffffffffffffff16815260200190815260200160002060008973ffffffffffffffffffffffffffffffffffffffff1673ffffffffffffffffffffffffffffffffffffffff1681526020019081526020016000205481525090508160000151601360008973ffffffffffffffffffffffffffffffffffffffff1673ffffffffffffffffffffffffffffffffffffffff16815260200190815260200160002060008873ffffffffffffffffffffffffffffffffffffffff1673ffffffffffffffffffffffffffffffffffffffff16815260200190815260200160002081905550600081600001511115616a5957616855619a44565b61685f8383618f4f565b905060006169248973ffffffffffffffffffffffffffffffffffffffff166395dd91938a6040518263ffffffff1660e01b8152600401808273ffffffffffffffffffffffffffffffffffffffff1673ffffffffffffffffffffffffffffffffffffffff16815260200191505060206040518083038186803b1580156168e357600080fd5b505afa1580156168f7573d6000803e3d6000fd5b505050506040513d602081101561690d57600080fd5b810190808051906020019092919050505088618cde565b905060006169328284618f7f565b9050600061697f601460008c73ffffffffffffffffffffffffffffffffffffffff1673ffffffffffffffffffffffffffffffffffffffff1681526020019081526020016000205483618faf565b90506169a08a828a6169985766038d7ea4c6800061699b565b60005b618ff9565b601460008c73ffffffffffffffffffffffffffffffffffffffff1673ffffffffffffffffffffffffffffffffffffffff168152602001908152602001600020819055508973ffffffffffffffffffffffffffffffffffffffff168b73ffffffffffffffffffffffffffffffffffffffff167f1fc3ecc087d8d2d15e23d0032af5a47059c3892d003d8e139fdcb6bb327c99a6848960000151604051808381526020018281526020019250505060405180910390a3505050505b50505050505050565b60007f45b96fe442630264581b197e84bbada861235052c5a1aadfff9ea4e40a969aa0836011811115616a9157fe5b836013811115616a9d57fe5b600060405180848152602001838152602001828152602001935050505060405180910390a1826011811115616ace57fe5b905092915050565b6000816000015183600001511115905092915050565b60008160000151836000015110905092915050565b6060600d805480602002602001604051908101604052809291908181526020018280548015616b8557602002820191906000526020600020905b8160009054906101000a900473ffffffffffffffffffffffffffffffffffffffff1673ffffffffffffffffffffffffffffffffffffffff1681526020019060010190808311616b3b575b5050505050905060008090505b8151811015616c6e576000828281518110616ba957fe5b60200260200101519050616bbb619a05565b60405180602001604052808373ffffffffffffffffffffffffffffffffffffffff1663aa5af0fd6040518163ffffffff1660e01b815260040160206040518083038186803b158015616c0c57600080fd5b505afa158015616c20573d6000803e3d6000fd5b505050506040513d6020811015616c3657600080fd5b81019080805190602001909291905050508152509050616c5582617657565b616c5f8282616280565b50508080600101915050616b92565b50616c77619a05565b60405180602001604052806000815250905060608251604051908082528060200260200182016040528015616cc657816020015b616cb3619a57565b815260200190600190039081616cab5790505b50905060008090505b8351811015616f00576000848281518110616ce657fe5b60200260200101519050600960008273ffffffffffffffffffffffffffffffffffffffff1673ffffffffffffffffffffffffffffffffffffffff16815260200190815260200160002060030160009054906101000a900460ff1615616ef257616d4d619a05565b6040518060200160405280600460009054906101000a900473ffffffffffffffffffffffffffffffffffffffff1673ffffffffffffffffffffffffffffffffffffffff1663fc57d4df856040518263ffffffff1660e01b8152600401808273ffffffffffffffffffffffffffffffffffffffff1673ffffffffffffffffffffffffffffffffffffffff16815260200191505060206040518083038186803b158015616df757600080fd5b505afa158015616e0b573d6000803e3d6000fd5b505050506040513d6020811015616e2157600080fd5b81019080805190602001909291905050508152509050616e3f619a05565b616ec9828473ffffffffffffffffffffffffffffffffffffffff166347bd37186040518163ffffffff1660e01b815260040160206040518083038186803b158015616e8957600080fd5b505afa158015616e9d573d6000803e3d6000fd5b505050506040513d6020811015616eb357600080fd5b81019080805190602001909291905050506191bb565b905080858581518110616ed857fe5b6020026020010181905250616eed86826191e7565b955050505b508080600101915050616ccf565b5060008090505b835181101561702c576000600d8281548110616f1f57fe5b9060005260206000200160009054906101000a900473ffffffffffffffffffffffffffffffffffffffff169050600080856000015111616f60576000616f89565b616f88600e54616f83868681518110616f7557fe5b602002602001015188619217565b619258565b5b905080600f60008473ffffffffffffffffffffffffffffffffffffffff1673ffffffffffffffffffffffffffffffffffffffff168152602001908152602001600020819055508173ffffffffffffffffffffffffffffffffffffffff167f2ab93f65628379309f36cb125e90d7c902454a545c4f8b8cb0794af75c24b807826040518082815260200191505060405180910390a250508080600101915050616f07565b50505050565b600080600061703f619a6a565b6000806060600860008c73ffffffffffffffffffffffffffffffffffffffff1673ffffffffffffffffffffffffffffffffffffffff16815260200190815260200160002080548060200260200160405190810160405280929190818152602001828054801561710357602002820191906000526020600020905b8160009054906101000a900473ffffffffffffffffffffffffffffffffffffffff1673ffffffffffffffffffffffffffffffffffffffff16815260200190600101908083116170b9575b5050505050905060008090505b81518110156175ff57600082828151811061712757fe5b602002602001015190508073ffffffffffffffffffffffffffffffffffffffff1663c37f68e28e6040518263ffffffff1660e01b8152600401808273ffffffffffffffffffffffffffffffffffffffff1673ffffffffffffffffffffffffffffffffffffffff16815260200191505060806040518083038186803b1580156171ae57600080fd5b505afa1580156171c2573d6000803e3d6000fd5b505050506040513d60808110156171d857600080fd5b8101908080519060200190929190805190602001909291908051906020019092919080519060200190929190505050896040018a6060018b608001838152508381525083815250839850505050506000851461724a57600f60008081915080905098509850985050505050505061764d565b6040518060200160405280600960008473ffffffffffffffffffffffffffffffffffffffff1673ffffffffffffffffffffffffffffffffffffffff168152602001908152602001600020600101548152508660c00181905250604051806020016040528087608001518152508660e00181905250600460009054906101000a900473ffffffffffffffffffffffffffffffffffffffff1673ffffffffffffffffffffffffffffffffffffffff1663fc57d4df826040518263ffffffff1660e01b8152600401808273ffffffffffffffffffffffffffffffffffffffff1673ffffffffffffffffffffffffffffffffffffffff16815260200191505060206040518083038186803b15801561735d57600080fd5b505afa158015617371573d6000803e3d6000fd5b505050506040513d602081101561738757600080fd5b81019080805190602001909291905050508660a001818152505060008660a0015114156173ca57600d60008081915080905098509850985050505050505061764d565b60405180602001604052808760a001518152508661010001819052506173fe8660c001518760e00151886101000151619281565b809050876101200181905281955050506000600381111561741b57fe5b84600381111561742757fe5b1461744857600b60008081915080905098509850985050505050505061764d565b617460866101200151876040015188600001516192e7565b876000018181525081955050506000600381111561747a57fe5b84600381111561748657fe5b146174a757600b60008081915080905098509850985050505050505061764d565b6174bf866101000151876060015188602001516192e7565b87602001818152508195505050600060038111156174d957fe5b8460038111156174e557fe5b1461750657600b60008081915080905098509850985050505050505061764d565b8b73ffffffffffffffffffffffffffffffffffffffff168173ffffffffffffffffffffffffffffffffffffffff1614156175f15761754e8661012001518c88602001516192e7565b876020018181525081955050506000600381111561756857fe5b84600381111561757457fe5b1461759557600b60008081915080905098509850985050505050505061764d565b6175a98661010001518b88602001516192e7565b87602001818152508195505050600060038111156175c357fe5b8460038111156175cf57fe5b146175f057600b60008081915080905098509850985050505050505061764d565b5b508080600101915050617110565b50836020015184600001511115617631576000846020015185600001510360008090509650965096505050505061764d565b6000808560000151866020015103819150965096509650505050505b9450945094915050565b6000601060008373ffffffffffffffffffffffffffffffffffffffff1673ffffffffffffffffffffffffffffffffffffffff16815260200190815260200160002090506000600f60008473ffffffffffffffffffffffffffffffffffffffff1673ffffffffffffffffffffffffffffffffffffffff16815260200190815260200160002054905060006176e8613278565b905060006177108285600001601c9054906101000a900463ffffffff1663ffffffff16618c94565b90506000811180156177225750600083115b156179da5760008573ffffffffffffffffffffffffffffffffffffffff166318160ddd6040518163ffffffff1660e01b815260040160206040518083038186803b15801561776f57600080fd5b505afa158015617783573d6000803e3d6000fd5b505050506040513d602081101561779957600080fd5b8101908080519060200190929190505050905060006177b88386618d07565b90506177c2619a44565b600083116177df57604051806020016040528060008152506177ea565b6177e98284618d51565b5b90506177f4619a44565b61785660405180602001604052808a60000160009054906101000a90047bffffffffffffffffffffffffffffffffffffffffffffffffffffffff167bffffffffffffffffffffffffffffffffffffffffffffffffffffffff1681525083618d91565b905060405180604001604052806178a683600001516040518060400160405280601a81526020017f6e657720696e6465782065786365656473203232342062697473000000000000815250618dc1565b7bffffffffffffffffffffffffffffffffffffffffffffffffffffffff168152602001617908886040518060400160405280601c81526020017f626c6f636b206e756d6265722065786365656473203332206269747300000000815250618e94565b63ffffffff16815250601060008b73ffffffffffffffffffffffffffffffffffffffff1673ffffffffffffffffffffffffffffffffffffffff16815260200190815260200160002060008201518160000160006101000a8154817bffffffffffffffffffffffffffffffffffffffffffffffffffffffff02191690837bffffffffffffffffffffffffffffffffffffffffffffffffffffffff160217905550602082015181600001601c6101000a81548163ffffffff021916908363ffffffff16021790555090505050505050617a46565b6000811115617a4557617a22826040518060400160405280601c81526020017f626c6f636b206e756d6265722065786365656473203332206269747300000000815250618e94565b84600001601c6101000a81548163ffffffff021916908363ffffffff1602179055505b5b5050505050565b6000601060008573ffffffffffffffffffffffffffffffffffffffff1673ffffffffffffffffffffffffffffffffffffffff1681526020019081526020016000209050617a98619a44565b60405180602001604052808360000160009054906101000a90047bffffffffffffffffffffffffffffffffffffffffffffffffffffffff167bffffffffffffffffffffffffffffffffffffffffffffffffffffffff168152509050617afb619a44565b6040518060200160405280601260008973ffffffffffffffffffffffffffffffffffffffff1673ffffffffffffffffffffffffffffffffffffffff16815260200190815260200160002060008873ffffffffffffffffffffffffffffffffffffffff1673ffffffffffffffffffffffffffffffffffffffff1681526020019081526020016000205481525090508160000151601260008873ffffffffffffffffffffffffffffffffffffffff1673ffffffffffffffffffffffffffffffffffffffff16815260200190815260200160002060008773ffffffffffffffffffffffffffffffffffffffff1673ffffffffffffffffffffffffffffffffffffffff1681526020019081526020016000208190555060008160000151148015617c25575060008260000151115b15617c62576ec097ce7bc90715b34b9f10000000007bffffffffffffffffffffffffffffffffffffffffffffffffffffffff168160000181815250505b617c6a619a44565b617c748383618f4f565b905060008773ffffffffffffffffffffffffffffffffffffffff166370a08231886040518263ffffffff1660e01b8152600401808273ffffffffffffffffffffffffffffffffffffffff1673ffffffffffffffffffffffffffffffffffffffff16815260200191505060206040518083038186803b158015617cf557600080fd5b505afa158015617d09573d6000803e3d6000fd5b505050506040513d6020811015617d1f57600080fd5b810190808051906020019092919050505090506000617d3e8284618f7f565b90506000617d8b601460008b73ffffffffffffffffffffffffffffffffffffffff1673ffffffffffffffffffffffffffffffffffffffff1681526020019081526020016000205483618faf565b9050617dac89828a617da45766038d7ea4c68000617da7565b60005b618ff9565b601460008b73ffffffffffffffffffffffffffffffffffffffff1673ffffffffffffffffffffffffffffffffffffffff168152602001908152602001600020819055508873ffffffffffffffffffffffffffffffffffffffff168a73ffffffffffffffffffffffffffffffffffffffff167f2caecd17d02f56fa897705dcc740da2d237c373f70686f4e0d9bd3bf0400ea7a848960000151604051808381526020018281526020019250505060405180910390a350505050505050505050565b6000806000617e7f846000806000617032565b9250925092509193909250565b6000806000617e99619a05565b617ea38686619352565b9150915060006003811115617eb457fe5b826003811115617ec057fe5b14617ed657816000809050935093505050617ee8565b6000617ee1826193d0565b9350935050505b9250929050565b60008060009054906101000a900473ffffffffffffffffffffffffffffffffffffffff1673ffffffffffffffffffffffffffffffffffffffff163373ffffffffffffffffffffffffffffffffffffffff161480617f995750600260009054906101000a900473ffffffffffffffffffffffffffffffffffffffff1673ffffffffffffffffffffffffffffffffffffffff163373ffffffffffffffffffffffffffffffffffffffff16145b905090565b60008090505b600d80549050811015618097578173ffffffffffffffffffffffffffffffffffffffff16600d8281548110617fd557fe5b9060005260206000200160009054906101000a900473ffffffffffffffffffffffffffffffffffffffff1673ffffffffffffffffffffffffffffffffffffffff16141561808a576040517f08c379a00000000000000000000000000000000000000000000000000000000081526004018080602001828103825260148152602001807f6d61726b657420616c726561647920616464656400000000000000000000000081525060200191505060405180910390fd5b8080600101915050617fa4565b50600d8190806001815401808255809150509060018203906000526020600020016000909192909190916101000a81548173ffffffffffffffffffffffffffffffffffffffff021916908373ffffffffffffffffffffffffffffffffffffffff1602179055505050565b6000600960008573ffffffffffffffffffffffffffffffffffffffff1673ffffffffffffffffffffffffffffffffffffffff16815260200190815260200160002060000160009054906101000a900460ff1661816b576009601181111561816457fe5b9050618289565b600960008573ffffffffffffffffffffffffffffffffffffffff1673ffffffffffffffffffffffffffffffffffffffff16815260200190815260200160002060020160008473ffffffffffffffffffffffffffffffffffffffff1673ffffffffffffffffffffffffffffffffffffffff16815260200190815260200160002060009054906101000a900460ff16618210576000601181111561820957fe5b9050618289565b6000806182208587866000617032565b92505091506000601181111561823257fe5b82601181111561823e57fe5b146182585781601181111561824f57fe5b92505050618289565b6000811115618277576004601181111561826e57fe5b92505050618289565b6000601181111561828457fe5b925050505b9392505050565b600080600960008573ffffffffffffffffffffffffffffffffffffffff1673ffffffffffffffffffffffffffffffffffffffff16815260200190815260200160002090508060000160009054906101000a900460ff166182f4576009915050618548565b600115158160020160008573ffffffffffffffffffffffffffffffffffffffff1673ffffffffffffffffffffffffffffffffffffffff16815260200190815260200160002060009054906101000a900460ff1615151415618359576000915050618548565b600754600860008573ffffffffffffffffffffffffffffffffffffffff1673ffffffffffffffffffffffffffffffffffffffff16815260200190815260200160002080549050106183ae576010915050618548565b60018160020160008573ffffffffffffffffffffffffffffffffffffffff1673ffffffffffffffffffffffffffffffffffffffff16815260200190815260200160002060006101000a81548160ff021916908315150217905550600860008473ffffffffffffffffffffffffffffffffffffffff1673ffffffffffffffffffffffffffffffffffffffff1681526020019081526020016000208490806001815401808255809150509060018203906000526020600020016000909192909190916101000a81548173ffffffffffffffffffffffffffffffffffffffff021916908373ffffffffffffffffffffffffffffffffffffffff160217905550507f3ab23ab0d51cccc0c3085aec51f99228625aa1a922b3a8ca89a26b0f2027a1a58484604051808373ffffffffffffffffffffffffffffffffffffffff1673ffffffffffffffffffffffffffffffffffffffff1681526020018273ffffffffffffffffffffffffffffffffffffffff1673ffffffffffffffffffffffffffffffffffffffff1681526020019250505060405180910390a160009150505b92915050565b6000618558619a05565b61857e6040518060200160405280868152506040518060200160405280868152506193ef565b915091509250929050565b6000618593619a05565b6185a584600001518460000151619510565b915091509250929050565b6000600960008373ffffffffffffffffffffffffffffffffffffffff1673ffffffffffffffffffffffffffffffffffffffff1681526020019081526020016000209050600115158160000160009054906101000a900460ff1615151461867e576040517f08c379a00000000000000000000000000000000000000000000000000000000081526004018080602001828103825260198152602001807f636f6d70206d61726b6574206973206e6f74206c69737465640000000000000081525060200191505060405180910390fd5b600015158160030160009054906101000a900460ff16151514618709576040517f08c379a00000000000000000000000000000000000000000000000000000000081526004018080602001828103825260198152602001807f636f6d70206d61726b657420616c72656164792061646465640000000000000081525060200191505060405180910390fd5b60018160030160006101000a81548160ff0219169083151502179055507f93c1f3e36ed71139f466a4ce8c9751790e2e33f5afb2df0dcfb3aeabe55d5aa2826001604051808373ffffffffffffffffffffffffffffffffffffffff1673ffffffffffffffffffffffffffffffffffffffff168152602001821515151581526020019250505060405180910390a16000601060008473ffffffffffffffffffffffffffffffffffffffff1673ffffffffffffffffffffffffffffffffffffffff16815260200190815260200160002060000160009054906101000a90047bffffffffffffffffffffffffffffffffffffffffffffffffffffffff167bffffffffffffffffffffffffffffffffffffffffffffffffffffffff1614801561888657506000601060008473ffffffffffffffffffffffffffffffffffffffff1673ffffffffffffffffffffffffffffffffffffffff168152602001908152602001600020600001601c9054906101000a900463ffffffff1663ffffffff16145b156189d95760405180604001604052806ec097ce7bc90715b34b9f10000000007bffffffffffffffffffffffffffffffffffffffffffffffffffffffff16815260200161890f6188d4613278565b6040518060400160405280601c81526020017f626c6f636b206e756d6265722065786365656473203332206269747300000000815250618e94565b63ffffffff16815250601060008473ffffffffffffffffffffffffffffffffffffffff1673ffffffffffffffffffffffffffffffffffffffff16815260200190815260200160002060008201518160000160006101000a8154817bffffffffffffffffffffffffffffffffffffffffffffffffffffffff02191690837bffffffffffffffffffffffffffffffffffffffffffffffffffffffff160217905550602082015181600001601c6101000a81548163ffffffff021916908363ffffffff1602179055509050505b6000601160008473ffffffffffffffffffffffffffffffffffffffff1673ffffffffffffffffffffffffffffffffffffffff16815260200190815260200160002060000160009054906101000a90047bffffffffffffffffffffffffffffffffffffffffffffffffffffffff167bffffffffffffffffffffffffffffffffffffffffffffffffffffffff16148015618ac957506000601160008473ffffffffffffffffffffffffffffffffffffffff1673ffffffffffffffffffffffffffffffffffffffff168152602001908152602001600020600001601c9054906101000a900463ffffffff1663ffffffff16145b15618c1c5760405180604001604052806ec097ce7bc90715b34b9f10000000007bffffffffffffffffffffffffffffffffffffffffffffffffffffffff168152602001618b52618b17613278565b6040518060400160405280601c81526020017f626c6f636b206e756d6265722065786365656473203332206269747300000000815250618e94565b63ffffffff16815250601160008473ffffffffffffffffffffffffffffffffffffffff1673ffffffffffffffffffffffffffffffffffffffff16815260200190815260200160002060008201518160000160006101000a8154817bffffffffffffffffffffffffffffffffffffffffffffffffffffffff02191690837bffffffffffffffffffffffffffffffffffffffffffffffffffffffff160217905550602082015181600001601c6101000a81548163ffffffff021916908363ffffffff1602179055509050505b5050565b60007f45b96fe442630264581b197e84bbada861235052c5a1aadfff9ea4e40a969aa0846011811115618c4f57fe5b846013811115618c5b57fe5b8460405180848152602001838152602001828152602001935050505060405180910390a1836011811115618c8b57fe5b90509392505050565b6000618cd683836040518060400160405280601581526020017f7375627472616374696f6e20756e646572666c6f7700000000000000000000008152506195e4565b905092915050565b6000618cff618cf584670de0b6b3a7640000618d07565b836000015161969e565b905092915050565b6000618d4983836040518060400160405280601781526020017f6d756c7469706c69636174696f6e206f766572666c6f770000000000000000008152506196e8565b905092915050565b618d59619a44565b6040518060200160405280618d86618d80866ec097ce7bc90715b34b9f1000000000618d07565b8561969e565b815250905092915050565b618d99619a44565b6040518060200160405280618db685600001518560000151618faf565b815250905092915050565b60007c010000000000000000000000000000000000000000000000000000000083108290618e8a576040517f08c379a00000000000000000000000000000000000000000000000000000000081526004018080602001828103825283818151815260200191508051906020019080838360005b83811015618e4f578082015181840152602081019050618e34565b50505050905090810190601f168015618e7c5780820380516001836020036101000a031916815260200191505b509250505060405180910390fd5b5082905092915050565b600064010000000083108290618f45576040517f08c379a00000000000000000000000000000000000000000000000000000000081526004018080602001828103825283818151815260200191508051906020019080838360005b83811015618f0a578082015181840152602081019050618eef565b50505050905090810190601f168015618f375780820380516001836020036101000a031916815260200191505b509250505060405180910390fd5b5082905092915050565b618f57619a44565b6040518060200160405280618f7485600001518560000151618c94565b815250905092915050565b60006ec097ce7bc90715b34b9f1000000000618f9f848460000151618d07565b81618fa657fe5b04905092915050565b6000618ff183836040518060400160405280601181526020017f6164646974696f6e206f766572666c6f770000000000000000000000000000008152506197cd565b905092915050565b600081831015801561900b5750600083115b156191b057600061901a6144a4565b905060008173ffffffffffffffffffffffffffffffffffffffff166370a08231306040518263ffffffff1660e01b8152600401808273ffffffffffffffffffffffffffffffffffffffff1673ffffffffffffffffffffffffffffffffffffffff16815260200191505060206040518083038186803b15801561909b57600080fd5b505afa1580156190af573d6000803e3d6000fd5b505050506040513d60208110156190c557600080fd5b810190808051906020019092919050505090508085116191ad578173ffffffffffffffffffffffffffffffffffffffff1663a9059cbb87876040518363ffffffff1660e01b8152600401808373ffffffffffffffffffffffffffffffffffffffff1673ffffffffffffffffffffffffffffffffffffffff16815260200182815260200192505050602060405180830381600087803b15801561916657600080fd5b505af115801561917a573d6000803e3d6000fd5b505050506040513d602081101561919057600080fd5b8101908080519060200190929190505050506000925050506191b4565b50505b8290505b9392505050565b6191c3619a05565b60405180602001604052806191dc856000015185618d07565b815250905092915050565b6191ef619a05565b604051806020016040528061920c85600001518560000151618faf565b815250905092915050565b61921f619a05565b604051806020016040528061924d6192438660000151670de0b6b3a7640000618d07565b856000015161969e565b815250905092915050565b6000670de0b6b3a7640000619271848460000151618d07565b8161927857fe5b04905092915050565b600061928b619a05565b6000619295619a05565b61929f87876193ef565b91509150600060038111156192b057fe5b8260038111156192bc57fe5b146192ce5781819350935050506192df565b6192d881866193ef565b9350935050505b935093915050565b60008060006192f4619a05565b6192fe8787619352565b915091506000600381111561930f57fe5b82600381111561931b57fe5b146193315781600080905093509350505061934a565b61934361933d826193d0565b8661988c565b9350935050505b935093915050565b600061935c619a05565b60008061936d8660000151866198be565b915091506000600381111561937e57fe5b82600381111561938a57fe5b146193ae5781604051806020016040528060008152508090509350935050506193c9565b60006040518060200160405280838152508090509350935050505b9250929050565b6000670de0b6b3a76400008260000151816193e757fe5b049050919050565b60006193f9619a05565b60008061940e866000015186600001516198be565b915091506000600381111561941f57fe5b82600381111561942b57fe5b1461944f578160405180602001604052806000815250809050935093505050619509565b60008061946e6002670de0b6b3a76400008161946757fe5b048461988c565b915091506000600381111561947f57fe5b82600381111561948b57fe5b146194b15781604051806020016040528060008152508090509550955050505050619509565b6000806194c683670de0b6b3a7640000619911565b91509150600060038111156194d757fe5b8260038111156194e357fe5b146194ea57fe5b6000604051806020016040528083815250809050975097505050505050505b9250929050565b600061951a619a05565b60008061952f86670de0b6b3a76400006198be565b915091506000600381111561954057fe5b82600381111561954c57fe5b146195705781604051806020016040528060008152508090509350935050506195dd565b60008061957d8388619911565b915091506000600381111561958e57fe5b82600381111561959a57fe5b146195c057816040518060200160405280600081525080905095509550505050506195dd565b600060405180602001604052808381525080905095509550505050505b9250929050565b6000838311158290619691576040517f08c379a00000000000000000000000000000000000000000000000000000000081526004018080602001828103825283818151815260200191508051906020019080838360005b8381101561965657808201518184015260208101905061963b565b50505050905090810190601f1680156196835780820380516001836020036101000a031916815260200191505b509250505060405180910390fd5b5082840390509392505050565b60006196e083836040518060400160405280600e81526020017f646976696465206279207a65726f000000000000000000000000000000000000815250619945565b905092915050565b6000808414806196f85750600083145b1561970657600090506197c6565b600083850290508385828161971757fe5b041483906197c0576040517f08c379a00000000000000000000000000000000000000000000000000000000081526004018080602001828103825283818151815260200191508051906020019080838360005b8381101561978557808201518184015260208101905061976a565b50505050905090810190601f1680156197b25780820380516001836020036101000a031916815260200191505b509250505060405180910390fd5b50809150505b9392505050565b6000808385019050848110158390619880576040517f08c379a00000000000000000000000000000000000000000000000000000000081526004018080602001828103825283818151815260200191508051906020019080838360005b8381101561984557808201518184015260208101905061982a565b50505050905090810190601f1680156198725780820380516001836020036101000a031916815260200191505b509250505060405180910390fd5b50809150509392505050565b600080600083850190508481106198aa5760008192509250506198b7565b6002600080905092509250505b9250929050565b60008060008414156198d9576000808090509150915061990a565b60008385029050838582816198ea57fe5b04146199015760026000809050925092505061990a565b60008192509250505b9250929050565b600080600083141561992d57600160008090509150915061993e565b600083858161993857fe5b04915091505b9250929050565b600080831182906199f1576040517f08c379a00000000000000000000000000000000000000000000000000000000081526004018080602001828103825283818151815260200191508051906020019080838360005b838110156199b657808201518184015260208101905061999b565b50505050905090810190601f1680156199e35780820380516001836020036101000a031916815260200191505b509250505060405180910390fd5b508284816199fb57fe5b0490509392505050565b6040518060200160405280600081525090565b815481835581811115619a3f57818360005260206000209182019101619a3e9190619ad5565b5b505050565b6040518060200160405280600081525090565b6040518060200160405280600081525090565b604051806101400160405280600081526020016000815260200160008152602001600081526020016000815260200160008152602001619aa8619a57565b8152602001619ab5619a57565b8152602001619ac2619a57565b8152602001619acf619a57565b81525090565b619af791905b80821115619af3576000816000905550600101619adb565b5090565b9056fe63616e6e6f742070617573652061206d61726b65742074686174206973206e6f74206c69737465646f6e6c792065787465726e616c6c79206f776e6564206163636f756e7473206d61792072656672657368207370656564736f6e6c7920706175736520677561726469616e20616e642061646d696e2063616e207061757365657869744d61726b65743a206765744163636f756e74536e617073686f74206661696c65646f6e6c7920756e6974726f6c6c65722061646d696e2063616e206368616e676520627261696e73a265627a7a72315820fb9b0441c2956829527ffb43215cfd2e882fbc998caec6185bf411d1ad7647f264736f6c63430005100032",
  "linkReferences": {},
  "deployedLinkReferences": {}
}