{
  "_format": "hh-sol-artifact-1",
  "contractName": "ComptrollerG2",
  "sourceName": "contracts/ComptrollerG2.sol",
  "abi": [
    {
      "inputs": [],
      "payable": false,
      "stateMutability": "nonpayable",
      "type": "constructor"
    },
    {
      "anonymous": false,
      "inputs": [
        {
          "indexed": false,
          "internalType": "string",
          "name": "action",
          "type": "string"
        },
        {
          "indexed": false,
          "internalType": "bool",
          "name": "pauseState",
          "type": "bool"
        }
      ],
      "name": "ActionPaused",
      "type": "event"
    },
    {
      "anonymous": false,
      "inputs": [
        {
          "indexed": false,
          "internalType": "contract CToken",
          "name": "cToken",
          "type": "address"
        },
        {
          "indexed": false,
          "internalType": "string",
          "name": "action",
          "type": "string"
        },
        {
          "indexed": false,
          "internalType": "bool",
          "name": "pauseState",
          "type": "bool"
        }
      ],
      "name": "ActionPaused",
      "type": "event"
    },
    {
      "anonymous": false,
      "inputs": [
        {
          "indexed": false,
          "internalType": "uint256",
          "name": "error",
          "type": "uint256"
        },
        {
          "indexed": false,
          "internalType": "uint256",
          "name": "info",
          "type": "uint256"
        },
        {
          "indexed": false,
          "internalType": "uint256",
          "name": "detail",
          "type": "uint256"
        }
      ],
      "name": "Failure",
      "type": "event"
    },
    {
      "anonymous": false,
      "inputs": [
        {
          "indexed": false,
          "internalType": "contract CToken",
          "name": "cToken",
          "type": "address"
        },
        {
          "indexed": false,
          "internalType": "address",
          "name": "account",
          "type": "address"
        }
      ],
      "name": "MarketEntered",
      "type": "event"
    },
    {
      "anonymous": false,
      "inputs": [
        {
          "indexed": false,
          "internalType": "contract CToken",
          "name": "cToken",
          "type": "address"
        },
        {
          "indexed": false,
          "internalType": "address",
          "name": "account",
          "type": "address"
        }
      ],
      "name": "MarketExited",
      "type": "event"
    },
    {
      "anonymous": false,
      "inputs": [
        {
          "indexed": false,
          "internalType": "contract CToken",
          "name": "cToken",
          "type": "address"
        }
      ],
      "name": "MarketListed",
      "type": "event"
    },
    {
      "anonymous": false,
      "inputs": [
        {
          "indexed": false,
          "internalType": "uint256",
          "name": "oldCloseFactorMantissa",
          "type": "uint256"
        },
        {
          "indexed": false,
          "internalType": "uint256",
          "name": "newCloseFactorMantissa",
          "type": "uint256"
        }
      ],
      "name": "NewCloseFactor",
      "type": "event"
    },
    {
      "anonymous": false,
      "inputs": [
        {
          "indexed": false,
          "internalType": "contract CToken",
          "name": "cToken",
          "type": "address"
        },
        {
          "indexed": false,
          "internalType": "uint256",
          "name": "oldCollateralFactorMantissa",
          "type": "uint256"
        },
        {
          "indexed": false,
          "internalType": "uint256",
          "name": "newCollateralFactorMantissa",
          "type": "uint256"
        }
      ],
      "name": "NewCollateralFactor",
      "type": "event"
    },
    {
      "anonymous": false,
      "inputs": [
        {
          "indexed": false,
          "internalType": "uint256",
          "name": "oldLiquidationIncentiveMantissa",
          "type": "uint256"
        },
        {
          "indexed": false,
          "internalType": "uint256",
          "name": "newLiquidationIncentiveMantissa",
          "type": "uint256"
        }
      ],
      "name": "NewLiquidationIncentive",
      "type": "event"
    },
    {
      "anonymous": false,
      "inputs": [
        {
          "indexed": false,
          "internalType": "uint256",
          "name": "oldMaxAssets",
          "type": "uint256"
        },
        {
          "indexed": false,
          "internalType": "uint256",
          "name": "newMaxAssets",
          "type": "uint256"
        }
      ],
      "name": "NewMaxAssets",
      "type": "event"
    },
    {
      "anonymous": false,
      "inputs": [
        {
          "indexed": false,
          "internalType": "address",
          "name": "oldPauseGuardian",
          "type": "address"
        },
        {
          "indexed": false,
          "internalType": "address",
          "name": "newPauseGuardian",
          "type": "address"
        }
      ],
      "name": "NewPauseGuardian",
      "type": "event"
    },
    {
      "anonymous": false,
      "inputs": [
        {
          "indexed": false,
          "internalType": "contract PriceOracle",
          "name": "oldPriceOracle",
          "type": "address"
        },
        {
          "indexed": false,
          "internalType": "contract PriceOracle",
          "name": "newPriceOracle",
          "type": "address"
        }
      ],
      "name": "NewPriceOracle",
      "type": "event"
    },
    {
      "constant": false,
      "inputs": [
        {
          "internalType": "contract Unitroller",
          "name": "unitroller",
          "type": "address"
        }
      ],
      "name": "_become",
      "outputs": [],
      "payable": false,
      "stateMutability": "nonpayable",
      "type": "function"
    },
    {
      "constant": true,
      "inputs": [],
      "name": "_borrowGuardianPaused",
      "outputs": [
        {
          "internalType": "bool",
          "name": "",
          "type": "bool"
        }
      ],
      "payable": false,
      "stateMutability": "view",
      "type": "function"
    },
    {
      "constant": true,
      "inputs": [],
      "name": "_mintGuardianPaused",
      "outputs": [
        {
          "internalType": "bool",
          "name": "",
          "type": "bool"
        }
      ],
      "payable": false,
      "stateMutability": "view",
      "type": "function"
    },
    {
      "constant": false,
      "inputs": [
        {
          "internalType": "contract CToken",
          "name": "cToken",
          "type": "address"
        },
        {
          "internalType": "bool",
          "name": "state",
          "type": "bool"
        }
      ],
      "name": "_setBorrowPaused",
      "outputs": [
        {
          "internalType": "bool",
          "name": "",
          "type": "bool"
        }
      ],
      "payable": false,
      "stateMutability": "nonpayable",
      "type": "function"
    },
    {
      "constant": false,
      "inputs": [
        {
          "internalType": "uint256",
          "name": "newCloseFactorMantissa",
          "type": "uint256"
        }
      ],
      "name": "_setCloseFactor",
      "outputs": [
        {
          "internalType": "uint256",
          "name": "",
          "type": "uint256"
        }
      ],
      "payable": false,
      "stateMutability": "nonpayable",
      "type": "function"
    },
    {
      "constant": false,
      "inputs": [
        {
          "internalType": "contract CToken",
          "name": "cToken",
          "type": "address"
        },
        {
          "internalType": "uint256",
          "name": "newCollateralFactorMantissa",
          "type": "uint256"
        }
      ],
      "name": "_setCollateralFactor",
      "outputs": [
        {
          "internalType": "uint256",
          "name": "",
          "type": "uint256"
        }
      ],
      "payable": false,
      "stateMutability": "nonpayable",
      "type": "function"
    },
    {
      "constant": false,
      "inputs": [
        {
          "internalType": "uint256",
          "name": "newLiquidationIncentiveMantissa",
          "type": "uint256"
        }
      ],
      "name": "_setLiquidationIncentive",
      "outputs": [
        {
          "internalType": "uint256",
          "name": "",
          "type": "uint256"
        }
      ],
      "payable": false,
      "stateMutability": "nonpayable",
      "type": "function"
    },
    {
      "constant": false,
      "inputs": [
        {
          "internalType": "uint256",
          "name": "newMaxAssets",
          "type": "uint256"
        }
      ],
      "name": "_setMaxAssets",
      "outputs": [
        {
          "internalType": "uint256",
          "name": "",
          "type": "uint256"
        }
      ],
      "payable": false,
      "stateMutability": "nonpayable",
      "type": "function"
    },
    {
      "constant": false,
      "inputs": [
        {
          "internalType": "contract CToken",
          "name": "cToken",
          "type": "address"
        },
        {
          "internalType": "bool",
          "name": "state",
          "type": "bool"
        }
      ],
      "name": "_setMintPaused",
      "outputs": [
        {
          "internalType": "bool",
          "name": "",
          "type": "bool"
        }
      ],
      "payable": false,
      "stateMutability": "nonpayable",
      "type": "function"
    },
    {
      "constant": false,
      "inputs": [
        {
          "internalType": "address",
          "name": "newPauseGuardian",
          "type": "address"
        }
      ],
      "name": "_setPauseGuardian",
      "outputs": [
        {
          "internalType": "uint256",
          "name": "",
          "type": "uint256"
        }
      ],
      "payable": false,
      "stateMutability": "nonpayable",
      "type": "function"
    },
    {
      "constant": false,
      "inputs": [
        {
          "internalType": "contract PriceOracle",
          "name": "newOracle",
          "type": "address"
        }
      ],
      "name": "_setPriceOracle",
      "outputs": [
        {
          "internalType": "uint256",
          "name": "",
          "type": "uint256"
        }
      ],
      "payable": false,
      "stateMutability": "nonpayable",
      "type": "function"
    },
    {
      "constant": false,
      "inputs": [
        {
          "internalType": "bool",
          "name": "state",
          "type": "bool"
        }
      ],
      "name": "_setSeizePaused",
      "outputs": [
        {
          "internalType": "bool",
          "name": "",
          "type": "bool"
        }
      ],
      "payable": false,
      "stateMutability": "nonpayable",
      "type": "function"
    },
    {
      "constant": false,
      "inputs": [
        {
          "internalType": "bool",
          "name": "state",
          "type": "bool"
        }
      ],
      "name": "_setTransferPaused",
      "outputs": [
        {
          "internalType": "bool",
          "name": "",
          "type": "bool"
        }
      ],
      "payable": false,
      "stateMutability": "nonpayable",
      "type": "function"
    },
    {
      "constant": false,
      "inputs": [
        {
          "internalType": "contract CToken",
          "name": "cToken",
          "type": "address"
        }
      ],
      "name": "_supportMarket",
      "outputs": [
        {
          "internalType": "uint256",
          "name": "",
          "type": "uint256"
        }
      ],
      "payable": false,
      "stateMutability": "nonpayable",
      "type": "function"
    },
    {
      "constant": true,
      "inputs": [
        {
          "internalType": "address",
          "name": "",
          "type": "address"
        },
        {
          "internalType": "uint256",
          "name": "",
          "type": "uint256"
        }
      ],
      "name": "accountAssets",
      "outputs": [
        {
          "internalType": "contract CToken",
          "name": "",
          "type": "address"
        }
      ],
      "payable": false,
      "stateMutability": "view",
      "type": "function"
    },
    {
      "constant": true,
      "inputs": [],
      "name": "admin",
      "outputs": [
        {
          "internalType": "address",
          "name": "",
          "type": "address"
        }
      ],
      "payable": false,
      "stateMutability": "view",
      "type": "function"
    },
    {
      "constant": false,
      "inputs": [
        {
          "internalType": "address",
          "name": "cToken",
          "type": "address"
        },
        {
          "internalType": "address",
          "name": "borrower",
          "type": "address"
        },
        {
          "internalType": "uint256",
          "name": "borrowAmount",
          "type": "uint256"
        }
      ],
      "name": "borrowAllowed",
      "outputs": [
        {
          "internalType": "uint256",
          "name": "",
          "type": "uint256"
        }
      ],
      "payable": false,
      "stateMutability": "nonpayable",
      "type": "function"
    },
    {
      "constant": true,
      "inputs": [
        {
          "internalType": "address",
          "name": "",
          "type": "address"
        }
      ],
      "name": "borrowGuardianPaused",
      "outputs": [
        {
          "internalType": "bool",
          "name": "",
          "type": "bool"
        }
      ],
      "payable": false,
      "stateMutability": "view",
      "type": "function"
    },
    {
      "constant": false,
      "inputs": [
        {
          "internalType": "address",
          "name": "cToken",
          "type": "address"
        },
        {
          "internalType": "address",
          "name": "borrower",
          "type": "address"
        },
        {
          "internalType": "uint256",
          "name": "borrowAmount",
          "type": "uint256"
        }
      ],
      "name": "borrowVerify",
      "outputs": [],
      "payable": false,
      "stateMutability": "nonpayable",
      "type": "function"
    },
    {
      "constant": true,
      "inputs": [
        {
          "internalType": "address",
          "name": "account",
          "type": "address"
        },
        {
          "internalType": "contract CToken",
          "name": "cToken",
          "type": "address"
        }
      ],
      "name": "checkMembership",
      "outputs": [
        {
          "internalType": "bool",
          "name": "",
          "type": "bool"
        }
      ],
      "payable": false,
      "stateMutability": "view",
      "type": "function"
    },
    {
      "constant": true,
      "inputs": [],
      "name": "closeFactorMantissa",
      "outputs": [
        {
          "internalType": "uint256",
          "name": "",
          "type": "uint256"
        }
      ],
      "payable": false,
      "stateMutability": "view",
      "type": "function"
    },
    {
      "constant": true,
      "inputs": [],
      "name": "comptrollerImplementation",
      "outputs": [
        {
          "internalType": "address",
          "name": "",
          "type": "address"
        }
      ],
      "payable": false,
      "stateMutability": "view",
      "type": "function"
    },
    {
      "constant": false,
      "inputs": [
        {
          "internalType": "address[]",
          "name": "cTokens",
          "type": "address[]"
        }
      ],
      "name": "enterMarkets",
      "outputs": [
        {
          "internalType": "uint256[]",
          "name": "",
          "type": "uint256[]"
        }
      ],
      "payable": false,
      "stateMutability": "nonpayable",
      "type": "function"
    },
    {
      "constant": false,
      "inputs": [
        {
          "internalType": "address",
          "name": "cTokenAddress",
          "type": "address"
        }
      ],
      "name": "exitMarket",
      "outputs": [
        {
          "internalType": "uint256",
          "name": "",
          "type": "uint256"
        }
      ],
      "payable": false,
      "stateMutability": "nonpayable",
      "type": "function"
    },
    {
      "constant": true,
      "inputs": [
        {
          "internalType": "address",
          "name": "account",
          "type": "address"
        }
      ],
      "name": "getAccountLiquidity",
      "outputs": [
        {
          "internalType": "uint256",
          "name": "",
          "type": "uint256"
        },
        {
          "internalType": "uint256",
          "name": "",
          "type": "uint256"
        },
        {
          "internalType": "uint256",
          "name": "",
          "type": "uint256"
        }
      ],
      "payable": false,
      "stateMutability": "view",
      "type": "function"
    },
    {
      "constant": true,
      "inputs": [
        {
          "internalType": "address",
          "name": "account",
          "type": "address"
        }
      ],
      "name": "getAssetsIn",
      "outputs": [
        {
          "internalType": "contract CToken[]",
          "name": "",
          "type": "address[]"
        }
      ],
      "payable": false,
      "stateMutability": "view",
      "type": "function"
    },
    {
      "constant": true,
      "inputs": [
        {
          "internalType": "address",
          "name": "account",
          "type": "address"
        },
        {
          "internalType": "address",
          "name": "cTokenModify",
          "type": "address"
        },
        {
          "internalType": "uint256",
          "name": "redeemTokens",
          "type": "uint256"
        },
        {
          "internalType": "uint256",
          "name": "borrowAmount",
          "type": "uint256"
        }
      ],
      "name": "getHypotheticalAccountLiquidity",
      "outputs": [
        {
          "internalType": "uint256",
          "name": "",
          "type": "uint256"
        },
        {
          "internalType": "uint256",
          "name": "",
          "type": "uint256"
        },
        {
          "internalType": "uint256",
          "name": "",
          "type": "uint256"
        }
      ],
      "payable": false,
      "stateMutability": "view",
      "type": "function"
    },
    {
      "constant": true,
      "inputs": [],
      "name": "isComptroller",
      "outputs": [
        {
          "internalType": "bool",
          "name": "",
          "type": "bool"
        }
      ],
      "payable": false,
      "stateMutability": "view",
      "type": "function"
    },
    {
      "constant": false,
      "inputs": [
        {
          "internalType": "address",
          "name": "cTokenBorrowed",
          "type": "address"
        },
        {
          "internalType": "address",
          "name": "cTokenCollateral",
          "type": "address"
        },
        {
          "internalType": "address",
          "name": "liquidator",
          "type": "address"
        },
        {
          "internalType": "address",
          "name": "borrower",
          "type": "address"
        },
        {
          "internalType": "uint256",
          "name": "repayAmount",
          "type": "uint256"
        }
      ],
      "name": "liquidateBorrowAllowed",
      "outputs": [
        {
          "internalType": "uint256",
          "name": "",
          "type": "uint256"
        }
      ],
      "payable": false,
      "stateMutability": "nonpayable",
      "type": "function"
    },
    {
      "constant": false,
      "inputs": [
        {
          "internalType": "address",
          "name": "cTokenBorrowed",
          "type": "address"
        },
        {
          "internalType": "address",
          "name": "cTokenCollateral",
          "type": "address"
        },
        {
          "internalType": "address",
          "name": "liquidator",
          "type": "address"
        },
        {
          "internalType": "address",
          "name": "borrower",
          "type": "address"
        },
        {
          "internalType": "uint256",
          "name": "actualRepayAmount",
          "type": "uint256"
        },
        {
          "internalType": "uint256",
          "name": "seizeTokens",
          "type": "uint256"
        }
      ],
      "name": "liquidateBorrowVerify",
      "outputs": [],
      "payable": false,
      "stateMutability": "nonpayable",
      "type": "function"
    },
    {
      "constant": true,
      "inputs": [
        {
          "internalType": "address",
          "name": "cTokenBorrowed",
          "type": "address"
        },
        {
          "internalType": "address",
          "name": "cTokenCollateral",
          "type": "address"
        },
        {
          "internalType": "uint256",
          "name": "actualRepayAmount",
          "type": "uint256"
        }
      ],
      "name": "liquidateCalculateSeizeTokens",
      "outputs": [
        {
          "internalType": "uint256",
          "name": "",
          "type": "uint256"
        },
        {
          "internalType": "uint256",
          "name": "",
          "type": "uint256"
        }
      ],
      "payable": false,
      "stateMutability": "view",
      "type": "function"
    },
    {
      "constant": true,
      "inputs": [],
      "name": "liquidationIncentiveMantissa",
      "outputs": [
        {
          "internalType": "uint256",
          "name": "",
          "type": "uint256"
        }
      ],
      "payable": false,
      "stateMutability": "view",
      "type": "function"
    },
    {
      "constant": true,
      "inputs": [
        {
          "internalType": "address",
          "name": "",
          "type": "address"
        }
      ],
      "name": "markets",
      "outputs": [
        {
          "internalType": "bool",
          "name": "isListed",
          "type": "bool"
        },
        {
          "internalType": "uint256",
          "name": "collateralFactorMantissa",
          "type": "uint256"
        },
        {
          "internalType": "bool",
          "name": "isComped",
          "type": "bool"
        }
      ],
      "payable": false,
      "stateMutability": "view",
      "type": "function"
    },
    {
      "constant": true,
      "inputs": [],
      "name": "maxAssets",
      "outputs": [
        {
          "internalType": "uint256",
          "name": "",
          "type": "uint256"
        }
      ],
      "payable": false,
      "stateMutability": "view",
      "type": "function"
    },
    {
      "constant": false,
      "inputs": [
        {
          "internalType": "address",
          "name": "cToken",
          "type": "address"
        },
        {
          "internalType": "address",
          "name": "minter",
          "type": "address"
        },
        {
          "internalType": "uint256",
          "name": "mintAmount",
          "type": "uint256"
        }
      ],
      "name": "mintAllowed",
      "outputs": [
        {
          "internalType": "uint256",
          "name": "",
          "type": "uint256"
        }
      ],
      "payable": false,
      "stateMutability": "nonpayable",
      "type": "function"
    },
    {
      "constant": true,
      "inputs": [
        {
          "internalType": "address",
          "name": "",
          "type": "address"
        }
      ],
      "name": "mintGuardianPaused",
      "outputs": [
        {
          "internalType": "bool",
          "name": "",
          "type": "bool"
        }
      ],
      "payable": false,
      "stateMutability": "view",
      "type": "function"
    },
    {
      "constant": false,
      "inputs": [
        {
          "internalType": "address",
          "name": "cToken",
          "type": "address"
        },
        {
          "internalType": "address",
          "name": "minter",
          "type": "address"
        },
        {
          "internalType": "uint256",
          "name": "actualMintAmount",
          "type": "uint256"
        },
        {
          "internalType": "uint256",
          "name": "mintTokens",
          "type": "uint256"
        }
      ],
      "name": "mintVerify",
      "outputs": [],
      "payable": false,
      "stateMutability": "nonpayable",
      "type": "function"
    },
    {
      "constant": true,
      "inputs": [],
      "name": "oracle",
      "outputs": [
        {
          "internalType": "contract PriceOracle",
          "name": "",
          "type": "address"
        }
      ],
      "payable": false,
      "stateMutability": "view",
      "type": "function"
    },
    {
      "constant": true,
      "inputs": [],
      "name": "pauseGuardian",
      "outputs": [
        {
          "internalType": "address",
          "name": "",
          "type": "address"
        }
      ],
      "payable": false,
      "stateMutability": "view",
      "type": "function"
    },
    {
      "constant": true,
      "inputs": [],
      "name": "pendingAdmin",
      "outputs": [
        {
          "internalType": "address",
          "name": "",
          "type": "address"
        }
      ],
      "payable": false,
      "stateMutability": "view",
      "type": "function"
    },
    {
      "constant": true,
      "inputs": [],
      "name": "pendingComptrollerImplementation",
      "outputs": [
        {
          "internalType": "address",
          "name": "",
          "type": "address"
        }
      ],
      "payable": false,
      "stateMutability": "view",
      "type": "function"
    },
    {
      "constant": false,
      "inputs": [
        {
          "internalType": "address",
          "name": "cToken",
          "type": "address"
        },
        {
          "internalType": "address",
          "name": "redeemer",
          "type": "address"
        },
        {
          "internalType": "uint256",
          "name": "redeemTokens",
          "type": "uint256"
        }
      ],
      "name": "redeemAllowed",
      "outputs": [
        {
          "internalType": "uint256",
          "name": "",
          "type": "uint256"
        }
      ],
      "payable": false,
      "stateMutability": "nonpayable",
      "type": "function"
    },
    {
      "constant": false,
      "inputs": [
        {
          "internalType": "address",
          "name": "cToken",
          "type": "address"
        },
        {
          "internalType": "address",
          "name": "redeemer",
          "type": "address"
        },
        {
          "internalType": "uint256",
          "name": "redeemAmount",
          "type": "uint256"
        },
        {
          "internalType": "uint256",
          "name": "redeemTokens",
          "type": "uint256"
        }
      ],
      "name": "redeemVerify",
      "outputs": [],
      "payable": false,
      "stateMutability": "nonpayable",
      "type": "function"
    },
    {
      "constant": false,
      "inputs": [
        {
          "internalType": "address",
          "name": "cToken",
          "type": "address"
        },
        {
          "internalType": "address",
          "name": "payer",
          "type": "address"
        },
        {
          "internalType": "address",
          "name": "borrower",
          "type": "address"
        },
        {
          "internalType": "uint256",
          "name": "repayAmount",
          "type": "uint256"
        }
      ],
      "name": "repayBorrowAllowed",
      "outputs": [
        {
          "internalType": "uint256",
          "name": "",
          "type": "uint256"
        }
      ],
      "payable": false,
      "stateMutability": "nonpayable",
      "type": "function"
    },
    {
      "constant": false,
      "inputs": [
        {
          "internalType": "address",
          "name": "cToken",
          "type": "address"
        },
        {
          "internalType": "address",
          "name": "payer",
          "type": "address"
        },
        {
          "internalType": "address",
          "name": "borrower",
          "type": "address"
        },
        {
          "internalType": "uint256",
          "name": "actualRepayAmount",
          "type": "uint256"
        },
        {
          "internalType": "uint256",
          "name": "borrowerIndex",
          "type": "uint256"
        }
      ],
      "name": "repayBorrowVerify",
      "outputs": [],
      "payable": false,
      "stateMutability": "nonpayable",
      "type": "function"
    },
    {
      "constant": false,
      "inputs": [
        {
          "internalType": "address",
          "name": "cTokenCollateral",
          "type": "address"
        },
        {
          "internalType": "address",
          "name": "cTokenBorrowed",
          "type": "address"
        },
        {
          "internalType": "address",
          "name": "liquidator",
          "type": "address"
        },
        {
          "internalType": "address",
          "name": "borrower",
          "type": "address"
        },
        {
          "internalType": "uint256",
          "name": "seizeTokens",
          "type": "uint256"
        }
      ],
      "name": "seizeAllowed",
      "outputs": [
        {
          "internalType": "uint256",
          "name": "",
          "type": "uint256"
        }
      ],
      "payable": false,
      "stateMutability": "nonpayable",
      "type": "function"
    },
    {
      "constant": true,
      "inputs": [],
      "name": "seizeGuardianPaused",
      "outputs": [
        {
          "internalType": "bool",
          "name": "",
          "type": "bool"
        }
      ],
      "payable": false,
      "stateMutability": "view",
      "type": "function"
    },
    {
      "constant": false,
      "inputs": [
        {
          "internalType": "address",
          "name": "cTokenCollateral",
          "type": "address"
        },
        {
          "internalType": "address",
          "name": "cTokenBorrowed",
          "type": "address"
        },
        {
          "internalType": "address",
          "name": "liquidator",
          "type": "address"
        },
        {
          "internalType": "address",
          "name": "borrower",
          "type": "address"
        },
        {
          "internalType": "uint256",
          "name": "seizeTokens",
          "type": "uint256"
        }
      ],
      "name": "seizeVerify",
      "outputs": [],
      "payable": false,
      "stateMutability": "nonpayable",
      "type": "function"
    },
    {
      "constant": false,
      "inputs": [
        {
          "internalType": "address",
          "name": "cToken",
          "type": "address"
        },
        {
          "internalType": "address",
          "name": "src",
          "type": "address"
        },
        {
          "internalType": "address",
          "name": "dst",
          "type": "address"
        },
        {
          "internalType": "uint256",
          "name": "transferTokens",
          "type": "uint256"
        }
      ],
      "name": "transferAllowed",
      "outputs": [
        {
          "internalType": "uint256",
          "name": "",
          "type": "uint256"
        }
      ],
      "payable": false,
      "stateMutability": "nonpayable",
      "type": "function"
    },
    {
      "constant": true,
      "inputs": [],
      "name": "transferGuardianPaused",
      "outputs": [
        {
          "internalType": "bool",
          "name": "",
          "type": "bool"
        }
      ],
      "payable": false,
      "stateMutability": "view",
      "type": "function"
    },
    {
      "constant": false,
      "inputs": [
        {
          "internalType": "address",
          "name": "cToken",
          "type": "address"
        },
        {
          "internalType": "address",
          "name": "src",
          "type": "address"
        },
        {
          "internalType": "address",
          "name": "dst",
          "type": "address"
        },
        {
          "internalType": "uint256",
          "name": "transferTokens",
          "type": "uint256"
        }
      ],
      "name": "transferVerify",
      "outputs": [],
      "payable": false,
      "stateMutability": "nonpayable",
      "type": "function"
    }
  ],
  "bytecode": "0x608060405234801561001057600080fd5b50336000806101000a81548173ffffffffffffffffffffffffffffffffffffffff021916908373ffffffffffffffffffffffffffffffffffffffff160217905550615f0380620000616000396000f3fe608060405234801561001057600080fd5b50600436106102f05760003560e01c80636d35bf911161019d578063c2998238116100e9578063dcfbc0c7116100a2578063e87554461161007c578063e875544614611636578063eabe7d9114611654578063ede4edd0146116d6578063f851a4401461172e576102f0565b8063dcfbc0c714611568578063e4028eee146115b2578063e6653f3d14611614576102f0565b8063c2998238146111be578063c488847b146112cb578063d02f735114611354578063d9226ced14611416578063da3d454c14611458578063dce15449146114da576102f0565b8063929fe9a111610156578063abfceffc11610130578063abfceffc14611017578063ac0b0bb7146110b0578063bb82aa5e146110d2578063bdcdc2581461111c576102f0565b8063929fe9a114610f2557806394b2294b14610fa1578063a76b3fda14610fbf576102f0565b80636d35bf9114610cf9578063731f0c2b14610da75780637dc0d1d014610e0357806387f7630314610e4d5780638e8f294b14610e6f5780638ebf636414610edd576102f0565b806347ef3b3b1161025c57806355ee1fe1116102155780635f5af1aa116101ef5780635f5af1aa14610af55780635fc7e71e14610b4d5780636a56947e14610c0f5780636d154ea514610c9d576102f0565b806355ee1fe1146109c95780635c77860514610a215780635ec88c7914610a8f576102f0565b806347ef3b3b1461071d5780634ada90af146107d55780634e79238f146107f35780634ef4c3e11461088d5780634fd42e171461090f57806351dff98914610951576102f0565b806326782247116102ae57806326782247146105475780632d70db7814610591578063317b0b77146105d95780633bcf7ec11461061b5780633c94786f1461068357806341c728b9146106a5576102f0565b80627e3dd2146102f557806318c882a5146103175780631d504dc61461037f5780631ededc91146103c357806324008a621461045b57806324a3d622146104fd575b600080fd5b6102fd611778565b604051808215151515815260200191505060405180910390f35b6103656004803603604081101561032d57600080fd5b81019080803573ffffffffffffffffffffffffffffffffffffffff16906020019092919080351515906020019092919050505061177d565b604051808215151515815260200191505060405180910390f35b6103c16004803603602081101561039557600080fd5b81019080803573ffffffffffffffffffffffffffffffffffffffff169060200190929190505050611afa565b005b610459600480360360a08110156103d957600080fd5b81019080803573ffffffffffffffffffffffffffffffffffffffff169060200190929190803573ffffffffffffffffffffffffffffffffffffffff169060200190929190803573ffffffffffffffffffffffffffffffffffffffff1690602001909291908035906020019092919080359060200190929190505050611cff565b005b6104e76004803603608081101561047157600080fd5b81019080803573ffffffffffffffffffffffffffffffffffffffff169060200190929190803573ffffffffffffffffffffffffffffffffffffffff169060200190929190803573ffffffffffffffffffffffffffffffffffffffff16906020019092919080359060200190929190505050611d17565b6040518082815260200191505060405180910390f35b610505611d99565b604051808273ffffffffffffffffffffffffffffffffffffffff1673ffffffffffffffffffffffffffffffffffffffff16815260200191505060405180910390f35b61054f611dbf565b604051808273ffffffffffffffffffffffffffffffffffffffff1673ffffffffffffffffffffffffffffffffffffffff16815260200191505060405180910390f35b6105bf600480360360208110156105a757600080fd5b81019080803515159060200190929190505050611de5565b604051808215151515815260200191505060405180910390f35b610605600480360360208110156105ef57600080fd5b810190808035906020019092919050505061204b565b6040518082815260200191505060405180910390f35b6106696004803603604081101561063157600080fd5b81019080803573ffffffffffffffffffffffffffffffffffffffff1690602001909291908035151590602001909291905050506121bd565b604051808215151515815260200191505060405180910390f35b61068b61253a565b604051808215151515815260200191505060405180910390f35b61071b600480360360808110156106bb57600080fd5b81019080803573ffffffffffffffffffffffffffffffffffffffff169060200190929190803573ffffffffffffffffffffffffffffffffffffffff169060200190929190803590602001909291908035906020019092919050505061254d565b005b6107d3600480360360c081101561073357600080fd5b81019080803573ffffffffffffffffffffffffffffffffffffffff169060200190929190803573ffffffffffffffffffffffffffffffffffffffff169060200190929190803573ffffffffffffffffffffffffffffffffffffffff169060200190929190803573ffffffffffffffffffffffffffffffffffffffff1690602001909291908035906020019092919080359060200190929190505050612564565b005b6107dd61257d565b6040518082815260200191505060405180910390f35b6108696004803603608081101561080957600080fd5b81019080803573ffffffffffffffffffffffffffffffffffffffff169060200190929190803573ffffffffffffffffffffffffffffffffffffffff1690602001909291908035906020019092919080359060200190929190505050612583565b60405180848152602001838152602001828152602001935050505060405180910390f35b6108f9600480360360608110156108a357600080fd5b81019080803573ffffffffffffffffffffffffffffffffffffffff169060200190929190803573ffffffffffffffffffffffffffffffffffffffff169060200190929190803590602001909291905050506125bf565b6040518082815260200191505060405180910390f35b61093b6004803603602081101561092557600080fd5b8101908080359060200190929190505050612700565b6040518082815260200191505060405180910390f35b6109c76004803603608081101561096757600080fd5b81019080803573ffffffffffffffffffffffffffffffffffffffff169060200190929190803573ffffffffffffffffffffffffffffffffffffffff1690602001909291908035906020019092919080359060200190929190505050612873565b005b610a0b600480360360208110156109df57600080fd5b81019080803573ffffffffffffffffffffffffffffffffffffffff1690602001909291905050506128fc565b6040518082815260200191505060405180910390f35b610a8d60048036036060811015610a3757600080fd5b81019080803573ffffffffffffffffffffffffffffffffffffffff169060200190929190803573ffffffffffffffffffffffffffffffffffffffff16906020019092919080359060200190929190505050612a7a565b005b610ad160048036036020811015610aa557600080fd5b81019080803573ffffffffffffffffffffffffffffffffffffffff169060200190929190505050612a90565b60405180848152602001838152602001828152602001935050505060405180910390f35b610b3760048036036020811015610b0b57600080fd5b81019080803573ffffffffffffffffffffffffffffffffffffffff169060200190929190505050612acb565b6040518082815260200191505060405180910390f35b610bf9600480360360a0811015610b6357600080fd5b81019080803573ffffffffffffffffffffffffffffffffffffffff169060200190929190803573ffffffffffffffffffffffffffffffffffffffff169060200190929190803573ffffffffffffffffffffffffffffffffffffffff169060200190929190803573ffffffffffffffffffffffffffffffffffffffff16906020019092919080359060200190929190505050612c6b565b6040518082815260200191505060405180910390f35b610c9b60048036036080811015610c2557600080fd5b81019080803573ffffffffffffffffffffffffffffffffffffffff169060200190929190803573ffffffffffffffffffffffffffffffffffffffff169060200190929190803573ffffffffffffffffffffffffffffffffffffffff16906020019092919080359060200190929190505050612ee4565b005b610cdf60048036036020811015610cb357600080fd5b81019080803573ffffffffffffffffffffffffffffffffffffffff169060200190929190505050612efb565b604051808215151515815260200191505060405180910390f35b610da5600480360360a0811015610d0f57600080fd5b81019080803573ffffffffffffffffffffffffffffffffffffffff169060200190929190803573ffffffffffffffffffffffffffffffffffffffff169060200190929190803573ffffffffffffffffffffffffffffffffffffffff169060200190929190803573ffffffffffffffffffffffffffffffffffffffff16906020019092919080359060200190929190505050612f1b565b005b610de960048036036020811015610dbd57600080fd5b81019080803573ffffffffffffffffffffffffffffffffffffffff169060200190929190505050612f33565b604051808215151515815260200191505060405180910390f35b610e0b612f53565b604051808273ffffffffffffffffffffffffffffffffffffffff1673ffffffffffffffffffffffffffffffffffffffff16815260200191505060405180910390f35b610e55612f79565b604051808215151515815260200191505060405180910390f35b610eb160048036036020811015610e8557600080fd5b81019080803573ffffffffffffffffffffffffffffffffffffffff169060200190929190505050612f8c565b604051808415151515815260200183815260200182151515158152602001935050505060405180910390f35b610f0b60048036036020811015610ef357600080fd5b81019080803515159060200190929190505050612fd0565b604051808215151515815260200191505060405180910390f35b610f8760048036036040811015610f3b57600080fd5b81019080803573ffffffffffffffffffffffffffffffffffffffff169060200190929190803573ffffffffffffffffffffffffffffffffffffffff169060200190929190505050613236565b604051808215151515815260200191505060405180910390f35b610fa96132cd565b6040518082815260200191505060405180910390f35b61100160048036036020811015610fd557600080fd5b81019080803573ffffffffffffffffffffffffffffffffffffffff1690602001909291905050506132d3565b6040518082815260200191505060405180910390f35b6110596004803603602081101561102d57600080fd5b81019080803573ffffffffffffffffffffffffffffffffffffffff16906020019092919050505061354c565b6040518080602001828103825283818151815260200191508051906020019060200280838360005b8381101561109c578082015181840152602081019050611081565b505050509050019250505060405180910390f35b6110b861361e565b604051808215151515815260200191505060405180910390f35b6110da613631565b604051808273ffffffffffffffffffffffffffffffffffffffff1673ffffffffffffffffffffffffffffffffffffffff16815260200191505060405180910390f35b6111a86004803603608081101561113257600080fd5b81019080803573ffffffffffffffffffffffffffffffffffffffff169060200190929190803573ffffffffffffffffffffffffffffffffffffffff169060200190929190803573ffffffffffffffffffffffffffffffffffffffff16906020019092919080359060200190929190505050613657565b6040518082815260200191505060405180910390f35b611274600480360360208110156111d457600080fd5b81019080803590602001906401000000008111156111f157600080fd5b82018360208201111561120357600080fd5b8035906020019184602083028401116401000000008311171561122557600080fd5b919080806020026020016040519081016040528093929190818152602001838360200280828437600081840152601f19601f8201169050808301925050505050505091929192905050506136f1565b6040518080602001828103825283818151815260200191508051906020019060200280838360005b838110156112b757808201518184015260208101905061129c565b505050509050019250505060405180910390f35b611337600480360360608110156112e157600080fd5b81019080803573ffffffffffffffffffffffffffffffffffffffff169060200190929190803573ffffffffffffffffffffffffffffffffffffffff16906020019092919080359060200190929190505050613799565b604051808381526020018281526020019250505060405180910390f35b611400600480360360a081101561136a57600080fd5b81019080803573ffffffffffffffffffffffffffffffffffffffff169060200190929190803573ffffffffffffffffffffffffffffffffffffffff169060200190929190803573ffffffffffffffffffffffffffffffffffffffff169060200190929190803573ffffffffffffffffffffffffffffffffffffffff16906020019092919080359060200190929190505050613b9b565b6040518082815260200191505060405180910390f35b6114426004803603602081101561142c57600080fd5b8101908080359060200190929190505050613e42565b6040518082815260200191505060405180910390f35b6114c46004803603606081101561146e57600080fd5b81019080803573ffffffffffffffffffffffffffffffffffffffff169060200190929190803573ffffffffffffffffffffffffffffffffffffffff16906020019092919080359060200190929190505050613f0e565b6040518082815260200191505060405180910390f35b611526600480360360408110156114f057600080fd5b81019080803573ffffffffffffffffffffffffffffffffffffffff169060200190929190803590602001909291905050506143b5565b604051808273ffffffffffffffffffffffffffffffffffffffff1673ffffffffffffffffffffffffffffffffffffffff16815260200191505060405180910390f35b611570614400565b604051808273ffffffffffffffffffffffffffffffffffffffff1673ffffffffffffffffffffffffffffffffffffffff16815260200191505060405180910390f35b6115fe600480360360408110156115c857600080fd5b81019080803573ffffffffffffffffffffffffffffffffffffffff16906020019092919080359060200190929190505050614426565b6040518082815260200191505060405180910390f35b61161c6146ff565b604051808215151515815260200191505060405180910390f35b61163e614712565b6040518082815260200191505060405180910390f35b6116c06004803603606081101561166a57600080fd5b81019080803573ffffffffffffffffffffffffffffffffffffffff169060200190929190803573ffffffffffffffffffffffffffffffffffffffff16906020019092919080359060200190929190505050614718565b6040518082815260200191505060405180910390f35b611718600480360360208110156116ec57600080fd5b81019080803573ffffffffffffffffffffffffffffffffffffffff16906020019092919050505061472e565b6040518082815260200191505060405180910390f35b611736614ca6565b604051808273ffffffffffffffffffffffffffffffffffffffff1673ffffffffffffffffffffffffffffffffffffffff16815260200191505060405180910390f35b600181565b6000600960008473ffffffffffffffffffffffffffffffffffffffff1673ffffffffffffffffffffffffffffffffffffffff16815260200190815260200160002060000160009054906101000a900460ff16611824576040517f08c379a0000000000000000000000000000000000000000000000000000000008152600401808060200182810382526028815260200180615e346028913960400191505060405180910390fd5b600a60009054906101000a900473ffffffffffffffffffffffffffffffffffffffff1673ffffffffffffffffffffffffffffffffffffffff163373ffffffffffffffffffffffffffffffffffffffff1614806118cc57506000809054906101000a900473ffffffffffffffffffffffffffffffffffffffff1673ffffffffffffffffffffffffffffffffffffffff163373ffffffffffffffffffffffffffffffffffffffff16145b611921576040517f08c379a0000000000000000000000000000000000000000000000000000000008152600401808060200182810382526027815260200180615e5c6027913960400191505060405180910390fd5b6000809054906101000a900473ffffffffffffffffffffffffffffffffffffffff1673ffffffffffffffffffffffffffffffffffffffff163373ffffffffffffffffffffffffffffffffffffffff161480611980575060011515821515145b6119f2576040517f08c379a00000000000000000000000000000000000000000000000000000000081526004018080602001828103825260168152602001807f6f6e6c792061646d696e2063616e20756e70617573650000000000000000000081525060200191505060405180910390fd5b81600c60008573ffffffffffffffffffffffffffffffffffffffff1673ffffffffffffffffffffffffffffffffffffffff16815260200190815260200160002060006101000a81548160ff0219169083151502179055507f71aec636243f9709bb0007ae15e9afb8150ab01716d75fd7573be5cc096e03b08383604051808373ffffffffffffffffffffffffffffffffffffffff1673ffffffffffffffffffffffffffffffffffffffff1681526020018060200183151515158152602001828103825260068152602001807f426f72726f770000000000000000000000000000000000000000000000000000815250602001935050505060405180910390a181905092915050565b8073ffffffffffffffffffffffffffffffffffffffff1663f851a4406040518163ffffffff1660e01b815260040160206040518083038186803b158015611b4057600080fd5b505afa158015611b54573d6000803e3d6000fd5b505050506040513d6020811015611b6a57600080fd5b810190808051906020019092919050505073ffffffffffffffffffffffffffffffffffffffff163373ffffffffffffffffffffffffffffffffffffffff1614611bfe576040517f08c379a0000000000000000000000000000000000000000000000000000000008152600401808060200182810382526027815260200180615ea86027913960400191505060405180910390fd5b60008173ffffffffffffffffffffffffffffffffffffffff1663c1e803346040518163ffffffff1660e01b8152600401602060405180830381600087803b158015611c4857600080fd5b505af1158015611c5c573d6000803e3d6000fd5b505050506040513d6020811015611c7257600080fd5b8101908080519060200190929190505050905060008114611cfb576040517f08c379a00000000000000000000000000000000000000000000000000000000081526004018080602001828103825260158152602001807f6368616e6765206e6f7420617574686f72697a6564000000000000000000000081525060200191505060405180910390fd5b5050565b600015611d10576007546007819055505b5050505050565b6000600960008673ffffffffffffffffffffffffffffffffffffffff1673ffffffffffffffffffffffffffffffffffffffff16815260200190815260200160002060000160009054906101000a900460ff16611d815760096011811115611d7a57fe5b9050611d91565b60006011811115611d8e57fe5b90505b949350505050565b600a60009054906101000a900473ffffffffffffffffffffffffffffffffffffffff1681565b600160009054906101000a900473ffffffffffffffffffffffffffffffffffffffff1681565b6000600a60009054906101000a900473ffffffffffffffffffffffffffffffffffffffff1673ffffffffffffffffffffffffffffffffffffffff163373ffffffffffffffffffffffffffffffffffffffff161480611e8f57506000809054906101000a900473ffffffffffffffffffffffffffffffffffffffff1673ffffffffffffffffffffffffffffffffffffffff163373ffffffffffffffffffffffffffffffffffffffff16145b611ee4576040517f08c379a0000000000000000000000000000000000000000000000000000000008152600401808060200182810382526027815260200180615e5c6027913960400191505060405180910390fd5b6000809054906101000a900473ffffffffffffffffffffffffffffffffffffffff1673ffffffffffffffffffffffffffffffffffffffff163373ffffffffffffffffffffffffffffffffffffffff161480611f43575060011515821515145b611fb5576040517f08c379a00000000000000000000000000000000000000000000000000000000081526004018080602001828103825260168152602001807f6f6e6c792061646d696e2063616e20756e70617573650000000000000000000081525060200191505060405180910390fd5b81600a60176101000a81548160ff0219169083151502179055507fef159d9a32b2472e32b098f954f3ce62d232939f1c207070b584df1814de2de082604051808060200183151515158152602001828103825260058152602001807f5365697a650000000000000000000000000000000000000000000000000000008152506020019250505060405180910390a1819050919050565b60008060009054906101000a900473ffffffffffffffffffffffffffffffffffffffff1673ffffffffffffffffffffffffffffffffffffffff163373ffffffffffffffffffffffffffffffffffffffff16146120b4576120ad60016004614ccb565b90506121b8565b6120bc615d51565b60405180602001604052808481525090506120d5615d51565b604051806020016040528066b1a2bc2ec5000081525090506120f78282614d3f565b1561211057612107600580614ccb565b925050506121b8565b612118615d51565b6040518060200160405280670c7d713b49da0000815250905061213b8184614d55565b156121555761214b600580614ccb565b93505050506121b8565b60006005549050856005819055507f3b9670cf975d26958e754b57098eaa2ac914d8d2a31b83257997b9f346110fd981600554604051808381526020018281526020019250505060405180910390a1600060118111156121b157fe5b9450505050505b919050565b6000600960008473ffffffffffffffffffffffffffffffffffffffff1673ffffffffffffffffffffffffffffffffffffffff16815260200190815260200160002060000160009054906101000a900460ff16612264576040517f08c379a0000000000000000000000000000000000000000000000000000000008152600401808060200182810382526028815260200180615e346028913960400191505060405180910390fd5b600a60009054906101000a900473ffffffffffffffffffffffffffffffffffffffff1673ffffffffffffffffffffffffffffffffffffffff163373ffffffffffffffffffffffffffffffffffffffff16148061230c57506000809054906101000a900473ffffffffffffffffffffffffffffffffffffffff1673ffffffffffffffffffffffffffffffffffffffff163373ffffffffffffffffffffffffffffffffffffffff16145b612361576040517f08c379a0000000000000000000000000000000000000000000000000000000008152600401808060200182810382526027815260200180615e5c6027913960400191505060405180910390fd5b6000809054906101000a900473ffffffffffffffffffffffffffffffffffffffff1673ffffffffffffffffffffffffffffffffffffffff163373ffffffffffffffffffffffffffffffffffffffff1614806123c0575060011515821515145b612432576040517f08c379a00000000000000000000000000000000000000000000000000000000081526004018080602001828103825260168152602001807f6f6e6c792061646d696e2063616e20756e70617573650000000000000000000081525060200191505060405180910390fd5b81600b60008573ffffffffffffffffffffffffffffffffffffffff1673ffffffffffffffffffffffffffffffffffffffff16815260200190815260200160002060006101000a81548160ff0219169083151502179055507f71aec636243f9709bb0007ae15e9afb8150ab01716d75fd7573be5cc096e03b08383604051808373ffffffffffffffffffffffffffffffffffffffff1673ffffffffffffffffffffffffffffffffffffffff1681526020018060200183151515158152602001828103825260048152602001807f4d696e7400000000000000000000000000000000000000000000000000000000815250602001935050505060405180910390a181905092915050565b600a60149054906101000a900460ff1681565b60001561255e576007546007819055505b50505050565b600015612575576007546007819055505b505050505050565b60065481565b6000806000806000806125988a8a8a8a614d6a565b9250925092508260118111156125aa57fe5b82829550955095505050509450945094915050565b6000600b60008573ffffffffffffffffffffffffffffffffffffffff1673ffffffffffffffffffffffffffffffffffffffff16815260200190815260200160002060009054906101000a900460ff1615612681576040517f08c379a000000000000000000000000000000000000000000000000000000000815260040180806020018281038252600e8152602001807f6d696e742069732070617573656400000000000000000000000000000000000081525060200191505060405180910390fd5b600960008573ffffffffffffffffffffffffffffffffffffffff1673ffffffffffffffffffffffffffffffffffffffff16815260200190815260200160002060000160009054906101000a900460ff166126e957600960118111156126e257fe5b90506126f9565b600060118111156126f657fe5b90505b9392505050565b60008060009054906101000a900473ffffffffffffffffffffffffffffffffffffffff1673ffffffffffffffffffffffffffffffffffffffff163373ffffffffffffffffffffffffffffffffffffffff1614612769576127626001600b614ccb565b905061286e565b612771615d51565b604051806020016040528084815250905061278a615d51565b6040518060200160405280670de0b6b3a764000081525090506127ad8282614d55565b156127c7576127be6007600c614ccb565b9250505061286e565b6127cf615d51565b60405180602001604052806714d1120d7b16000081525090506127f28184614d55565b1561280d576128036007600c614ccb565b935050505061286e565b60006006549050856006819055507faeba5a6c40a8ac138134bff1aaa65debf25971188a58804bad717f82f0ec13168187604051808381526020018281526020019250505060405180910390a16000601181111561286757fe5b9450505050505b919050565b6000811480156128835750600082115b156128f6576040517f08c379a00000000000000000000000000000000000000000000000000000000081526004018080602001828103825260118152602001807f72656465656d546f6b656e73207a65726f00000000000000000000000000000081525060200191505060405180910390fd5b50505050565b60008060009054906101000a900473ffffffffffffffffffffffffffffffffffffffff1673ffffffffffffffffffffffffffffffffffffffff163373ffffffffffffffffffffffffffffffffffffffff16146129655761295e60016010614ccb565b9050612a75565b6000600460009054906101000a900473ffffffffffffffffffffffffffffffffffffffff16905082600460006101000a81548173ffffffffffffffffffffffffffffffffffffffff021916908373ffffffffffffffffffffffffffffffffffffffff1602179055507fd52b2b9b7e9ee655fcb95d2e5b9e0c9f69e7ef2b8e9d2d0ea78402d576d22e228184604051808373ffffffffffffffffffffffffffffffffffffffff1673ffffffffffffffffffffffffffffffffffffffff1681526020018273ffffffffffffffffffffffffffffffffffffffff1673ffffffffffffffffffffffffffffffffffffffff1681526020019250505060405180910390a160006011811115612a7157fe5b9150505b919050565b600015612a8b576007546007819055505b505050565b600080600080600080612aa7876000806000614d6a565b925092509250826011811115612ab957fe5b82829550955095505050509193909250565b60008060009054906101000a900473ffffffffffffffffffffffffffffffffffffffff1673ffffffffffffffffffffffffffffffffffffffff163373ffffffffffffffffffffffffffffffffffffffff1614612b3457612b2d60016013614ccb565b9050612c66565b6000600a60009054906101000a900473ffffffffffffffffffffffffffffffffffffffff16905082600a60006101000a81548173ffffffffffffffffffffffffffffffffffffffff021916908373ffffffffffffffffffffffffffffffffffffffff1602179055507f0613b6ee6a04f0d09f390e4d9318894b9f6ac7fd83897cd8d18896ba579c401e81600a60009054906101000a900473ffffffffffffffffffffffffffffffffffffffff16604051808373ffffffffffffffffffffffffffffffffffffffff1673ffffffffffffffffffffffffffffffffffffffff1681526020018273ffffffffffffffffffffffffffffffffffffffff1673ffffffffffffffffffffffffffffffffffffffff1681526020019250505060405180910390a160006011811115612c6257fe5b9150505b919050565b6000600960008773ffffffffffffffffffffffffffffffffffffffff1673ffffffffffffffffffffffffffffffffffffffff16815260200190815260200160002060000160009054906101000a900460ff161580612d165750600960008673ffffffffffffffffffffffffffffffffffffffff1673ffffffffffffffffffffffffffffffffffffffff16815260200190815260200160002060000160009054906101000a900460ff16155b15612d2f5760096011811115612d2857fe5b9050612edb565b600080612d3b8561538f565b925050915060006011811115612d4d57fe5b826011811115612d5957fe5b14612d7357816011811115612d6a57fe5b92505050612edb565b6000811415612d925760036011811115612d8957fe5b92505050612edb565b60008873ffffffffffffffffffffffffffffffffffffffff166395dd9193876040518263ffffffff1660e01b8152600401808273ffffffffffffffffffffffffffffffffffffffff1673ffffffffffffffffffffffffffffffffffffffff16815260200191505060206040518083038186803b158015612e1157600080fd5b505afa158015612e25573d6000803e3d6000fd5b505050506040513d6020811015612e3b57600080fd5b81019080805190602001909291905050509050600080612e6b6040518060200160405280600554815250846153af565b9150915060006003811115612e7c57fe5b826003811115612e8857fe5b14612ea657600b6011811115612e9a57fe5b95505050505050612edb565b80871115612ec657601180811115612eba57fe5b95505050505050612edb565b60006011811115612ed357fe5b955050505050505b95945050505050565b600015612ef5576007546007819055505b50505050565b600c6020528060005260406000206000915054906101000a900460ff1681565b600015612f2c576007546007819055505b5050505050565b600b6020528060005260406000206000915054906101000a900460ff1681565b600460009054906101000a900473ffffffffffffffffffffffffffffffffffffffff1681565b600a60169054906101000a900460ff1681565b60096020528060005260406000206000915090508060000160009054906101000a900460ff16908060010154908060030160009054906101000a900460ff16905083565b6000600a60009054906101000a900473ffffffffffffffffffffffffffffffffffffffff1673ffffffffffffffffffffffffffffffffffffffff163373ffffffffffffffffffffffffffffffffffffffff16148061307a57506000809054906101000a900473ffffffffffffffffffffffffffffffffffffffff1673ffffffffffffffffffffffffffffffffffffffff163373ffffffffffffffffffffffffffffffffffffffff16145b6130cf576040517f08c379a0000000000000000000000000000000000000000000000000000000008152600401808060200182810382526027815260200180615e5c6027913960400191505060405180910390fd5b6000809054906101000a900473ffffffffffffffffffffffffffffffffffffffff1673ffffffffffffffffffffffffffffffffffffffff163373ffffffffffffffffffffffffffffffffffffffff16148061312e575060011515821515145b6131a0576040517f08c379a00000000000000000000000000000000000000000000000000000000081526004018080602001828103825260168152602001807f6f6e6c792061646d696e2063616e20756e70617573650000000000000000000081525060200191505060405180910390fd5b81600a60166101000a81548160ff0219169083151502179055507fef159d9a32b2472e32b098f954f3ce62d232939f1c207070b584df1814de2de082604051808060200183151515158152602001828103825260088152602001807f5472616e736665720000000000000000000000000000000000000000000000008152506020019250505060405180910390a1819050919050565b6000600960008373ffffffffffffffffffffffffffffffffffffffff1673ffffffffffffffffffffffffffffffffffffffff16815260200190815260200160002060020160008473ffffffffffffffffffffffffffffffffffffffff1673ffffffffffffffffffffffffffffffffffffffff16815260200190815260200160002060009054906101000a900460ff16905092915050565b60075481565b60008060009054906101000a900473ffffffffffffffffffffffffffffffffffffffff1673ffffffffffffffffffffffffffffffffffffffff163373ffffffffffffffffffffffffffffffffffffffff161461333c5761333560016012614ccb565b9050613547565b600960008373ffffffffffffffffffffffffffffffffffffffff1673ffffffffffffffffffffffffffffffffffffffff16815260200190815260200160002060000160009054906101000a900460ff16156133a45761339d600a6011614ccb565b9050613547565b8173ffffffffffffffffffffffffffffffffffffffff1663fe9c44ae6040518163ffffffff1660e01b815260040160206040518083038186803b1580156133ea57600080fd5b505afa1580156133fe573d6000803e3d6000fd5b505050506040513d602081101561341457600080fd5b81019080805190602001909291905050505060405180606001604052806001151581526020016000815260200160001515815250600960008473ffffffffffffffffffffffffffffffffffffffff1673ffffffffffffffffffffffffffffffffffffffff16815260200190815260200160002060008201518160000160006101000a81548160ff0219169083151502179055506020820151816001015560408201518160030160006101000a81548160ff0219169083151502179055509050507fcf583bb0c569eb967f806b11601c4cb93c10310485c67add5f8362c2f212321f82604051808273ffffffffffffffffffffffffffffffffffffffff1673ffffffffffffffffffffffffffffffffffffffff16815260200191505060405180910390a16000601181111561354457fe5b90505b919050565b606080600860008473ffffffffffffffffffffffffffffffffffffffff1673ffffffffffffffffffffffffffffffffffffffff16815260200190815260200160002080548060200260200160405190810160405280929190818152602001828054801561360e57602002820191906000526020600020905b8160009054906101000a900473ffffffffffffffffffffffffffffffffffffffff1673ffffffffffffffffffffffffffffffffffffffff16815260200190600101908083116135c4575b5050505050905080915050919050565b600a60179054906101000a900460ff1681565b600260009054906101000a900473ffffffffffffffffffffffffffffffffffffffff1681565b6000600a60169054906101000a900460ff16156136dc576040517f08c379a00000000000000000000000000000000000000000000000000000000081526004018080602001828103825260128152602001807f7472616e7366657220697320706175736564000000000000000000000000000081525060200191505060405180910390fd5b6136e7858584615412565b9050949350505050565b606060008251905060608160405190808252806020026020018201604052801561372a5781602001602082028038833980820191505090505b50905060008090505b8281101561378e57600085828151811061374957fe5b6020026020010151905061375d81336155a1565b601181111561376857fe5b83838151811061377457fe5b602002602001018181525050508080600101915050613733565b508092505050919050565b6000806000600460009054906101000a900473ffffffffffffffffffffffffffffffffffffffff1673ffffffffffffffffffffffffffffffffffffffff1663fc57d4df876040518263ffffffff1660e01b8152600401808273ffffffffffffffffffffffffffffffffffffffff1673ffffffffffffffffffffffffffffffffffffffff16815260200191505060206040518083038186803b15801561383d57600080fd5b505afa158015613851573d6000803e3d6000fd5b505050506040513d602081101561386757600080fd5b810190808051906020019092919050505090506000600460009054906101000a900473ffffffffffffffffffffffffffffffffffffffff1673ffffffffffffffffffffffffffffffffffffffff1663fc57d4df876040518263ffffffff1660e01b8152600401808273ffffffffffffffffffffffffffffffffffffffff1673ffffffffffffffffffffffffffffffffffffffff16815260200191505060206040518083038186803b15801561391b57600080fd5b505afa15801561392f573d6000803e3d6000fd5b505050506040513d602081101561394557600080fd5b8101908080519060200190929190505050905060008214806139675750600081145b1561398957600d601181111561397957fe5b6000809050935093505050613b93565b60008673ffffffffffffffffffffffffffffffffffffffff1663182df0f56040518163ffffffff1660e01b815260040160206040518083038186803b1580156139d157600080fd5b505afa1580156139e5573d6000803e3d6000fd5b505050506040513d60208110156139fb57600080fd5b810190808051906020019092919050505090506000613a18615d51565b613a20615d51565b613a28615d51565b6000613a366006548961585f565b809550819250505060006003811115613a4b57fe5b816003811115613a5757fe5b14613a7f57600b6011811115613a6957fe5b6000809050995099505050505050505050613b93565b613a89878761585f565b809450819250505060006003811115613a9e57fe5b816003811115613aaa57fe5b14613ad257600b6011811115613abc57fe5b6000809050995099505050505050505050613b93565b613adc848461589a565b809350819250505060006003811115613af157fe5b816003811115613afd57fe5b14613b2557600b6011811115613b0f57fe5b6000809050995099505050505050505050613b93565b613b2f828c6153af565b809650819250505060006003811115613b4457fe5b816003811115613b5057fe5b14613b7857600b6011811115613b6257fe5b6000809050995099505050505050505050613b93565b60006011811115613b8557fe5b859950995050505050505050505b935093915050565b6000600a60179054906101000a900460ff1615613c20576040517f08c379a000000000000000000000000000000000000000000000000000000000815260040180806020018281038252600f8152602001807f7365697a6520697320706175736564000000000000000000000000000000000081525060200191505060405180910390fd5b600960008773ffffffffffffffffffffffffffffffffffffffff1673ffffffffffffffffffffffffffffffffffffffff16815260200190815260200160002060000160009054906101000a900460ff161580613cc95750600960008673ffffffffffffffffffffffffffffffffffffffff1673ffffffffffffffffffffffffffffffffffffffff16815260200190815260200160002060000160009054906101000a900460ff16155b15613ce25760096011811115613cdb57fe5b9050613e39565b8473ffffffffffffffffffffffffffffffffffffffff16635fe3b5676040518163ffffffff1660e01b815260040160206040518083038186803b158015613d2857600080fd5b505afa158015613d3c573d6000803e3d6000fd5b505050506040513d6020811015613d5257600080fd5b810190808051906020019092919050505073ffffffffffffffffffffffffffffffffffffffff168673ffffffffffffffffffffffffffffffffffffffff16635fe3b5676040518163ffffffff1660e01b815260040160206040518083038186803b158015613dbf57600080fd5b505afa158015613dd3573d6000803e3d6000fd5b505050506040513d6020811015613de957600080fd5b810190808051906020019092919050505073ffffffffffffffffffffffffffffffffffffffff1614613e295760026011811115613e2257fe5b9050613e39565b60006011811115613e3657fe5b90505b95945050505050565b60008060009054906101000a900473ffffffffffffffffffffffffffffffffffffffff1673ffffffffffffffffffffffffffffffffffffffff163373ffffffffffffffffffffffffffffffffffffffff1614613eab57613ea46001600d614ccb565b9050613f09565b60006007549050826007819055507f7093cf1eb653f749c3ff531d6df7f92764536a7fa0d13530cd26e070780c32ea8184604051808381526020018281526020019250505060405180910390a160006011811115613f0557fe5b9150505b919050565b6000600c60008573ffffffffffffffffffffffffffffffffffffffff1673ffffffffffffffffffffffffffffffffffffffff16815260200190815260200160002060009054906101000a900460ff1615613fd0576040517f08c379a00000000000000000000000000000000000000000000000000000000081526004018080602001828103825260108152602001807f626f72726f77206973207061757365640000000000000000000000000000000081525060200191505060405180910390fd5b600960008573ffffffffffffffffffffffffffffffffffffffff1673ffffffffffffffffffffffffffffffffffffffff16815260200190815260200160002060000160009054906101000a900460ff16614038576009601181111561403157fe5b90506143ae565b600960008573ffffffffffffffffffffffffffffffffffffffff1673ffffffffffffffffffffffffffffffffffffffff16815260200190815260200160002060020160008473ffffffffffffffffffffffffffffffffffffffff1673ffffffffffffffffffffffffffffffffffffffff16815260200190815260200160002060009054906101000a900460ff1661423f578373ffffffffffffffffffffffffffffffffffffffff163373ffffffffffffffffffffffffffffffffffffffff161461416a576040517f08c379a00000000000000000000000000000000000000000000000000000000081526004018080602001828103825260158152602001807f73656e646572206d7573742062652063546f6b656e000000000000000000000081525060200191505060405180910390fd5b600061417633856155a1565b90506000601181111561418557fe5b81601181111561419157fe5b146141aa578060118111156141a257fe5b9150506143ae565b600960008673ffffffffffffffffffffffffffffffffffffffff1673ffffffffffffffffffffffffffffffffffffffff16815260200190815260200160002060020160008573ffffffffffffffffffffffffffffffffffffffff1673ffffffffffffffffffffffffffffffffffffffff16815260200190815260200160002060009054906101000a900460ff1661423d57fe5b505b6000600460009054906101000a900473ffffffffffffffffffffffffffffffffffffffff1673ffffffffffffffffffffffffffffffffffffffff1663fc57d4df866040518263ffffffff1660e01b8152600401808273ffffffffffffffffffffffffffffffffffffffff1673ffffffffffffffffffffffffffffffffffffffff16815260200191505060206040518083038186803b1580156142e057600080fd5b505afa1580156142f4573d6000803e3d6000fd5b505050506040513d602081101561430a57600080fd5b8101908080519060200190929190505050141561433557600d601181111561432e57fe5b90506143ae565b6000806143458587600087614d6a565b92505091506000601181111561435757fe5b82601181111561436357fe5b1461437d5781601181111561437457fe5b925050506143ae565b600081111561439c576004601181111561439357fe5b925050506143ae565b600060118111156143a957fe5b925050505b9392505050565b600860205281600052604060002081815481106143ce57fe5b906000526020600020016000915091509054906101000a900473ffffffffffffffffffffffffffffffffffffffff1681565b600360009054906101000a900473ffffffffffffffffffffffffffffffffffffffff1681565b60008060009054906101000a900473ffffffffffffffffffffffffffffffffffffffff1673ffffffffffffffffffffffffffffffffffffffff163373ffffffffffffffffffffffffffffffffffffffff161461448f5761448860016006614ccb565b90506146f9565b6000600960008573ffffffffffffffffffffffffffffffffffffffff1673ffffffffffffffffffffffffffffffffffffffff16815260200190815260200160002090508060000160009054906101000a900460ff166144fc576144f460096007614ccb565b9150506146f9565b614504615d51565b604051806020016040528085815250905061451d615d51565b6040518060200160405280670c7d713b49da000081525090506145408183614d55565b1561455b5761455160066008614ccb565b93505050506146f9565b6000851415801561464557506000600460009054906101000a900473ffffffffffffffffffffffffffffffffffffffff1673ffffffffffffffffffffffffffffffffffffffff1663fc57d4df886040518263ffffffff1660e01b8152600401808273ffffffffffffffffffffffffffffffffffffffff1673ffffffffffffffffffffffffffffffffffffffff16815260200191505060206040518083038186803b15801561460857600080fd5b505afa15801561461c573d6000803e3d6000fd5b505050506040513d602081101561463257600080fd5b8101908080519060200190929190505050145b1561466057614656600d6009614ccb565b93505050506146f9565b6000836001015490508584600101819055507f70483e6592cd5182d45ac970e05bc62cdcc90e9d8ef2c2dbe686cf383bcd7fc5878288604051808473ffffffffffffffffffffffffffffffffffffffff1673ffffffffffffffffffffffffffffffffffffffff168152602001838152602001828152602001935050505060405180910390a1600060118111156146f257fe5b9450505050505b92915050565b600a60159054906101000a900460ff1681565b60055481565b6000614725848484615412565b90509392505050565b60008082905060008060008373ffffffffffffffffffffffffffffffffffffffff1663c37f68e2336040518263ffffffff1660e01b8152600401808273ffffffffffffffffffffffffffffffffffffffff1673ffffffffffffffffffffffffffffffffffffffff16815260200191505060806040518083038186803b1580156147b657600080fd5b505afa1580156147ca573d6000803e3d6000fd5b505050506040513d60808110156147e057600080fd5b8101908080519060200190929190805190602001909291908051906020019092919080519060200190929190505050509250925092506000831461486f576040517f08c379a0000000000000000000000000000000000000000000000000000000008152600401808060200182810382526025815260200180615e836025913960400191505060405180910390fd5b6000811461488e57614883600c6002614ccb565b945050505050614ca1565b600061489b873385615412565b9050600081146148be576148b2600e6003836158c1565b95505050505050614ca1565b6000600960008773ffffffffffffffffffffffffffffffffffffffff1673ffffffffffffffffffffffffffffffffffffffff16815260200190815260200160002090508060020160003373ffffffffffffffffffffffffffffffffffffffff1673ffffffffffffffffffffffffffffffffffffffff16815260200190815260200160002060009054906101000a900460ff1661496e576000601181111561496157fe5b9650505050505050614ca1565b8060020160003373ffffffffffffffffffffffffffffffffffffffff1673ffffffffffffffffffffffffffffffffffffffff16815260200190815260200160002060006101000a81549060ff02191690556060600860003373ffffffffffffffffffffffffffffffffffffffff1673ffffffffffffffffffffffffffffffffffffffff168152602001908152602001600020805480602002602001604051908101604052809291908181526020018280548015614a8057602002820191906000526020600020905b8160009054906101000a900473ffffffffffffffffffffffffffffffffffffffff1673ffffffffffffffffffffffffffffffffffffffff1681526020019060010190808311614a36575b50505050509050600081519050600081905060008090505b82811015614afc578973ffffffffffffffffffffffffffffffffffffffff16848281518110614ac357fe5b602002602001015173ffffffffffffffffffffffffffffffffffffffff161415614aef57809150614afc565b8080600101915050614a98565b50818110614b0657fe5b6000600860003373ffffffffffffffffffffffffffffffffffffffff1673ffffffffffffffffffffffffffffffffffffffff168152602001908152602001600020905080600182805490500381548110614b5c57fe5b9060005260206000200160009054906101000a900473ffffffffffffffffffffffffffffffffffffffff16818381548110614b9357fe5b9060005260206000200160006101000a81548173ffffffffffffffffffffffffffffffffffffffff021916908373ffffffffffffffffffffffffffffffffffffffff16021790555080805480919060019003614bef9190615d64565b507fe699a64c18b07ac5b7301aa273f36a2287239eb9501d81950672794afba29a0d8a33604051808373ffffffffffffffffffffffffffffffffffffffff1673ffffffffffffffffffffffffffffffffffffffff1681526020018273ffffffffffffffffffffffffffffffffffffffff1673ffffffffffffffffffffffffffffffffffffffff1681526020019250505060405180910390a160006011811115614c9457fe5b9a50505050505050505050505b919050565b6000809054906101000a900473ffffffffffffffffffffffffffffffffffffffff1681565b60007f45b96fe442630264581b197e84bbada861235052c5a1aadfff9ea4e40a969aa0836011811115614cfa57fe5b836013811115614d0657fe5b600060405180848152602001838152602001828152602001935050505060405180910390a1826011811115614d3757fe5b905092915050565b6000816000015183600001511115905092915050565b60008160000151836000015110905092915050565b6000806000614d77615d90565b6000806060600860008c73ffffffffffffffffffffffffffffffffffffffff1673ffffffffffffffffffffffffffffffffffffffff168152602001908152602001600020805480602002602001604051908101604052809291908181526020018280548015614e3b57602002820191906000526020600020905b8160009054906101000a900473ffffffffffffffffffffffffffffffffffffffff1673ffffffffffffffffffffffffffffffffffffffff1681526020019060010190808311614df1575b5050505050905060008090505b8151811015615337576000828281518110614e5f57fe5b602002602001015190508073ffffffffffffffffffffffffffffffffffffffff1663c37f68e28e6040518263ffffffff1660e01b8152600401808273ffffffffffffffffffffffffffffffffffffffff1673ffffffffffffffffffffffffffffffffffffffff16815260200191505060806040518083038186803b158015614ee657600080fd5b505afa158015614efa573d6000803e3d6000fd5b505050506040513d6080811015614f1057600080fd5b8101908080519060200190929190805190602001909291908051906020019092919080519060200190929190505050896040018a6060018b6080018381525083815250838152508398505050505060008514614f8257600f600080819150809050985098509850505050505050615385565b6040518060200160405280600960008473ffffffffffffffffffffffffffffffffffffffff1673ffffffffffffffffffffffffffffffffffffffff168152602001908152602001600020600101548152508660c00181905250604051806020016040528087608001518152508660e00181905250600460009054906101000a900473ffffffffffffffffffffffffffffffffffffffff1673ffffffffffffffffffffffffffffffffffffffff1663fc57d4df826040518263ffffffff1660e01b8152600401808273ffffffffffffffffffffffffffffffffffffffff1673ffffffffffffffffffffffffffffffffffffffff16815260200191505060206040518083038186803b15801561509557600080fd5b505afa1580156150a9573d6000803e3d6000fd5b505050506040513d60208110156150bf57600080fd5b81019080805190602001909291905050508660a001818152505060008660a00151141561510257600d600080819150809050985098509850505050505050615385565b60405180602001604052808760a001518152508661010001819052506151368660c001518760e00151886101000151615935565b809050876101200181905281955050506000600381111561515357fe5b84600381111561515f57fe5b1461518057600b600080819150809050985098509850505050505050615385565b6151988661012001518760400151886000015161599b565b87600001818152508195505050600060038111156151b257fe5b8460038111156151be57fe5b146151df57600b600080819150809050985098509850505050505050615385565b6151f78661010001518760600151886020015161599b565b876020018181525081955050506000600381111561521157fe5b84600381111561521d57fe5b1461523e57600b600080819150809050985098509850505050505050615385565b8b73ffffffffffffffffffffffffffffffffffffffff168173ffffffffffffffffffffffffffffffffffffffff161415615329576152868661012001518c886020015161599b565b87602001818152508195505050600060038111156152a057fe5b8460038111156152ac57fe5b146152cd57600b600080819150809050985098509850505050505050615385565b6152e18661010001518b886020015161599b565b87602001818152508195505050600060038111156152fb57fe5b84600381111561530757fe5b1461532857600b600080819150809050985098509850505050505050615385565b5b508080600101915050614e48565b508360200151846000015111156153695760008460200151856000015103600080905096509650965050505050615385565b6000808560000151866020015103819150965096509650505050505b9450945094915050565b60008060006153a2846000806000614d6a565b9250925092509193909250565b60008060006153bc615d51565b6153c68686615a06565b91509150600060038111156153d757fe5b8260038111156153e357fe5b146153f95781600080905093509350505061540b565b600061540482615a84565b9350935050505b9250929050565b6000600960008573ffffffffffffffffffffffffffffffffffffffff1673ffffffffffffffffffffffffffffffffffffffff16815260200190815260200160002060000160009054906101000a900460ff1661547c576009601181111561547557fe5b905061559a565b600960008573ffffffffffffffffffffffffffffffffffffffff1673ffffffffffffffffffffffffffffffffffffffff16815260200190815260200160002060020160008473ffffffffffffffffffffffffffffffffffffffff1673ffffffffffffffffffffffffffffffffffffffff16815260200190815260200160002060009054906101000a900460ff16615521576000601181111561551a57fe5b905061559a565b6000806155318587866000614d6a565b92505091506000601181111561554357fe5b82601181111561554f57fe5b146155695781601181111561556057fe5b9250505061559a565b6000811115615588576004601181111561557f57fe5b9250505061559a565b6000601181111561559557fe5b925050505b9392505050565b600080600960008573ffffffffffffffffffffffffffffffffffffffff1673ffffffffffffffffffffffffffffffffffffffff16815260200190815260200160002090508060000160009054906101000a900460ff16615605576009915050615859565b600115158160020160008573ffffffffffffffffffffffffffffffffffffffff1673ffffffffffffffffffffffffffffffffffffffff16815260200190815260200160002060009054906101000a900460ff161515141561566a576000915050615859565b600754600860008573ffffffffffffffffffffffffffffffffffffffff1673ffffffffffffffffffffffffffffffffffffffff16815260200190815260200160002080549050106156bf576010915050615859565b60018160020160008573ffffffffffffffffffffffffffffffffffffffff1673ffffffffffffffffffffffffffffffffffffffff16815260200190815260200160002060006101000a81548160ff021916908315150217905550600860008473ffffffffffffffffffffffffffffffffffffffff1673ffffffffffffffffffffffffffffffffffffffff1681526020019081526020016000208490806001815401808255809150509060018203906000526020600020016000909192909190916101000a81548173ffffffffffffffffffffffffffffffffffffffff021916908373ffffffffffffffffffffffffffffffffffffffff160217905550507f3ab23ab0d51cccc0c3085aec51f99228625aa1a922b3a8ca89a26b0f2027a1a58484604051808373ffffffffffffffffffffffffffffffffffffffff1673ffffffffffffffffffffffffffffffffffffffff1681526020018273ffffffffffffffffffffffffffffffffffffffff1673ffffffffffffffffffffffffffffffffffffffff1681526020019250505060405180910390a160009150505b92915050565b6000615869615d51565b61588f604051806020016040528086815250604051806020016040528086815250615aa3565b915091509250929050565b60006158a4615d51565b6158b684600001518460000151615bc4565b915091509250929050565b60007f45b96fe442630264581b197e84bbada861235052c5a1aadfff9ea4e40a969aa08460118111156158f057fe5b8460138111156158fc57fe5b8460405180848152602001838152602001828152602001935050505060405180910390a183601181111561592c57fe5b90509392505050565b600061593f615d51565b6000615949615d51565b6159538787615aa3565b915091506000600381111561596457fe5b82600381111561597057fe5b14615982578181935093505050615993565b61598c8186615aa3565b9350935050505b935093915050565b60008060006159a8615d51565b6159b28787615a06565b91509150600060038111156159c357fe5b8260038111156159cf57fe5b146159e5578160008090509350935050506159fe565b6159f76159f182615a84565b86615c98565b9350935050505b935093915050565b6000615a10615d51565b600080615a21866000015186615cca565b9150915060006003811115615a3257fe5b826003811115615a3e57fe5b14615a62578160405180602001604052806000815250809050935093505050615a7d565b60006040518060200160405280838152508090509350935050505b9250929050565b6000670de0b6b3a7640000826000015181615a9b57fe5b049050919050565b6000615aad615d51565b600080615ac286600001518660000151615cca565b9150915060006003811115615ad357fe5b826003811115615adf57fe5b14615b03578160405180602001604052806000815250809050935093505050615bbd565b600080615b226002670de0b6b3a764000081615b1b57fe5b0484615c98565b9150915060006003811115615b3357fe5b826003811115615b3f57fe5b14615b655781604051806020016040528060008152508090509550955050505050615bbd565b600080615b7a83670de0b6b3a7640000615d1d565b9150915060006003811115615b8b57fe5b826003811115615b9757fe5b14615b9e57fe5b6000604051806020016040528083815250809050975097505050505050505b9250929050565b6000615bce615d51565b600080615be386670de0b6b3a7640000615cca565b9150915060006003811115615bf457fe5b826003811115615c0057fe5b14615c24578160405180602001604052806000815250809050935093505050615c91565b600080615c318388615d1d565b9150915060006003811115615c4257fe5b826003811115615c4e57fe5b14615c745781604051806020016040528060008152508090509550955050505050615c91565b600060405180602001604052808381525080905095509550505050505b9250929050565b60008060008385019050848110615cb6576000819250925050615cc3565b6002600080905092509250505b9250929050565b6000806000841415615ce55760008080905091509150615d16565b6000838502905083858281615cf657fe5b0414615d0d57600260008090509250925050615d16565b60008192509250505b9250929050565b6000806000831415615d39576001600080905091509150615d4a565b6000838581615d4457fe5b04915091505b9250929050565b6040518060200160405280600081525090565b815481835581811115615d8b57818360005260206000209182019101615d8a9190615dfb565b5b505050565b604051806101400160405280600081526020016000815260200160008152602001600081526020016000815260200160008152602001615dce615e20565b8152602001615ddb615e20565b8152602001615de8615e20565b8152602001615df5615e20565b81525090565b615e1d91905b80821115615e19576000816000905550600101615e01565b5090565b90565b604051806020016040528060008152509056fe63616e6e6f742070617573652061206d61726b65742074686174206973206e6f74206c69737465646f6e6c7920706175736520677561726469616e20616e642061646d696e2063616e207061757365657869744d61726b65743a206765744163636f756e74536e617073686f74206661696c65646f6e6c7920756e6974726f6c6c65722061646d696e2063616e206368616e676520627261696e73a265627a7a723158208283e4d65b18edee945b711aba367cf3ff98d59133fb994fb8f30486a976d0fc64736f6c63430005100032",
  "linkReferences": {},
  "deployedLinkReferences": {}
}