{
  "_format": "hh-sol-artifact-1",
  "contractName": "CompoundLens",
  "sourceName": "contracts/Lens/CompoundLens.sol",
  "abi": [
    {
      "constant": false,
      "inputs": [
        {
          "internalType": "contract CToken",
          "name": "cToken",
          "type": "address"
        },
        {
          "internalType": "address payable",
          "name": "account",
          "type": "address"
        }
      ],
      "name": "cTokenBalances",
      "outputs": [
        {
          "components": [
            {
              "internalType": "address",
              "name": "cToken",
              "type": "address"
            },
            {
              "internalType": "uint256",
              "name": "balanceOf",
              "type": "uint256"
            },
            {
              "internalType": "uint256",
              "name": "borrowBalanceCurrent",
              "type": "uint256"
            },
            {
              "internalType": "uint256",
              "name": "balanceOfUnderlying",
              "type": "uint256"
            },
            {
              "internalType": "uint256",
              "name": "tokenBalance",
              "type": "uint256"
            },
            {
              "internalType": "uint256",
              "name": "tokenAllowance",
              "type": "uint256"
            }
          ],
          "internalType": "struct CompoundLens.CTokenBalances",
          "name": "",
          "type": "tuple"
        }
      ],
      "payable": false,
      "stateMutability": "nonpayable",
      "type": "function"
    },
    {
      "constant": false,
      "inputs": [
        {
          "internalType": "contract CToken[]",
          "name": "cTokens",
          "type": "address[]"
        },
        {
          "internalType": "address payable",
          "name": "account",
          "type": "address"
        }
      ],
      "name": "cTokenBalancesAll",
      "outputs": [
        {
          "components": [
            {
              "internalType": "address",
              "name": "cToken",
              "type": "address"
            },
            {
              "internalType": "uint256",
              "name": "balanceOf",
              "type": "uint256"
            },
            {
              "internalType": "uint256",
              "name": "borrowBalanceCurrent",
              "type": "uint256"
            },
            {
              "internalType": "uint256",
              "name": "balanceOfUnderlying",
              "type": "uint256"
            },
            {
              "internalType": "uint256",
              "name": "tokenBalance",
              "type": "uint256"
            },
            {
              "internalType": "uint256",
              "name": "tokenAllowance",
              "type": "uint256"
            }
          ],
          "internalType": "struct CompoundLens.CTokenBalances[]",
          "name": "",
          "type": "tuple[]"
        }
      ],
      "payable": false,
      "stateMutability": "nonpayable",
      "type": "function"
    },
    {
      "constant": false,
      "inputs": [
        {
          "internalType": "contract CToken",
          "name": "cToken",
          "type": "address"
        }
      ],
      "name": "cTokenMetadata",
      "outputs": [
        {
          "components": [
            {
              "internalType": "address",
              "name": "cToken",
              "type": "address"
            },
            {
              "internalType": "uint256",
              "name": "exchangeRateCurrent",
              "type": "uint256"
            },
            {
              "internalType": "uint256",
              "name": "supplyRatePerBlock",
              "type": "uint256"
            },
            {
              "internalType": "uint256",
              "name": "borrowRatePerBlock",
              "type": "uint256"
            },
            {
              "internalType": "uint256",
              "name": "reserveFactorMantissa",
              "type": "uint256"
            },
            {
              "internalType": "uint256",
              "name": "totalBorrows",
              "type": "uint256"
            },
            {
              "internalType": "uint256",
              "name": "totalReserves",
              "type": "uint256"
            },
            {
              "internalType": "uint256",
              "name": "totalSupply",
              "type": "uint256"
            },
            {
              "internalType": "uint256",
              "name": "totalCash",
              "type": "uint256"
            },
            {
              "internalType": "bool",
              "name": "isListed",
              "type": "bool"
            },
            {
              "internalType": "uint256",
              "name": "collateralFactorMantissa",
              "type": "uint256"
            },
            {
              "internalType": "address",
              "name": "underlyingAssetAddress",
              "type": "address"
            },
            {
              "internalType": "uint256",
              "name": "cTokenDecimals",
              "type": "uint256"
            },
            {
              "internalType": "uint256",
              "name": "underlyingDecimals",
              "type": "uint256"
            }
          ],
          "internalType": "struct CompoundLens.CTokenMetadata",
          "name": "",
          "type": "tuple"
        }
      ],
      "payable": false,
      "stateMutability": "nonpayable",
      "type": "function"
    },
    {
      "constant": false,
      "inputs": [
        {
          "internalType": "contract CToken[]",
          "name": "cTokens",
          "type": "address[]"
        }
      ],
      "name": "cTokenMetadataAll",
      "outputs": [
        {
          "components": [
            {
              "internalType": "address",
              "name": "cToken",
              "type": "address"
            },
            {
              "internalType": "uint256",
              "name": "exchangeRateCurrent",
              "type": "uint256"
            },
            {
              "internalType": "uint256",
              "name": "supplyRatePerBlock",
              "type": "uint256"
            },
            {
              "internalType": "uint256",
              "name": "borrowRatePerBlock",
              "type": "uint256"
            },
            {
              "internalType": "uint256",
              "name": "reserveFactorMantissa",
              "type": "uint256"
            },
            {
              "internalType": "uint256",
              "name": "totalBorrows",
              "type": "uint256"
            },
            {
              "internalType": "uint256",
              "name": "totalReserves",
              "type": "uint256"
            },
            {
              "internalType": "uint256",
              "name": "totalSupply",
              "type": "uint256"
            },
            {
              "internalType": "uint256",
              "name": "totalCash",
              "type": "uint256"
            },
            {
              "internalType": "bool",
              "name": "isListed",
              "type": "bool"
            },
            {
              "internalType": "uint256",
              "name": "collateralFactorMantissa",
              "type": "uint256"
            },
            {
              "internalType": "address",
              "name": "underlyingAssetAddress",
              "type": "address"
            },
            {
              "internalType": "uint256",
              "name": "cTokenDecimals",
              "type": "uint256"
            },
            {
              "internalType": "uint256",
              "name": "underlyingDecimals",
              "type": "uint256"
            }
          ],
          "internalType": "struct CompoundLens.CTokenMetadata[]",
          "name": "",
          "type": "tuple[]"
        }
      ],
      "payable": false,
      "stateMutability": "nonpayable",
      "type": "function"
    },
    {
      "constant": false,
      "inputs": [
        {
          "internalType": "contract CToken",
          "name": "cToken",
          "type": "address"
        }
      ],
      "name": "cTokenUnderlyingPrice",
      "outputs": [
        {
          "components": [
            {
              "internalType": "address",
              "name": "cToken",
              "type": "address"
            },
            {
              "internalType": "uint256",
              "name": "underlyingPrice",
              "type": "uint256"
            }
          ],
          "internalType": "struct CompoundLens.CTokenUnderlyingPrice",
          "name": "",
          "type": "tuple"
        }
      ],
      "payable": false,
      "stateMutability": "nonpayable",
      "type": "function"
    },
    {
      "constant": false,
      "inputs": [
        {
          "internalType": "contract CToken[]",
          "name": "cTokens",
          "type": "address[]"
        }
      ],
      "name": "cTokenUnderlyingPriceAll",
      "outputs": [
        {
          "components": [
            {
              "internalType": "address",
              "name": "cToken",
              "type": "address"
            },
            {
              "internalType": "uint256",
              "name": "underlyingPrice",
              "type": "uint256"
            }
          ],
          "internalType": "struct CompoundLens.CTokenUnderlyingPrice[]",
          "name": "",
          "type": "tuple[]"
        }
      ],
      "payable": false,
      "stateMutability": "nonpayable",
      "type": "function"
    },
    {
      "constant": false,
      "inputs": [
        {
          "internalType": "contract ComptrollerLensInterface",
          "name": "comptroller",
          "type": "address"
        },
        {
          "internalType": "address",
          "name": "account",
          "type": "address"
        }
      ],
      "name": "getAccountLimits",
      "outputs": [
        {
          "components": [
            {
              "internalType": "contract CToken[]",
              "name": "markets",
              "type": "address[]"
            },
            {
              "internalType": "uint256",
              "name": "liquidity",
              "type": "uint256"
            },
            {
              "internalType": "uint256",
              "name": "shortfall",
              "type": "uint256"
            }
          ],
          "internalType": "struct CompoundLens.AccountLimits",
          "name": "",
          "type": "tuple"
        }
      ],
      "payable": false,
      "stateMutability": "nonpayable",
      "type": "function"
    },
    {
      "constant": true,
      "inputs": [
        {
          "internalType": "contract Comp",
          "name": "comp",
          "type": "address"
        },
        {
          "internalType": "address",
          "name": "account",
          "type": "address"
        }
      ],
      "name": "getCompBalanceMetadata",
      "outputs": [
        {
          "components": [
            {
              "internalType": "uint256",
              "name": "balance",
              "type": "uint256"
            },
            {
              "internalType": "uint256",
              "name": "votes",
              "type": "uint256"
            },
            {
              "internalType": "address",
              "name": "delegate",
              "type": "address"
            }
          ],
          "internalType": "struct CompoundLens.CompBalanceMetadata",
          "name": "",
          "type": "tuple"
        }
      ],
      "payable": false,
      "stateMutability": "view",
      "type": "function"
    },
    {
      "constant": false,
      "inputs": [
        {
          "internalType": "contract Comp",
          "name": "comp",
          "type": "address"
        },
        {
          "internalType": "contract ComptrollerLensInterface",
          "name": "comptroller",
          "type": "address"
        },
        {
          "internalType": "address",
          "name": "account",
          "type": "address"
        }
      ],
      "name": "getCompBalanceMetadataExt",
      "outputs": [
        {
          "components": [
            {
              "internalType": "uint256",
              "name": "balance",
              "type": "uint256"
            },
            {
              "internalType": "uint256",
              "name": "votes",
              "type": "uint256"
            },
            {
              "internalType": "address",
              "name": "delegate",
              "type": "address"
            },
            {
              "internalType": "uint256",
              "name": "allocated",
              "type": "uint256"
            }
          ],
          "internalType": "struct CompoundLens.CompBalanceMetadataExt",
          "name": "",
          "type": "tuple"
        }
      ],
      "payable": false,
      "stateMutability": "nonpayable",
      "type": "function"
    },
    {
      "constant": true,
      "inputs": [
        {
          "internalType": "contract Comp",
          "name": "comp",
          "type": "address"
        },
        {
          "internalType": "address",
          "name": "account",
          "type": "address"
        },
        {
          "internalType": "uint32[]",
          "name": "blockNumbers",
          "type": "uint32[]"
        }
      ],
      "name": "getCompVotes",
      "outputs": [
        {
          "components": [
            {
              "internalType": "uint256",
              "name": "blockNumber",
              "type": "uint256"
            },
            {
              "internalType": "uint256",
              "name": "votes",
              "type": "uint256"
            }
          ],
          "internalType": "struct CompoundLens.CompVotes[]",
          "name": "",
          "type": "tuple[]"
        }
      ],
      "payable": false,
      "stateMutability": "view",
      "type": "function"
    },
    {
      "constant": true,
      "inputs": [
        {
          "internalType": "contract GovernorAlpha",
          "name": "governor",
          "type": "address"
        },
        {
          "internalType": "uint256[]",
          "name": "proposalIds",
          "type": "uint256[]"
        }
      ],
      "name": "getGovProposals",
      "outputs": [
        {
          "components": [
            {
              "internalType": "uint256",
              "name": "proposalId",
              "type": "uint256"
            },
            {
              "internalType": "address",
              "name": "proposer",
              "type": "address"
            },
            {
              "internalType": "uint256",
              "name": "eta",
              "type": "uint256"
            },
            {
              "internalType": "address[]",
              "name": "targets",
              "type": "address[]"
            },
            {
              "internalType": "uint256[]",
              "name": "values",
              "type": "uint256[]"
            },
            {
              "internalType": "string[]",
              "name": "signatures",
              "type": "string[]"
            },
            {
              "internalType": "bytes[]",
              "name": "calldatas",
              "type": "bytes[]"
            },
            {
              "internalType": "uint256",
              "name": "startBlock",
              "type": "uint256"
            },
            {
              "internalType": "uint256",
              "name": "endBlock",
              "type": "uint256"
            },
            {
              "internalType": "uint256",
              "name": "forVotes",
              "type": "uint256"
            },
            {
              "internalType": "uint256",
              "name": "againstVotes",
              "type": "uint256"
            },
            {
              "internalType": "bool",
              "name": "canceled",
              "type": "bool"
            },
            {
              "internalType": "bool",
              "name": "executed",
              "type": "bool"
            }
          ],
          "internalType": "struct CompoundLens.GovProposal[]",
          "name": "",
          "type": "tuple[]"
        }
      ],
      "payable": false,
      "stateMutability": "view",
      "type": "function"
    },
    {
      "constant": true,
      "inputs": [
        {
          "internalType": "contract GovernorAlpha",
          "name": "governor",
          "type": "address"
        },
        {
          "internalType": "address",
          "name": "voter",
          "type": "address"
        },
        {
          "internalType": "uint256[]",
          "name": "proposalIds",
          "type": "uint256[]"
        }
      ],
      "name": "getGovReceipts",
      "outputs": [
        {
          "components": [
            {
              "internalType": "uint256",
              "name": "proposalId",
              "type": "uint256"
            },
            {
              "internalType": "bool",
              "name": "hasVoted",
              "type": "bool"
            },
            {
              "internalType": "bool",
              "name": "support",
              "type": "bool"
            },
            {
              "internalType": "uint96",
              "name": "votes",
              "type": "uint96"
            }
          ],
          "internalType": "struct CompoundLens.GovReceipt[]",
          "name": "",
          "type": "tuple[]"
        }
      ],
      "payable": false,
      "stateMutability": "view",
      "type": "function"
    }
  ],
  "bytecode": "0x608060405234801561001057600080fd5b506149ea806100206000396000f3fe608060405234801561001057600080fd5b50600436106100b45760003560e01c8063595642191161007157806359564219146101d95780637dd8f6d9146102095780639699486914610239578063995ed99f14610269578063bdf950c914610299578063c5ae5934146102c9576100b4565b80630972bf8b146100b9578063158eca8b146100e95780631ea63741146101195780632b2d5ed614610149578063416405d7146101795780634b70d84b146101a9575b600080fd5b6100d360048036036100ce9190810190612da1565b6102f9565b6040516100e091906140cc565b60405180910390f35b61010360048036036100fe9190810190612e76565b6103ab565b6040516101109190614212565b60405180910390f35b610133600480360361012e9190810190612f83565b610c29565b6040516101409190614249565b60405180910390f35b610163600480360361015e9190810190612d5c565b61102e565b6040516101709190614110565b60405180910390f35b610193600480360361018e9190810190612edb565b6110de565b6040516101a09190614264565b60405180910390f35b6101c360048036036101be9190810190612d5c565b6112c5565b6040516101d091906140ee565b60405180910390f35b6101f360048036036101ee9190810190612f17565b611375565b6040516102009190614132565b60405180910390f35b610223600480360361021e9190810190612ffb565b6114ed565b60405161023091906141d5565b60405180910390f35b610253600480360361024e919081019061309e565b611649565b6040516102609190614154565b60405180910390f35b610283600480360361027e9190810190613037565b61182a565b6040516102909190614176565b60405180910390f35b6102b360048036036102ae9190810190612e9f565b6119ab565b6040516102c091906141f7565b60405180910390f35b6102e360048036036102de9190810190612e76565b611e52565b6040516102f0919061422e565b60405180910390f35b6060600084849050905060608160405190808252806020026020018201604052801561033f57816020015b61032c612275565b8152602001906001900390816103245790505b50905060008090505b8281101561039e5761037a87878381811061035f57fe5b90506020020160206103749190810190612e76565b866119ab565b82828151811061038657fe5b60200260200101819052508080600101915050610348565b5080925050509392505050565b6103b36122c1565b60008273ffffffffffffffffffffffffffffffffffffffff1663bd6d894d6040518163ffffffff1660e01b8152600401602060405180830381600087803b1580156103fd57600080fd5b505af1158015610411573d6000803e3d6000fd5b505050506040513d601f19601f820116820180604052506104359190810190613189565b905060008373ffffffffffffffffffffffffffffffffffffffff16635fe3b5676040518163ffffffff1660e01b815260040160206040518083038186803b15801561047f57600080fd5b505afa158015610493573d6000803e3d6000fd5b505050506040513d601f19601f820116820180604052506104b79190810190612fd2565b90506000808273ffffffffffffffffffffffffffffffffffffffff16638e8f294b876040518263ffffffff1660e01b81526004016104f59190614044565b604080518083038186803b15801561050c57600080fd5b505afa158015610520573d6000803e3d6000fd5b505050506040513d601f19601f820116820180604052506105449190810190612e3a565b9150915060008061060c8873ffffffffffffffffffffffffffffffffffffffff166395d89b416040518163ffffffff1660e01b815260040160006040518083038186803b15801561059457600080fd5b505afa1580156105a8573d6000803e3d6000fd5b505050506040513d6000823e3d601f19601f820116820180604052506105d1919081019061311f565b6040518060400160405280600481526020017f634554480000000000000000000000000000000000000000000000000000000081525061201a565b1561061e5760009150601290506107a5565b60008890508073ffffffffffffffffffffffffffffffffffffffff16636f307dc36040518163ffffffff1660e01b815260040160206040518083038186803b15801561066957600080fd5b505afa15801561067d573d6000803e3d6000fd5b505050506040513d601f19601f820116820180604052506106a19190810190612c70565b92508073ffffffffffffffffffffffffffffffffffffffff16636f307dc36040518163ffffffff1660e01b815260040160206040518083038186803b1580156106e957600080fd5b505afa1580156106fd573d6000803e3d6000fd5b505050506040513d601f19601f820116820180604052506107219190810190612c70565b73ffffffffffffffffffffffffffffffffffffffff1663313ce5676040518163ffffffff1660e01b815260040160206040518083038186803b15801561076657600080fd5b505afa15801561077a573d6000803e3d6000fd5b505050506040513d601f19601f8201168201806040525061079e91908101906132f0565b60ff169150505b604051806101c001604052808973ffffffffffffffffffffffffffffffffffffffff1681526020018781526020018973ffffffffffffffffffffffffffffffffffffffff1663ae9d70b06040518163ffffffff1660e01b815260040160206040518083038186803b15801561081957600080fd5b505afa15801561082d573d6000803e3d6000fd5b505050506040513d601f19601f820116820180604052506108519190810190613189565b81526020018973ffffffffffffffffffffffffffffffffffffffff1663f8f9da286040518163ffffffff1660e01b815260040160206040518083038186803b15801561089c57600080fd5b505afa1580156108b0573d6000803e3d6000fd5b505050506040513d601f19601f820116820180604052506108d49190810190613189565b81526020018973ffffffffffffffffffffffffffffffffffffffff1663173b99046040518163ffffffff1660e01b815260040160206040518083038186803b15801561091f57600080fd5b505afa158015610933573d6000803e3d6000fd5b505050506040513d601f19601f820116820180604052506109579190810190613189565b81526020018973ffffffffffffffffffffffffffffffffffffffff166347bd37186040518163ffffffff1660e01b815260040160206040518083038186803b1580156109a257600080fd5b505afa1580156109b6573d6000803e3d6000fd5b505050506040513d601f19601f820116820180604052506109da9190810190613189565b81526020018973ffffffffffffffffffffffffffffffffffffffff16638f840ddd6040518163ffffffff1660e01b815260040160206040518083038186803b158015610a2557600080fd5b505afa158015610a39573d6000803e3d6000fd5b505050506040513d601f19601f82011682018060405250610a5d9190810190613189565b81526020018973ffffffffffffffffffffffffffffffffffffffff166318160ddd6040518163ffffffff1660e01b815260040160206040518083038186803b158015610aa857600080fd5b505afa158015610abc573d6000803e3d6000fd5b505050506040513d601f19601f82011682018060405250610ae09190810190613189565b81526020018973ffffffffffffffffffffffffffffffffffffffff16633b1d21a26040518163ffffffff1660e01b815260040160206040518083038186803b158015610b2b57600080fd5b505afa158015610b3f573d6000803e3d6000fd5b505050506040513d601f19601f82011682018060405250610b639190810190613189565b815260200185151581526020018481526020018373ffffffffffffffffffffffffffffffffffffffff1681526020018973ffffffffffffffffffffffffffffffffffffffff1663313ce5676040518163ffffffff1660e01b815260040160206040518083038186803b158015610bd857600080fd5b505afa158015610bec573d6000803e3d6000fd5b505050506040513d601f19601f82011682018060405250610c1091908101906132f0565b60ff168152602001828152509650505050505050919050565b610c3161235e565b60008473ffffffffffffffffffffffffffffffffffffffff166370a08231846040518263ffffffff1660e01b8152600401610c6c9190614044565b60206040518083038186803b158015610c8457600080fd5b505afa158015610c98573d6000803e3d6000fd5b505050506040513d601f19601f82011682018060405250610cbc9190810190613189565b90508373ffffffffffffffffffffffffffffffffffffffff1663e9af0292846040518263ffffffff1660e01b8152600401610cf79190614044565b600060405180830381600087803b158015610d1157600080fd5b505af1158015610d25573d6000803e3d6000fd5b5050505060008573ffffffffffffffffffffffffffffffffffffffff166370a08231856040518263ffffffff1660e01b8152600401610d649190614044565b60206040518083038186803b158015610d7c57600080fd5b505afa158015610d90573d6000803e3d6000fd5b505050506040513d601f19601f82011682018060405250610db49190810190613189565b905060008573ffffffffffffffffffffffffffffffffffffffff1663cc7ebdc4866040518263ffffffff1660e01b8152600401610df19190614044565b60206040518083038186803b158015610e0957600080fd5b505afa158015610e1d573d6000803e3d6000fd5b505050506040513d601f19601f82011682018060405250610e419190810190613189565b90506000610e8582846040518060400160405280600e81526020017f73756d20636f6d7020746f74616c000000000000000000000000000000000000815250612073565b90506000610ec982866040518060400160405280600d81526020017f73756220616c6c6f6361746564000000000000000000000000000000000000008152506120cd565b905060405180608001604052808681526020018a73ffffffffffffffffffffffffffffffffffffffff1663b4b5ea578a6040518263ffffffff1660e01b8152600401610f159190614044565b60206040518083038186803b158015610f2d57600080fd5b505afa158015610f41573d6000803e3d6000fd5b505050506040513d601f19601f82011682018060405250610f659190810190613319565b6bffffffffffffffffffffffff1681526020018a73ffffffffffffffffffffffffffffffffffffffff1663587cde1e8a6040518263ffffffff1660e01b8152600401610fb19190614044565b60206040518083038186803b158015610fc957600080fd5b505afa158015610fdd573d6000803e3d6000fd5b505050506040513d601f19601f820116820180604052506110019190810190612c70565b73ffffffffffffffffffffffffffffffffffffffff16815260200182815250955050505050509392505050565b6060600083839050905060608160405190808252806020026020018201604052801561107457816020015b61106161239c565b8152602001906001900390816110595790505b50905060008090505b828110156110d2576110ae86868381811061109457fe5b90506020020160206110a99190810190612e76565b611e52565b8282815181106110ba57fe5b6020026020010181905250808060010191505061107d565b50809250505092915050565b6110e66123cc565b60405180606001604052808473ffffffffffffffffffffffffffffffffffffffff166370a08231856040518263ffffffff1660e01b815260040161112a9190614044565b60206040518083038186803b15801561114257600080fd5b505afa158015611156573d6000803e3d6000fd5b505050506040513d601f19601f8201168201806040525061117a9190810190613189565b81526020018473ffffffffffffffffffffffffffffffffffffffff1663b4b5ea57856040518263ffffffff1660e01b81526004016111b89190614044565b60206040518083038186803b1580156111d057600080fd5b505afa1580156111e4573d6000803e3d6000fd5b505050506040513d601f19601f820116820180604052506112089190810190613319565b6bffffffffffffffffffffffff1681526020018473ffffffffffffffffffffffffffffffffffffffff1663587cde1e856040518263ffffffff1660e01b81526004016112549190614044565b60206040518083038186803b15801561126c57600080fd5b505afa158015611280573d6000803e3d6000fd5b505050506040513d601f19601f820116820180604052506112a49190810190612c70565b73ffffffffffffffffffffffffffffffffffffffff16815250905092915050565b6060600083839050905060608160405190808252806020026020018201604052801561130b57816020015b6112f8612403565b8152602001906001900390816112f05790505b50905060008090505b828110156113695761134586868381811061132b57fe5b90506020020160206113409190810190612e76565b6103ab565b82828151811061135157fe5b60200260200101819052508080600101915050611314565b50809250505092915050565b606080838390506040519080825280602002602001820160405280156113b557816020015b6113a26124a0565b81526020019060019003908161139a5790505b50905060008090505b848490508110156114e05760405180604001604052808686848181106113e057fe5b90506020020160206113f591908101906132c7565b63ffffffff1681526020018873ffffffffffffffffffffffffffffffffffffffff1663782d6fe18989898781811061142957fe5b905060200201602061143e91908101906132c7565b6040518363ffffffff1660e01b815260040161145b9291906140a3565b60206040518083038186803b15801561147357600080fd5b505afa158015611487573d6000803e3d6000fd5b505050506040513d601f19601f820116820180604052506114ab9190810190613319565b6bffffffffffffffffffffffff168152508282815181106114c857fe5b602002602001018190525080806001019150506113be565b5080915050949350505050565b6114f56124ba565b60008060008573ffffffffffffffffffffffffffffffffffffffff16635ec88c79866040518263ffffffff1660e01b81526004016115339190614044565b60606040518083038186803b15801561154b57600080fd5b505afa15801561155f573d6000803e3d6000fd5b505050506040513d601f19601f820116820180604052506115839190810190613278565b9250925092506000831461159657600080fd5b60405180606001604052808773ffffffffffffffffffffffffffffffffffffffff1663abfceffc886040518263ffffffff1660e01b81526004016115da9190614044565b60006040518083038186803b1580156115f257600080fd5b505afa158015611606573d6000803e3d6000fd5b505050506040513d6000823e3d601f19601f8201168201806040525061162f9190810190612df9565b815260200183815260200182815250935050505092915050565b6060808383905060405190808252806020026020018201604052801561168957816020015b6116766124db565b81526020019060019003908161166e5790505b50905060008090505b8484905081101561181e576060806060808973ffffffffffffffffffffffffffffffffffffffff1663328dd9828a8a888181106116cb57fe5b905060200201356040518263ffffffff1660e01b81526004016116ee919061427f565b60006040518083038186803b15801561170657600080fd5b505afa15801561171a573d6000803e3d6000fd5b505050506040513d6000823e3d601f19601f820116820180604052506117439190810190612c99565b9350935093509350604051806101a0016040528060008152602001600073ffffffffffffffffffffffffffffffffffffffff1681526020016000815260200185815260200184815260200183815260200182815260200160008152602001600081526020016000815260200160008152602001600015158152602001600015158152508686815181106117d257fe5b602002602001018190525061180d8686815181106117ec57fe5b60200260200101518b8b8b8981811061180157fe5b90506020020135612128565b505050508080600101915050611692565b50809150509392505050565b606060008251905060608160405190808252806020026020018201604052801561186e57816020015b61185b61255d565b8152602001906001900390816118535790505b50905060008090505b8281101561199e57611887612597565b8773ffffffffffffffffffffffffffffffffffffffff1663e23a9a528784815181106118af57fe5b6020026020010151896040518363ffffffff1660e01b81526004016118d592919061429a565b60606040518083038186803b1580156118ed57600080fd5b505afa158015611901573d6000803e3d6000fd5b505050506040513d601f19601f820116820180604052506119259190810190613160565b9050604051806080016040528087848151811061193e57fe5b6020026020010151815260200182600001511515815260200182602001511515815260200182604001516bffffffffffffffffffffffff1681525083838151811061198557fe5b6020026020010181905250508080600101915050611877565b5080925050509392505050565b6119b36125ca565b60008373ffffffffffffffffffffffffffffffffffffffff166370a08231846040518263ffffffff1660e01b81526004016119ee919061405f565b60206040518083038186803b158015611a0657600080fd5b505afa158015611a1a573d6000803e3d6000fd5b505050506040513d601f19601f82011682018060405250611a3e9190810190613189565b905060008473ffffffffffffffffffffffffffffffffffffffff166317bfdfbc856040518263ffffffff1660e01b8152600401611a7b919061405f565b602060405180830381600087803b158015611a9557600080fd5b505af1158015611aa9573d6000803e3d6000fd5b505050506040513d601f19601f82011682018060405250611acd9190810190613189565b905060008573ffffffffffffffffffffffffffffffffffffffff16633af9e669866040518263ffffffff1660e01b8152600401611b0a919061405f565b602060405180830381600087803b158015611b2457600080fd5b505af1158015611b38573d6000803e3d6000fd5b505050506040513d601f19601f82011682018060405250611b5c9190810190613189565b9050600080611c228873ffffffffffffffffffffffffffffffffffffffff166395d89b416040518163ffffffff1660e01b815260040160006040518083038186803b158015611baa57600080fd5b505afa158015611bbe573d6000803e3d6000fd5b505050506040513d6000823e3d601f19601f82011682018060405250611be7919081019061311f565b6040518060400160405280600481526020017f634554480000000000000000000000000000000000000000000000000000000081525061201a565b15611c60578673ffffffffffffffffffffffffffffffffffffffff163191508673ffffffffffffffffffffffffffffffffffffffff16319050611e02565b600088905060008173ffffffffffffffffffffffffffffffffffffffff16636f307dc36040518163ffffffff1660e01b815260040160206040518083038186803b158015611cad57600080fd5b505afa158015611cc1573d6000803e3d6000fd5b505050506040513d601f19601f82011682018060405250611ce59190810190612c70565b90508073ffffffffffffffffffffffffffffffffffffffff166370a082318a6040518263ffffffff1660e01b8152600401611d20919061405f565b60206040518083038186803b158015611d3857600080fd5b505afa158015611d4c573d6000803e3d6000fd5b505050506040513d601f19601f82011682018060405250611d709190810190613189565b93508073ffffffffffffffffffffffffffffffffffffffff1663dd62ed3e8a8c6040518363ffffffff1660e01b8152600401611dad92919061407a565b60206040518083038186803b158015611dc557600080fd5b505afa158015611dd9573d6000803e3d6000fd5b505050506040513d601f19601f82011682018060405250611dfd9190810190613189565b925050505b6040518060c001604052808973ffffffffffffffffffffffffffffffffffffffff168152602001868152602001858152602001848152602001838152602001828152509550505050505092915050565b611e5a612616565b60008273ffffffffffffffffffffffffffffffffffffffff16635fe3b5676040518163ffffffff1660e01b815260040160206040518083038186803b158015611ea257600080fd5b505afa158015611eb6573d6000803e3d6000fd5b505050506040513d601f19601f82011682018060405250611eda9190810190612fd2565b905060008173ffffffffffffffffffffffffffffffffffffffff16637dc0d1d06040518163ffffffff1660e01b815260040160206040518083038186803b158015611f2457600080fd5b505afa158015611f38573d6000803e3d6000fd5b505050506040513d601f19601f82011682018060405250611f5c91908101906130f6565b905060405180604001604052808573ffffffffffffffffffffffffffffffffffffffff1681526020018273ffffffffffffffffffffffffffffffffffffffff1663fc57d4df876040518263ffffffff1660e01b8152600401611fbe9190614198565b60206040518083038186803b158015611fd657600080fd5b505afa158015611fea573d6000803e3d6000fd5b505050506040513d601f19601f8201168201806040525061200e9190810190613189565b81525092505050919050565b60008160405160200161202d919061402d565b6040516020818303038152906040528051906020012083604051602001612054919061402d565b6040516020818303038152906040528051906020012014905092915050565b60008083850190508481101583906120c1576040517f08c379a00000000000000000000000000000000000000000000000000000000081526004016120b891906141b3565b60405180910390fd5b50809150509392505050565b6000838311158290612115576040517f08c379a000000000000000000000000000000000000000000000000000000000815260040161210c91906141b3565b60405180910390fd5b5060008385039050809150509392505050565b6000806000806000806000808973ffffffffffffffffffffffffffffffffffffffff1663013cf08b8a6040518263ffffffff1660e01b815260040161216d919061427f565b6101206040518083038186803b15801561218657600080fd5b505afa15801561219a573d6000803e3d6000fd5b505050506040513d601f19601f820116820180604052506121be91908101906131b2565b9850985098509850985098509850985050888b6000018181525050878b6020019073ffffffffffffffffffffffffffffffffffffffff16908173ffffffffffffffffffffffffffffffffffffffff1681525050868b6040018181525050858b60e0018181525050848b610100018181525050838b610120018181525050828b610140018181525050818b610160019015159081151581525050808b6101800190151590811515815250505050505050505050505050565b6040518060c00160405280600073ffffffffffffffffffffffffffffffffffffffff16815260200160008152602001600081526020016000815260200160008152602001600081525090565b604051806101c00160405280600073ffffffffffffffffffffffffffffffffffffffff168152602001600081526020016000815260200160008152602001600081526020016000815260200160008152602001600081526020016000815260200160001515815260200160008152602001600073ffffffffffffffffffffffffffffffffffffffff16815260200160008152602001600081525090565b60405180608001604052806000815260200160008152602001600073ffffffffffffffffffffffffffffffffffffffff168152602001600081525090565b6040518060400160405280600073ffffffffffffffffffffffffffffffffffffffff168152602001600081525090565b60405180606001604052806000815260200160008152602001600073ffffffffffffffffffffffffffffffffffffffff1681525090565b604051806101c00160405280600073ffffffffffffffffffffffffffffffffffffffff168152602001600081526020016000815260200160008152602001600081526020016000815260200160008152602001600081526020016000815260200160001515815260200160008152602001600073ffffffffffffffffffffffffffffffffffffffff16815260200160008152602001600081525090565b604051806040016040528060008152602001600081525090565b60405180606001604052806060815260200160008152602001600081525090565b604051806101a0016040528060008152602001600073ffffffffffffffffffffffffffffffffffffffff1681526020016000815260200160608152602001606081526020016060815260200160608152602001600081526020016000815260200160008152602001600081526020016000151581526020016000151581525090565b60405180608001604052806000815260200160001515815260200160001515815260200160006bffffffffffffffffffffffff1681525090565b604051806060016040528060001515815260200160001515815260200160006bffffffffffffffffffffffff1681525090565b6040518060c00160405280600073ffffffffffffffffffffffffffffffffffffffff16815260200160008152602001600081526020016000815260200160008152602001600081525090565b6040518060400160405280600073ffffffffffffffffffffffffffffffffffffffff168152602001600081525090565b6000813590506126558161487c565b92915050565b60008151905061266a8161487c565b92915050565b60008135905061267f81614893565b92915050565b600082601f83011261269657600080fd5b81516126a96126a4826142f0565b6142c3565b915081818352602084019350602081019050838560208402820111156126ce57600080fd5b60005b838110156126fe57816126e4888261265b565b8452602084019350602083019250506001810190506126d1565b5050505092915050565b600082601f83011261271957600080fd5b815161272c61272782614318565b6142c3565b9150818183526020840193506020810190508360005b8381101561277257815186016127588882612a6c565b845260208401935060208301925050600181019050612742565b5050505092915050565b60008083601f84011261278e57600080fd5b8235905067ffffffffffffffff8111156127a757600080fd5b6020830191508360208202830111156127bf57600080fd5b9250929050565b600082601f8301126127d757600080fd5b81516127ea6127e582614340565b6142c3565b9150818183526020840193506020810190508385602084028201111561280f57600080fd5b60005b8381101561283f57816128258882612ad5565b845260208401935060208301925050600181019050612812565b5050505092915050565b600082601f83011261285a57600080fd5b815161286d61286882614368565b6142c3565b9150818183526020840193506020810190508360005b838110156128b357815186016128998882612b53565b845260208401935060208301925050600181019050612883565b5050505092915050565b60008083601f8401126128cf57600080fd5b8235905067ffffffffffffffff8111156128e857600080fd5b60208301915083602082028301111561290057600080fd5b9250929050565b600082601f83011261291857600080fd5b813561292b61292682614390565b6142c3565b9150818183526020840193506020810190508385602084028201111561295057600080fd5b60005b8381101561298057816129668882612c07565b845260208401935060208301925050600181019050612953565b5050505092915050565b600082601f83011261299b57600080fd5b81516129ae6129a982614390565b6142c3565b915081818352602084019350602081019050838560208402820111156129d357600080fd5b60005b83811015612a0357816129e98882612c1c565b8452602084019350602083019250506001810190506129d6565b5050505092915050565b60008083601f840112612a1f57600080fd5b8235905067ffffffffffffffff811115612a3857600080fd5b602083019150836020820283011115612a5057600080fd5b9250929050565b600081519050612a66816148aa565b92915050565b600082601f830112612a7d57600080fd5b8151612a90612a8b826143b8565b6142c3565b91508082526020830160208301858383011115612aac57600080fd5b612ab7838284614838565b50505092915050565b600081359050612acf816148c1565b92915050565b600081519050612ae4816148c1565b92915050565b600081359050612af9816148d8565b92915050565b600081519050612b0e816148ef565b92915050565b600081359050612b2381614906565b92915050565b600081359050612b388161491d565b92915050565b600081519050612b4d81614934565b92915050565b600082601f830112612b6457600080fd5b8151612b77612b72826143e4565b6142c3565b91508082526020830160208301858383011115612b9357600080fd5b612b9e838284614838565b50505092915050565b600060608284031215612bb957600080fd5b612bc360606142c3565b90506000612bd384828501612a57565b6000830152506020612be784828501612a57565b6020830152506040612bfb84828501612c5b565b60408301525092915050565b600081359050612c168161494b565b92915050565b600081519050612c2b8161494b565b92915050565b600081359050612c4081614962565b92915050565b600081519050612c5581614979565b92915050565b600081519050612c6a81614990565b92915050565b600060208284031215612c8257600080fd5b6000612c908482850161265b565b91505092915050565b60008060008060808587031215612caf57600080fd5b600085015167ffffffffffffffff811115612cc957600080fd5b612cd587828801612685565b945050602085015167ffffffffffffffff811115612cf257600080fd5b612cfe8782880161298a565b935050604085015167ffffffffffffffff811115612d1b57600080fd5b612d2787828801612849565b925050606085015167ffffffffffffffff811115612d4457600080fd5b612d5087828801612708565b91505092959194509250565b60008060208385031215612d6f57600080fd5b600083013567ffffffffffffffff811115612d8957600080fd5b612d958582860161277c565b92509250509250929050565b600080600060408486031215612db657600080fd5b600084013567ffffffffffffffff811115612dd057600080fd5b612ddc8682870161277c565b93509350506020612def86828701612670565b9150509250925092565b600060208284031215612e0b57600080fd5b600082015167ffffffffffffffff811115612e2557600080fd5b612e31848285016127c6565b91505092915050565b60008060408385031215612e4d57600080fd5b6000612e5b85828601612a57565b9250506020612e6c85828601612c1c565b9150509250929050565b600060208284031215612e8857600080fd5b6000612e9684828501612ac0565b91505092915050565b60008060408385031215612eb257600080fd5b6000612ec085828601612ac0565b9250506020612ed185828601612670565b9150509250929050565b60008060408385031215612eee57600080fd5b6000612efc85828601612aea565b9250506020612f0d85828601612646565b9150509250929050565b60008060008060608587031215612f2d57600080fd5b6000612f3b87828801612aea565b9450506020612f4c87828801612646565b935050604085013567ffffffffffffffff811115612f6957600080fd5b612f7587828801612a0d565b925092505092959194509250565b600080600060608486031215612f9857600080fd5b6000612fa686828701612aea565b9350506020612fb786828701612b14565b9250506040612fc886828701612646565b9150509250925092565b600060208284031215612fe457600080fd5b6000612ff284828501612aff565b91505092915050565b6000806040838503121561300e57600080fd5b600061301c85828601612b14565b925050602061302d85828601612646565b9150509250929050565b60008060006060848603121561304c57600080fd5b600061305a86828701612b29565b935050602061306b86828701612646565b925050604084013567ffffffffffffffff81111561308857600080fd5b61309486828701612907565b9150509250925092565b6000806000604084860312156130b357600080fd5b60006130c186828701612b29565b935050602084013567ffffffffffffffff8111156130de57600080fd5b6130ea868287016128bd565b92509250509250925092565b60006020828403121561310857600080fd5b600061311684828501612b3e565b91505092915050565b60006020828403121561313157600080fd5b600082015167ffffffffffffffff81111561314b57600080fd5b61315784828501612b53565b91505092915050565b60006060828403121561317257600080fd5b600061318084828501612ba7565b91505092915050565b60006020828403121561319b57600080fd5b60006131a984828501612c1c565b91505092915050565b60008060008060008060008060006101208a8c0312156131d157600080fd5b60006131df8c828d01612c1c565b99505060206131f08c828d0161265b565b98505060406132018c828d01612c1c565b97505060606132128c828d01612c1c565b96505060806132238c828d01612c1c565b95505060a06132348c828d01612c1c565b94505060c06132458c828d01612c1c565b93505060e06132568c828d01612a57565b9250506101006132688c828d01612a57565b9150509295985092959850929598565b60008060006060848603121561328d57600080fd5b600061329b86828701612c1c565b93505060206132ac86828701612c1c565b92505060406132bd86828701612c1c565b9150509250925092565b6000602082840312156132d957600080fd5b60006132e784828501612c31565b91505092915050565b60006020828403121561330257600080fd5b600061331084828501612c46565b91505092915050565b60006020828403121561332b57600080fd5b600061333984828501612c5b565b91505092915050565b600061334e838361344e565b60208301905092915050565b600061336683836138ca565b905092915050565b600061337a8383613903565b60208301905092915050565b6000613392838361398b565b905092915050565b60006133a68383613a8f565b60c08301905092915050565b60006133be8383613c2a565b6101c08301905092915050565b60006133d78383613d79565b60408301905092915050565b60006133ef8383613e3f565b60408301905092915050565b60006134078383613e6e565b905092915050565b600061341b8383613f9c565b60808301905092915050565b60006134338383613ff1565b60208301905092915050565b613448816147cc565b82525050565b613457816146d1565b82525050565b613466816146d1565b82525050565b6000613477826144c0565b61348181856145e9565b935061348c83614410565b8060005b838110156134bd5781516134a48882613342565b97506134af8361455a565b925050600181019050613490565b5085935050505092915050565b60006134d5826144cb565b6134df81856145fa565b9350836020820285016134f185614420565b8060005b8581101561352d578484038952815161350e858261335a565b945061351983614567565b925060208a019950506001810190506134f5565b50829750879550505050505092915050565b600061354a826144d6565b61355481856145e9565b935061355f83614430565b8060005b83811015613590578151613577888261336e565b975061358283614574565b925050600181019050613563565b5085935050505092915050565b60006135a8826144e1565b6135b2818561460b565b9350836020820285016135c485614440565b8060005b8581101561360057848403895281516135e18582613386565b94506135ec83614581565b925060208a019950506001810190506135c8565b50829750879550505050505092915050565b600061361d826144ec565b613627818561461c565b935061363283614450565b8060005b8381101561366357815161364a888261339a565b97506136558361458e565b925050600181019050613636565b5085935050505092915050565b600061367b826144f7565b613685818561462d565b935061369083614460565b8060005b838110156136c15781516136a888826133b2565b97506136b38361459b565b925050600181019050613694565b5085935050505092915050565b60006136d982614502565b6136e3818561463e565b93506136ee83614470565b8060005b8381101561371f57815161370688826133cb565b9750613711836145a8565b9250506001810190506136f2565b5085935050505092915050565b60006137378261450d565b613741818561464f565b935061374c83614480565b8060005b8381101561377d57815161376488826133e3565b975061376f836145b5565b925050600181019050613750565b5085935050505092915050565b600061379582614518565b61379f8185614660565b9350836020820285016137b185614490565b8060005b858110156137ed57848403895281516137ce85826133fb565b94506137d9836145c2565b925060208a019950506001810190506137b5565b50829750879550505050505092915050565b600061380a82614523565b6138148185614671565b935061381f836144a0565b8060005b83811015613850578151613837888261340f565b9750613842836145cf565b925050600181019050613823565b5085935050505092915050565b60006138688261452e565b6138728185614682565b935061387d836144b0565b8060005b838110156138ae5781516138958882613427565b97506138a0836145dc565b925050600181019050613881565b5085935050505092915050565b6138c4816146f5565b82525050565b60006138d582614539565b6138df8185614693565b93506138ef818560208601614838565b6138f88161486b565b840191505092915050565b61390c816147de565b82525050565b61391b816147de565b82525050565b600061392c8261454f565b61393681856146b5565b9350613946818560208601614838565b61394f8161486b565b840191505092915050565b60006139658261454f565b61396f81856146c6565b935061397f818560208601614838565b80840191505092915050565b600061399682614544565b6139a081856146a4565b93506139b0818560208601614838565b6139b98161486b565b840191505092915050565b600060608301600083015184820360008601526139e1828261353f565b91505060208301516139f66020860182613ff1565b506040830151613a096040860182613ff1565b508091505092915050565b60c082016000820151613a2a600085018261344e565b506020820151613a3d6020850182613ff1565b506040820151613a506040850182613ff1565b506060820151613a636060850182613ff1565b506080820151613a766080850182613ff1565b5060a0820151613a8960a0850182613ff1565b50505050565b60c082016000820151613aa5600085018261344e565b506020820151613ab86020850182613ff1565b506040820151613acb6040850182613ff1565b506060820151613ade6060850182613ff1565b506080820151613af16080850182613ff1565b5060a0820151613b0460a0850182613ff1565b50505050565b6101c082016000820151613b21600085018261344e565b506020820151613b346020850182613ff1565b506040820151613b476040850182613ff1565b506060820151613b5a6060850182613ff1565b506080820151613b6d6080850182613ff1565b5060a0820151613b8060a0850182613ff1565b5060c0820151613b9360c0850182613ff1565b5060e0820151613ba660e0850182613ff1565b50610100820151613bbb610100850182613ff1565b50610120820151613bd06101208501826138bb565b50610140820151613be5610140850182613ff1565b50610160820151613bfa61016085018261344e565b50610180820151613c0f610180850182613ff1565b506101a0820151613c246101a0850182613ff1565b50505050565b6101c082016000820151613c41600085018261344e565b506020820151613c546020850182613ff1565b506040820151613c676040850182613ff1565b506060820151613c7a6060850182613ff1565b506080820151613c8d6080850182613ff1565b5060a0820151613ca060a0850182613ff1565b5060c0820151613cb360c0850182613ff1565b5060e0820151613cc660e0850182613ff1565b50610100820151613cdb610100850182613ff1565b50610120820151613cf06101208501826138bb565b50610140820151613d05610140850182613ff1565b50610160820151613d1a61016085018261344e565b50610180820151613d2f610180850182613ff1565b506101a0820151613d446101a0850182613ff1565b50505050565b604082016000820151613d60600085018261344e565b506020820151613d736020850182613ff1565b50505050565b604082016000820151613d8f600085018261344e565b506020820151613da26020850182613ff1565b50505050565b608082016000820151613dbe6000850182613ff1565b506020820151613dd16020850182613ff1565b506040820151613de4604085018261344e565b506060820151613df76060850182613ff1565b50505050565b606082016000820151613e136000850182613ff1565b506020820151613e266020850182613ff1565b506040820151613e39604085018261344e565b50505050565b604082016000820151613e556000850182613ff1565b506020820151613e686020850182613ff1565b50505050565b60006101a083016000830151613e876000860182613ff1565b506020830151613e9a602086018261344e565b506040830151613ead6040860182613ff1565b5060608301518482036060860152613ec5828261346c565b91505060808301518482036080860152613edf828261385d565b91505060a083015184820360a0860152613ef9828261359d565b91505060c083015184820360c0860152613f1382826134ca565b91505060e0830151613f2860e0860182613ff1565b50610100830151613f3d610100860182613ff1565b50610120830151613f52610120860182613ff1565b50610140830151613f67610140860182613ff1565b50610160830151613f7c6101608601826138bb565b50610180830151613f916101808601826138bb565b508091505092915050565b608082016000820151613fb26000850182613ff1565b506020820151613fc560208501826138bb565b506040820151613fd860408501826138bb565b506060820151613feb606085018261401e565b50505050565b613ffa8161478d565b82525050565b6140098161478d565b82525050565b61401881614826565b82525050565b614027816147b4565b82525050565b6000614039828461395a565b915081905092915050565b6000602082019050614059600083018461345d565b92915050565b6000602082019050614074600083018461343f565b92915050565b600060408201905061408f600083018561343f565b61409c602083018461345d565b9392505050565b60006040820190506140b8600083018561345d565b6140c5602083018461400f565b9392505050565b600060208201905081810360008301526140e68184613612565b905092915050565b600060208201905081810360008301526141088184613670565b905092915050565b6000602082019050818103600083015261412a81846136ce565b905092915050565b6000602082019050818103600083015261414c818461372c565b905092915050565b6000602082019050818103600083015261416e818461378a565b905092915050565b6000602082019050818103600083015261419081846137ff565b905092915050565b60006020820190506141ad6000830184613912565b92915050565b600060208201905081810360008301526141cd8184613921565b905092915050565b600060208201905081810360008301526141ef81846139c4565b905092915050565b600060c08201905061420c6000830184613a14565b92915050565b60006101c0820190506142286000830184613b0a565b92915050565b60006040820190506142436000830184613d4a565b92915050565b600060808201905061425e6000830184613da8565b92915050565b60006060820190506142796000830184613dfd565b92915050565b60006020820190506142946000830184614000565b92915050565b60006040820190506142af6000830185614000565b6142bc602083018461345d565b9392505050565b6000604051905081810181811067ffffffffffffffff821117156142e657600080fd5b8060405250919050565b600067ffffffffffffffff82111561430757600080fd5b602082029050602081019050919050565b600067ffffffffffffffff82111561432f57600080fd5b602082029050602081019050919050565b600067ffffffffffffffff82111561435757600080fd5b602082029050602081019050919050565b600067ffffffffffffffff82111561437f57600080fd5b602082029050602081019050919050565b600067ffffffffffffffff8211156143a757600080fd5b602082029050602081019050919050565b600067ffffffffffffffff8211156143cf57600080fd5b601f19601f8301169050602081019050919050565b600067ffffffffffffffff8211156143fb57600080fd5b601f19601f8301169050602081019050919050565b6000819050602082019050919050565b6000819050602082019050919050565b6000819050602082019050919050565b6000819050602082019050919050565b6000819050602082019050919050565b6000819050602082019050919050565b6000819050602082019050919050565b6000819050602082019050919050565b6000819050602082019050919050565b6000819050602082019050919050565b6000819050602082019050919050565b600081519050919050565b600081519050919050565b600081519050919050565b600081519050919050565b600081519050919050565b600081519050919050565b600081519050919050565b600081519050919050565b600081519050919050565b600081519050919050565b600081519050919050565b600081519050919050565b600081519050919050565b600081519050919050565b6000602082019050919050565b6000602082019050919050565b6000602082019050919050565b6000602082019050919050565b6000602082019050919050565b6000602082019050919050565b6000602082019050919050565b6000602082019050919050565b6000602082019050919050565b6000602082019050919050565b6000602082019050919050565b600082825260208201905092915050565b600082825260208201905092915050565b600082825260208201905092915050565b600082825260208201905092915050565b600082825260208201905092915050565b600082825260208201905092915050565b600082825260208201905092915050565b600082825260208201905092915050565b600082825260208201905092915050565b600082825260208201905092915050565b600082825260208201905092915050565b600082825260208201905092915050565b600082825260208201905092915050565b600081905092915050565b60006146dc8261476d565b9050919050565b60006146ee8261476d565b9050919050565b60008115159050919050565b600061470c826146d1565b9050919050565b600061471e826146d1565b9050919050565b6000614730826146d1565b9050919050565b6000614742826146d1565b9050919050565b6000614754826146d1565b9050919050565b6000614766826146d1565b9050919050565b600073ffffffffffffffffffffffffffffffffffffffff82169050919050565b6000819050919050565b600063ffffffff82169050919050565b600060ff82169050919050565b60006bffffffffffffffffffffffff82169050919050565b60006147d782614802565b9050919050565b60006147e9826147f0565b9050919050565b60006147fb8261476d565b9050919050565b600061480d82614814565b9050919050565b600061481f8261476d565b9050919050565b600061483182614797565b9050919050565b60005b8381101561485657808201518184015260208101905061483b565b83811115614865576000848401525b50505050565b6000601f19601f8301169050919050565b614885816146d1565b811461489057600080fd5b50565b61489c816146e3565b81146148a757600080fd5b50565b6148b3816146f5565b81146148be57600080fd5b50565b6148ca81614701565b81146148d557600080fd5b50565b6148e181614713565b81146148ec57600080fd5b50565b6148f881614725565b811461490357600080fd5b50565b61490f81614737565b811461491a57600080fd5b50565b61492681614749565b811461493157600080fd5b50565b61493d8161475b565b811461494857600080fd5b50565b6149548161478d565b811461495f57600080fd5b50565b61496b81614797565b811461497657600080fd5b50565b614982816147a7565b811461498d57600080fd5b50565b614999816147b4565b81146149a457600080fd5b5056fea365627a7a723158200368a82f651875f248227ffa4af4a067193dd893d3fba889a4064c2baee56ace6c6578706572696d656e74616cf564736f6c63430005100040",
  "linkReferences": {},
  "deployedLinkReferences": {}
}